:020000040800F2
:1000000000200020E5510008D52F0008D72F000858
:1000100000000000000000000000000000000000E0
:10002000000000000000000000000000D92F0008C0
:100030000000000000000000DB2F0008DD2F00089A
:100040003552000800000000355200083552000803
:100050003552000835520008355200083552000864
:1000600000000000355200083552000835520008E3
:1000700035520008355200083552000800000000D3
:100080003552000800000000000000003552000852
:1000900000000000355200083552000835520008B3
:1000A0003552000835520008355200083552000814
:0800B000E52F0008000000002C
:1000B80010B5064C2378002B07D1054B002B02D036
:1000C800044800E000BF0123237010BD9000002009
:1000D80000000000F8640008044B10B5002B03D0A2
:1000E8000349044800E000BF10BDC04600000000FE
:1000F80094000020F8640008002243088B4274D35F
:1001080003098B425FD3030A8B4244D3030B8B4210
:1001180028D3030C8B420DD3FF22090212BA030C19
:100128008B4202D31212090265D0030B8B4219D3FA
:1001380000E0090AC30B8B4201D3CB03C01A52411A
:10014800830B8B4201D38B03C01A5241430B8B4262
:1001580001D34B03C01A5241030B8B4201D30B034B
:10016800C01A5241C30A8B4201D3CB02C01A524172
:10017800830A8B4201D38B02C01A5241430A8B4235
:1001880001D34B02C01A5241030A8B4201D30B021E
:10019800C01A5241CDD2C3098B4201D3CB01C01A38
:1001A800524183098B4201D38B01C01A5241430942
:1001B8008B4201D34B01C01A524103098B4201D330
:1001C8000B01C01A5241C3088B4201D3CB00C01A9D
:1001D800524183088B4201D38B00C01A5241430815
:1001E8008B4201D34B00C01A5241411A00D201463A
:1001F800524110467047FFE701B5002000F0F0F8C3
:1002080002BDC0460029F7D076E7704703460B4386
:100218007FD4002243088B4274D303098B425FD3F7
:10022800030A8B4244D3030B8B4228D3030C8B4223
:100238000DD3FF22090212BA030C8B4202D3121209
:10024800090265D0030B8B4219D300E0090AC30BDE
:100258008B4201D3CB03C01A5241830B8B4201D38B
:100268008B03C01A5241430B8B4201D34B03C01A74
:100278005241030B8B4201D30B03C01A5241C30AEC
:100288008B4201D3CB02C01A5241830A8B4201D35D
:100298008B02C01A5241430A8B4201D34B02C01A47
:1002A8005241030A8B4201D30B02C01A5241CDD2EC
:1002B800C3098B4201D3CB01C01A524183098B4237
:1002C80001D38B01C01A524143098B4201D34B0120
:1002D800C01A524103098B4201D30B01C01A524183
:1002E800C3088B4201D3CB00C01A524183088B420A
:1002F80001D38B00C01A524143088B4201D34B00F3
:10030800C01A5241411A00D2014652411046704764
:100318005DE0CA0F00D04942031000D34042534069
:1003280000229C4603098B422DD3030A8B4212D329
:10033800FC22890112BA030A8B420CD3890192115B
:100348008B4208D3890192118B4204D389013AD098
:10035800921100E08909C3098B4201D3CB01C01A6D
:10036800524183098B4201D38B01C01A5241430980
:100378008B4201D34B01C01A524103098B4201D36E
:100388000B01C01A5241C3088B4201D3CB00C01ADB
:10039800524183088B4201D38B00C01A5241D9D2F3
:1003A80043088B4201D34B00C01A5241411A00D274
:1003B8000146634652415B10104601D34042002B70
:1003C80000D54942704763465B1000D3404201B5EF
:1003D800002000F005F802BD0029F8D016E77047A4
:1003E8007047C0468446101C62468C46191C6346FA
:1003F80000E0C0461FB501F01FFA002801D4002113
:10040800C8421FBD10B501F077F94042013010BD58
:1004180010B501F011FA002801DB002010BD012001
:1004280010BDC04610B501F007FA002801DD002014
:1004380010BD012010BDC04610B501F099F9002883
:1004480001DC002010BD012010BDC04610B501F030
:100458008FF9002801DA002010BD012010BDC04628
:100468008446081C6146FFE71FB500F0A9F800287C
:1004780001D40021C8421FBD10B500F02BF840423E
:10048800013010BD10B500F09BF8002801DB0020FA
:1004980010BD012010BDC04610B500F091F800282D
:1004A80001DD002010BD012010BDC04610B500F0D0
:1004B80039F8002801DC002010BD012010BDC0461D
:1004C80010B500F02FF8002801DA002010BD012037
:1004D80010BDC04670B542004E024C0045026D0A80
:1004E800120EC30F760A240EC90FFF2A0FD0FF2C55
:1004F80011D00120A24200D070BDB542FCD18B4280
:100508000DD0002AF8D12800451EA841F4E70120A3
:10051800002DF1D1EBE70120002EEDD1E9E7002015
:10052800EAE7C04670B54A004E02450244006D0A2B
:10053800240EC30F760A120EC90FFF2C15D0FF2AFE
:100548000ED0002C15D1002A01D1002E1CD0002D70
:1005580014D08B4227D00220013B1840013870BDCF
:10056800002EEED002204042F9E7002DFAD1FF2AF2
:100578000ED0002A0ED1002EEDD00BE00123013958
:10058800994308000130EAE70020002DE7D0E2E7B0
:10059800002EE7D18B42DED1944205DD0221581EA0
:1005A80008400138DBE70024A24204DCB542D2D877
:1005B8000020B542D3D2581E012398430130CEE71C
:1005C80030B5420044024D02C30F4800640A120EBF
:1005D8006D0A000EC90FFF2A12D0FF280CD0002A7E
:1005E80012D1002819D1002D17D1002C2BD00220B0
:1005F800013B1840013826E0002DF0D0022022E00F
:10060800002CFBD1FF281FD000281FD1002D1DD1A1
:100618000220013B1840013815E0002C0ED08B4217
:10062800E5D10022904204DCAC42E0D80020AC4284
:1006380009D2581E01239843013004E001230139EF
:1006480099430800013030BD002DD7D18B42CED15F
:100658008242E7DD0221581E08400138F3E7C04610
:10066800F8B54746CE464400C20F80B54702480257
:10067800400A8446664648007F0A240EF600250094
:100688009046FB00000EC90FB146FF2800D185E057
:1006980001267140261A914257D0002E43DD0028CA
:1006A80000D07FE04946002900D1AAE0013E002E93
:1006B80000D0F7E05B1A5A0100D48BE09B019C093B
:1006C800200002F007F805388440854200DDD3E0B9
:1006D800451B230020200135EB40451BAC40621E22
:1006E80094412343072400251C40012241460A4027
:1006F800002C04D00F211940042900D004335901DB
:1007080000D480E00135ECB2FF2D00D0A3E0FF2437
:1007180000235B02E405580AD207204310430CBCAF
:1007280090469946F8BD002E74D1601CC0B20128CD
:1007380000DCA7E04A469C1A620100D5B6E0002C0E
:10074800BED1002200240023E3E7002E00DC85E070
:10075800002846D0FF2C49D080224846D2041043B6
:10076800814601221B2E09DC20204C46801B844038
:100778004A462000F240441EA04102439B185A01F9
:1007880028D50135FF2D00D1A8E00122072494497E
:100798001A405B080B4013431C40A6E7002E00D00C
:1007A80078E775E7FF2C54D080224946D2041143DC
:1007B800894601221B2E09DC20214846891B8840D6
:1007C8004A460100F240481E81410A439B1A5A01D9
:1007D80000D573E7012241460A40590700D089E74E
:1007E80011E04846002858D1FF2C0CD1DB08002B1B
:1007F80000D18CE78020C00303435B025B0AFF241F
:1008080087E7FF2C25D0DB08FF2DF0D05B025B0AC1
:10081800ECB27EE7002C4DD0FF2818D08024E404E9
:10082800724223431B2A00DDC4E01C002025D4406B
:10083800AA1A93405A1E934123434A460500D31AE5
:10084800884638E7721CF8D0F243FF28EAD10A003C
:100858004B46FF25D7E79B015B0A5AE7002E41D19B
:10086800651CE9B2012945DDFF2D00D14FE70724BA
:100878004B445B081C4038E707225A4B2D1A23408B
:10088800144032E7002C1DD1002B7AD14B46002BA7
:1008980000D191E00A000025B5E7013E002E19D1EC
:1008A8004B446CE7FF2C84D1FF25ACE74A468846C9
:1008B800D41A05E7002BC5D10A00FF28C8D00500C7
:1008C8004B46A0E7002B49D14B46002B77D00A00B6
:1008D800FF2598E7FF2C00D043E787E70A00FF24AD
:1008E800002316E7002C15D1002B57D1FF28E6D19D
:1008F8004B467BE7002C20D1002B57D049460029D6
:1009080053D04B445A0168D50724364A1C40012568
:100918001340EAE6FF28EBD08022D2047642134344
:100928001B2E53DC2025AD1B1A00AB40F2405C1E89
:10093800A34113434B44050021E7002BD8D0494677
:10094800002900D152E78021C9030F4200D14DE7A9
:100958006046084200D049E74B4647E74846FF252E
:10096800002800D14FE78022D203174204D0604606
:10097800104201D14B46884601224146FF250A40D4
:1009880041E7484600281FD01A1A500120D54A4688
:100998000724D31A1C4088460025A6E6741CC9D033
:1009A800F643FF28BCD14B4620E799464B46002525
:1009B800DB082BE7012340E700220023A9E6802378
:1009C8000022DB03FF24A4E600251CE70123B1E78E
:1009D800002AF1D013000025FCE60025FAE6C046FF
:1009E800FFFFFF7DFFFFFFFB41024200C30F490AE3
:1009F800120E00207E2A0DD99D2A0CD880200004D2
:100A08000143952A0ADC9620821AD1404842002BDD
:100A180000D108007047034A9818FBE7963A9140BE
:100A2800F4E7C046FFFFFF7F70B500283DD0C3172D
:100A3800C5185D40C40F280001F04CFE9E22121A12
:100A4800962A07DCD2B2082833DD083885406802C8
:100A5800400A23E0992A0BDD052329001B1AD940F7
:100A680003001B339D402B005D1EAB4119430D0055
:100A7800052801DD431F9D402B000F490B406E07E1
:100A880009D00F263540042D05D004335D0102D569
:100A98009F220B40121A9B01580AD2B24002D2057B
:100AA800400AE4071043204370BD002400220020C0
:100AB800F4E76802400AF1E7FFFFFFFBF0B54F4695
:100AC8004646D6460C000903C0B5490A470F5E00E2
:100AD80039431F03DB0F9C4665007B0A570F1F43F2
:100AE8006D0DE40F760DA146C000B846D200AB1BD1
:100AF80064457BD0002B5FDD002E00D0A4E03E00D3
:100B0800164300D112E15E1E002E00D09EE1871A26
:100B18004346B84280410125C91A4042091A0B02CE
:100B280000D431E149024E0A002E00D16EE13000B6
:100B380001F0D0FD0300083B1F2B00DD61E12022FE
:100B48003900D21A9E40D1409F400E439D4200DD9D
:100B580051E15D1B6B1C1F2B00DD7CE12021C91AB4
:100B68003D0030008F408840DD40791E8F413100C4
:100B780007222843D940002507433A40002A09D0D4
:100B88000F233B40042B05D03B1DBB42BF417F4296
:100B9800C9191F000B0200D426E26A1CC64B550572
:100BA8006D0D9A4200D106E1C44AFF080A40530776
:100BB80052023B43120B8EE0002B00D0B8E06B1CB6
:100BC8005B055B0D012B00DC30E1871A4346B84218
:100BD800B641CB1A76429E1B330200D54CE13B004E
:100BE8003343A1D100220024002570E0002B00DC53
:100BF800E5E0002E00D183E0AF4EB54260D08026FC
:100C080036043743B846382B00DC3EE143461343ED
:100C18001F007A1E97413F188742804140420918B9
:100C28000B0200D4B0E0A44B01359D4200D1C3E0D3
:100C3800A24A7B080A4001210F401F435108D307ED
:100C480007221F433A4099E79B4EB54238D0802689
:100C580036043743B846382B00DDDCE01F2B00DCB8
:100C680030E11E004746203EF740BC46202B04D00A
:100C78004026F31A46469E403243170063467A1EC2
:100C880097411F43CCE0002B00D104E243461343B5
:100C980000D159E14B07C00818438023C9081B033A
:100CA800194208D04546ED081D4204D14346D008F4
:100CB800590708432900420FC9007F4D1143C0005E
:100CC8004B07CA087C49C00803438D4268D0120309
:100CD8006D05120B6D0D002112031800130B0A0D80
:100CE80012051A43764B2D0513402B435B00E4078E
:100CF8005B08234319001CBC90469946A246F0BDE8
:100D08003E00164312D05E1E002E00D000E1871868
:100D18008742804141444042091801250B0233D5DE
:100D2800022585E764463300414610001D00C7E7E9
:100D3800002D00D0DAE00C000443F3D05C1C00D195
:100D48009FE15D4CA64200D12FE1DB43382B00DD4B
:100D580066E11F2B00DD83E120240500E41A0F0063
:100D6800DD40D940A0404346A7405B1A441EA0413D
:100D780098462F433843171ABA4292414346524283
:100D8800991A64463500CAE607223A40002A00D07C
:100D9800F6E64B07CA084849FF083B438D4296D1FF
:100DA8001900114300D19EE1802109030A4312036F
:100DB800120B414D8FE71500002200238BE7002B13
:100DC80000D0C7E06B1C5F057F0D012F00DCF1E050
:100DD800394DAB4200D1B9E085180A0085428941F6
:100DE8004244494251180722CF076D082F4349084A
:100DF8003A401D00C2E607223049ED1A31403A4018
:100E0800BCE63E002838864000279FE6380001F0FF
:100E180061FC20308EE6434613431F007A1E97413B
:100E2800C71BB84280414042091A78E60E003B00D1
:100E380006431343002D61D1002E00D0F4E0002BAF
:100E480000D11BE164463900100039E71A4FBB4254
:100E58007AD03300FFE630001F3DE840202B03D056
:100E68004021CB1A9E4037437B1E9F4107220743F0
:100E78003A400021002589E7171A4346BA42B6418D
:100E8800591A76428E1B64464EE61F2B00DDADE0F4
:100E980020264746F61AB740B9461700B246DF4043
:100EA8004E463E4337005646B240561EB24117439F
:100EB8004246DA408918AEE6FF070000FFFF7FFFD1
:100EC800FFFF0F8020264746F61AB740B94617009D
:100ED800B246DF404E463E4337005646B240561EA5
:100EE800B24117434246DA40891A99E77F4CA64235
:100EF8005BD0802424045B42214327E7002E0CD1D9
:100F0800002B00D1CBE0644639001000774DD7E6BE
:100F1800764FBB4218D0330075E6002B14D04B0730
:100F2800C00818438023C9081B03194207D0FC08CE
:100F38001C4204D17907D0080843E14621004C46F9
:100F4800420FC9001143C000684DB9E61D000022D8
:100F58000023C0E6002D5BD10D00054300D1E2E679
:100F68005D1C00D1B0E0614DAE421FD0DB43382B91
:100F780071DC1F2B00DD96E020250F00ED1AAF4035
:100F8800B9460700AA46DF404D463D432F00554667
:100F9800A840D940451EA84188440743BF18974236
:100FA80092415142414435003AE664463500414693
:100FB800100085E60B000343002D00D063E6002BEC
:100FC800F5D04346134300D17AE68718874280411B
:100FD80007224144404209183A400B0200D4D5E6A2
:100FE800434B01351940C9E5380069E61E004746FC
:100FF800203EF740BC46202B04D04026F31A464634
:101008009E403243170063467A1E97411F4302E60B
:10101800364DAE42CAD080252D045B422943A6E74F
:101028000843411E8841A6E6002B00D148E6871AEE
:101038004346B842B641CB1A76429E1B33024BD583
:10104800171A4346BA429241591A5242891A07223C
:1010580064463A4092E501430F00791E8F419DE7AF
:101068001C000F00203CE740202B03D04024E31A4B
:1010780099400843411E884138437CE600220024F9
:1010880025E6171A4346BA429241591A5242891A1A
:101098006446350043E541461000144D10E68022B1
:1010A8000024120380E61D000F00203DEF40BC46DF
:1010B800202B03D04025EB1A9940084307006346CC
:1010C800781E87411F4369E7871897429B4141442F
:1010D8005B42C9183500A3E53B003343CED0072255
:1010E80031003A4052E600231A00F4E5FF070000F9
:1010F800FFFF7FFFF0B55746DE464E464546E0B552
:10110800834607000E03480085B092461C00360B44
:10111800400DCD0F002800D19DE0954B984239D065
:101128008023F6001B041E43924A7B0F33439946E3
:10113800944603006344009300230026FF000293B3
:1011480023031B0B98466300E40F52465B0D019482
:1011580000D1B3E086498B4200D19EE04246D100DF
:10116800802212040A435146490F11438B46814994
:1011780052468C4600996344CB1A0021D200009352
:101188002B0063409A460F2E00D905E17A4BB60032
:101198009B599F465B463343994600D0B8E00223EB
:1011A8000826002700900293CAE7CB463A00029926
:1011B8000195019B9A46022927D0032900D180E294
:1011C800012944D06D49009B8C4663441C00002CC7
:1011D80038DD530700D013E2D2085B46DB0109D59E
:1011E8005946674B19408B468021C9008C46009BA5
:1011F80063441C00634B9C4207DC5B4664055F0745
:101208005B0217431B0B620D02E000230027584ABC
:1012180000211B031C0B0B0D1B05234314055A4A05
:10122800380013401C4353466400DB0764081C4322
:10123800210005B03CBC90469946A246AB46F0BD9D
:101248000122524201231B1B382B00DCADE1002296
:1012580000230027DCE75B46334399465ED0002E27
:1012680000D18AE1300001F035FA03000B3B1C2B5A
:1012780000DD7BE11D22D31A5A460100DA40083905
:101288008E4013005F46334399468F403F4B0026FC
:101298001B1A00930023029352E7414653460B431F
:1012A8003B499B468C46009B634400935B46002B5E
:1012B8003BD1022300221E43022161E74346134328
:1012C8009B4637D04346002B00D162E1404601F0EF
:1012D80001FA03000B3B1C2B00DD53E102004146E1
:1012E800083A914088461D21CB1A5146D9400B0037
:1012F80041460B439B46534693401A00009B2549A1
:101308009C46604403008C4663440093002137E701
:101318000323B14600900C26029311E700230093A3
:1013280001330426002702930AE70323C3461E431A
:10133800032125E701331E430022012120E7002372
:101348009A46802300271B03094A61E78023494600
:101358001B03194200D1E2E05946194200D0DEE0F1
:101368000B431B0317001B0BA246014A50E7C0465C
:10137800FF07000001FCFFFF98650008FF0300005D
:10138800FFFFFFFEFE070000FFFF0F800DFCFFFFC1
:1013980001F8FFFFF3030000D94500D9CBE000D1E5
:1013A800C6E03C0048460027009B013B00935B4693
:1013B800160E1B021E431302984633041B0C994653
:1013C800310C0191FEF71EFF4A4642430B04210CE3
:1013D800050019438A4207D98919013D8E4203D86D
:1013E8008A4201D9851E8919881A0199FEF70AFFD0
:1013F80009048C464A46210464464243090C03000A
:1014080021438A4204D98919013B8E4200D8F1E070
:101418002D041D43AB464346891A4246280C120444
:101428001D0C5B46140C22001B041B0C5A4303942E
:101438006B434443029568431B19150CEB189C42F7
:1014480003D980246402A44660441C0C15041B04C0
:101458002D0C20185D19814277D373D00C1AA24A3B
:101468007D1BAF42BF419446009B7F426344E01B13
:101478001C00864200D1DBE00199FEF7C3FE4A4614
:1014880042430B04290C070019438A4207D98919DA
:10149800013F8E4203D88A4201D9871E8919881ACA
:1014A8000199FEF7AFFE09044A46894629044D46CC
:1014B8004243090C030029438A4207D98919013B91
:1014C8008E4203D88A4201D9831E89193F04891A9A
:1014D8003A00039F1A43380013041B0C58438146F3
:1014E8000298150C6F43434345434846000C844615
:1014F800DB1963449F4203D9802040028446654437
:1015080048461F0C00041B04000C7D191818A9423A
:1015180000D284E000D17FE001231A4357E68023FC
:101528004A461B0313431B031B0BAA466F4A6FE66D
:10153800BA4200D935E74B46DC0758087B081C43FC
:10154800FF0734E70024AF4289D247444745A44106
:101558005B466442A4196418013BA6421ED2A0420D
:101568006DD800D1B6E0241A9B4678E703005A46A6
:10157800283B9A400027914688E6584601F0AAF889
:10158800203072E603005246283B9A4093460022D8
:10159800B4E6504601F09EF820309AE6A642E2D121
:1015A800B845DCD9341A9B4659E71F2B65DC504CEB
:1015B8000099A4465C46614408008C4011008240B2
:1015C800D940501E82410C4314435A46DA40130056
:1015D800620709D00F222240042A05D02200141DD8
:1015E8009442894149425B181A0262D501220023BC
:1015F80000270DE68A4200D80AE7831E891907E703
:101608000F231340042B00D1E6E5171D97429241A2
:1016180053429B44FA08E0E5002800D1D7E5711849
:10162800531EB14227D3A94215D358D01A0073E7E5
:10163800002B00DC04E6012300229B44CDE50223B5
:101648004744474589415B429C46494289190C19E0
:10165800E344241A03E743465F0047459B41B846E5
:101668005B429E19023A8919A94200D054E74045C5
:1016780000D051E7ABE51A00F6E71F215F46494263
:101688000C1BE740202B07D01A49009B8C4663446B
:1016980018005B4683401A43501E82413A4307278D
:1016A8000023174009D00F210023114014000429FA
:1016B80095D122005F075B021B0BD208174300225B
:1016C800A6E5802359461B030B431B0317001B0B7E
:1016D800064A9DE5BD42B2D89B460024BFE6804538
:1016E800B9D31A00C3E7C046FF030000FF07000094
:1016F8001E0400003E040000F0B54F464646D6469C
:101708008446C0B58046194E18030F034D00000BE0
:101718005C0082463F0B6D0DC90F9146640DDB0FCF
:101728000120B5420AD0B44203D0A54201D15745A1
:101738000CD01CBC90469946A246F0BD66463E4376
:10174800F7D1AC42F5D154461443F2D10120C84533
:10175800EFD1994207D0002DEBD163461F433800E3
:10176800471EB841E5E70020E3E7C046FF07000051
:10177800F0B54F464646D6464D00C0B50E03C90FD4
:101788008A462C491F035C008046360B6D0D914636
:101798003F0B640DDB0F8D421ED08C4216D0002DFE
:1017A8001ED130438446002C01D13A4323D06246EF
:1017B800002A1AD09A4529D05146022001390840FA
:1017C80001381CBC90469946A246F0BD3900114329
:1017D800E5D002204042F4E73043FAD1AC420FD0C2
:1017E800002C0FD13A43E7D00CE00122013B934390
:1017F80018000130E5E763460020002BE1D0DBE765
:101808003A43E6D19A45D7D1A542D5DCA54205DBB6
:10181800BE42D1D808D00020BE42D2D250460123C1
:10182800013898430130CCE7C845C5D80020C845E1
:10183800F4D3C6E7FF070000F0B54F464646D64644
:101848004D00C0B50E03C90F8A462E491F035C0020
:101858008046360B6D0D91463F0B640DDB0F8D42B4
:1018680018D08C4211D0002D18D130438446002C5A
:101878001ED13A431CD163460020002B30D051467C
:1018880002200139084001382AE039001143EAD022
:10189800022025E03043FBD1AC4226D0002C26D1D3
:1018A8003A4324D15146022001390840013817E053
:1018B8006246002A0FD09A45E1D1A54205DBBE4217
:1018C800DDD819D00020BE420AD250460123013883
:1018D8009843013004E00122013B93431800013092
:1018E8001CBC90469946A246F0BD3A43D0D19A45D1
:1018F800C5D1A542C3DCE0E7C845C0D80020C8452B
:10190800E3D3EDE7FF070000F0B55746DE464E4645
:101918004546E0B5834606000F03480087B0924667
:101928001D003F0B400DCC0F002800D16FE0DE4BAF
:10193800984238D08023FF001B041F43730F3B439A
:101948000193DA4B0027994600239B46F600814411
:101958002B0369001B0B52469846490DED0F0029D1
:1019680000D185E0D04B994200D173E04346DA00BC
:1019780080231B0413435246CC48520F844613431A
:10198800524600206144D2008944210069400091F8
:101998008C46012149448A460F2F00D990E0C4495A
:1019A800BF00CF59BF465B463B43019300D06AE175
:1019B80002230827002681469B46C9E7320058467D
:1019C800019B61460091022800D175E0032800D1EF
:1019D800FEE1012800D02CE1002300270026002585
:1019E8003F032A0D3F0BB34812053A4302401B053B
:1019F8001343009A5B00D1075B080B4330001900C2
:101A080007B03CBC90469946A246AB46F0BD5B4643
:101A18003B43019300D12FE1002F00D1A5E138000D
:101A280000F058FE03000B3B1C2B00DD96E11D2245
:101A3800D31A5A460100DA405E4608398F4013002F
:101A48008E403B4301939C4B00271B1A9946002369
:101A58009B467DE7414653460B4393498C46E144F8
:101A6800002B00D01AE102220220174300228CE743
:101A7800134300D10DE14346002B00D181E14046DC
:101A880000F028FE02000B3A1C2A00DD72E101007A
:101A9800434608398B4098461D239A1A5346D3402B
:101AA8001A004346134352468A404946081A824957
:101AB80089468144002068E77B4B002700268EE793
:101AC800140C1204120C1100370C3604350C79432F
:101AD80028008C462E00604360448346564321000C
:101AE800300C80465846794340440291844506D9D3
:101AF8008846802149028C46E044414602913604DA
:101B0800010C360C00048B4681191E0C1B041B0C9F
:101B18000391190079438C46280075436544A8460B
:101B28005843050C45447743A94203D9802149020B
:101B38008C466744290C8C4639000004000C2D049F
:101B48002D186144AB4405915946049101990F043D
:101B58003F0C080C390051434243904602008C4622
:101B6800090C8B4662437C4344445C44A04503D93A
:101B78008021490288464244210C8846614609046E
:101B8800090C8C4639005943434370437E430F0C7C
:101B9800F6182404BE19644442448C46B34203D95F
:101BA80080235B0298464044029B61469846049B0A
:101BB800370443449B46AB45AD416B420D04059940
:101BC8002D0C8C467F196744FD18A8465D462D19D3
:101BD800A542A44193466442A446C344DC448F42D0
:101BE800BF4198459B4193459241A445A4415B421E
:101BF8007F421F43360C52426442BF192243BF182A
:101C0800624638184302D20D039913436A020A4305
:101C1800501E82416146ED0D2A434E023243D901DE
:101C280000D4B3E00126500832400243DE073243B5
:101C38005B08224C5444002C62DD510709D00F2068
:101C48001040042805D0101D9042924152429B1822
:101C58000200D90104D580241948E4000340544403
:101C68001848844200DD27E75E075B02D2081F0B95
:101C7800630516435B0DB2E600239946013304273A
:101C880000269B4664E60323019781460C279B4662
:101C98005EE6012201201743002276E60323032093
:101CA8001F43434671E6C046FF07000001FCFFFFE3
:101CB800D8650008FFFF0F800DFCFFFFFF03000041
:101CC800FFFFFFFEFE0700000023802700933F036D
:101CD8000026434B83E6019B3200A446584670E633
:101CE800AC466EE6802701993F0339422DD03B422E
:101CF8002BD11F433F033F0B00951600384B6EE670
:101D080001252D1B382D00DD66E61F2D40DC3548EA
:101D18001C005044160082408440EE40501E824110
:101D280034431443EB40620709D00F222240042AAF
:101D380005D02200141D9442804140421B181A020B
:101D48003ED501230027002649E68027019B3F0353
:101D58001F433F033F0B0094214B40E603005A46C4
:101D6800283B9A40002601926DE6584600F0B2FCE6
:101D7800203057E603005246283B9A4013000022C1
:101D880093E6504600F0A6FC20307BE6CA4650E7B2
:101D98001F201E004042041BE640202D03D0124C99
:101DA8005444A3401A43501E824132430726002759
:101DB800164009D00F200023104014000428B9D180
:101DC80022005E075B021F0BD2081643002306E6BB
:101DD80080273F031F433F033F0B1600004BFEE5E0
:101DE800FF0700001E0400003E040000F8B5574637
:101DF8004E464546DE460C000903E0B5490A460F43
:101E08005F0031431E03DB0F760A9B46530F3343B3
:101E1800C84E6500C000E40FD2006D0DA246814691
:101E28007F0D9C469046B74200D1B9E05B4601263B
:101E380073409B46EE1BA34500D183E0002E63DD73
:101E4800002F00D0B1E06346134300D123E1731E95
:101E5800002B00D0BAE1861A6346B04280410125C2
:101E6800C91A4042091A0B0200D447E149024B0A39
:101E780098464346002B00D189E1404600F02AFCF1
:101E88000300083B1F2B00DD7CE120223000D21A22
:101E98004146D040994002009E400A439D4200DDE1
:101EA8006AE15D1B6B1C1F2B00DD94E120211000F3
:101EB8003500C91A8E40DA408840DD40711E8E41D7
:101EC800110007222843002506433240002A09D082
:101ED8000F233340042B05D0331DB342B64176425D
:101EE80089191E000B0200D43DE26A1C914B55056E
:101EF8006D0D9A4200D119E18F4AF6080A4057073A
:101F080052023743120B9BE0002E00D0C5E06E1C36
:101F18007605760D012E00DC48E16746861ACB1B54
:101F2800B042BF417F42B8461F004346FF1A3B00FC
:101F3800B8461B0200D55FE137439AD1002200243E
:101F4800002579E0002E00DCFAE0002F00D18DE0BA
:101F5800784B9D4267D0802367461B041F43BC46CD
:101F6800382E00DC52E1634613435A1E93411E1873
:101F780086428041404209180B0200D4BEE06D4BF6
:101F880001359D4200D1D2E06B4A73080A40012115
:101F98000E401E435108D30707221E43324095E7DF
:101FA8001E00164300D045E740E7624B9D423AD0F9
:101FB800802367461B041F43BC46382E00DDEBE038
:101FC8001F2E00DC3AE133006746203BDF403B0030
:101FD800202E05D04027BF1B6646BE4032439046A0
:101FE8004646721E96413343DAE0002B00D114E2D4
:101FF8006346134300D168E180234E07C008C9082F
:102008001B030643194208D06046C008184204D191
:1020180063460100D2085E071643F3009946C900DB
:10202800720F444D11434B46DE08424B4F0737436E
:10203800CA089D4200D16EE012036D05120B6D0DAA
:1020480000211203130B0A0D12051A433B4B2D05F1
:1020580013402B435B00E4075B0823433800190057
:102068003CBC90469946A246AB46F8BD634613432E
:1020780011D0731E002B00D007E1861886428041DC
:1020880061444042091801250B0237D502257BE738
:102098003E00614691463500C5E75C46002D00D0FC
:1020A800E1E00B000343F3D0731C00D1ACE1214BFA
:1020B8009F4200D13AE1F343382B00DD6FE11F2B3B
:1020C80000DD8CE120250E00ED1AAE40B04606007A
:1020D800AA46DE40454635432E005546D940A8401D
:1020E8006346451EA8415B1A9C463043161AB24205
:1020F800924163465242991A3D00B4E607223240A3
:10210800002A00D0E4E60B4BF6084F073743CA080D
:102118009D4200D090E73B00134300D1A6E1802305
:102128001B031A431203120B024D89E71500002204
:10213800002785E7FF070000FFFF7FFFFFFF0F80F5
:10214800002E00D0C7E06B1C5E05760D012E00DC6A
:10215800F0E0C84DAB4200D1B9E085180A008542CD
:1021680089416244494251180722CE076D082E431F
:10217800490832401D00A9E6BF49ED1A114007225F
:102188003240A3E6320028388240002686E6300036
:1021980000F0A0FA203073E6634613435A1E9341B9
:1021A800C61AB04280414042091A5CE60E006746F2
:1021B80006431743002D5ED1002E00D0F3E0002F18
:1021C80000D11EE15C46614691462CE7A94FBE420C
:1021D8007BD01E00F1E610001F3DE840202B03D005
:1021E8004021CB1A9A401643731E9E41072206438C
:1021F80032400021002583E7161A6346B242804127
:10220800591A40420B1A98465C4632E61F2E00DDEA
:10221800ABE02027BB1B9A4663465746BB4099460E
:1022280013004F46F3401F433B005746BA40571E22
:10223800BA4113436246F240891898E62027BB1B2F
:102248009A4663465746BB40994613004F46F340AB
:102258001F433B005746BA40571EBA4113436246D4
:10226800F240891A9CE7834B9F425FD080252D045A
:102278007342294320E7002E0CD1002F00D1D0E073
:102288005C46614691467B4DCDE67A4FBE421CD0F6
:102298001E0065E6002F18D0C0084E0706438020B0
:1022A800C9080003014208D06346DC08044204D18F
:1022B8002100DA46D2085E071643F3009946012446
:1022C8005346C900720F11431C406A4DABE61D000E
:1022D80000220027B4E6002D59D10B00034300D19A
:1022E800D6E6731C00D1B2E0624B9F421ED0F34386
:1022F800382B6FDC1F2B00DD97E020250E00ED1A30
:10230800AE40B0460600AA46DE40454635432E009C
:102318005546A840D940451EA8418C440643B618E6
:1023280096429241514261443D0025E63D00614696
:10233800914678E60B000343002D00D055E6002BAC
:10234800F5D06346134300D16DE686188642804176
:1023580061444042091800220B0200D4D0E6464BE3
:1023680001351940B2E5B1465DE633006746203BCA
:10237800DF403B00202E05D04027BF1B6646BE40ED
:10238800324390464646721E96413343EFE5394B39
:102398009F42CBD080252D0473422943A8E70843E8
:1023A800411E8841A2E6002F00D13CE66346861A0A
:1023B800CF1AB0429B415B42FB1A98461B024ED58E
:1023C800161A6346B2429241591A5242891A5C4619
:1023D80000227BE501430E00711E8E419FE71D0020
:1023E8000E00203DEE40B046202B04D04025EB1ACD
:1023F80099400843814648464346411E8841184350
:1024080074E60022002417E6161A6346B242924187
:10241800591A5242891A3D0025E561469146154DE3
:1024280001E680220024120379E61D000E00203DFB
:10243800EE40B046202B04D04025EB1A99400843C3
:1024480081464E464346711E8E411E4367E78618F5
:1024580096429B4161445B42C9183D008CE5474662
:102468003743CED007224146324049E600273A009A
:10247800E6E5C046FF070000FFFF7FFF70B50C4E82
:102488000D031C0349005B002D0B490D240B5B0D4C
:10249800B14208D0064900208B4203D114432000E2
:1024A800441EA04170BD05430120002DFAD1F1E77B
:1024B800FF07000070B500282DD0C317C5185D4070
:1024C800C40F280000F006F9154B1B1A5B055B0DBD
:1024D8000A2815DD0B38854000222D032D0B00211D
:1024E80010002D030A0D2D0B12052A430D4D1B0557
:1024F8002A4013435B00E4075B082343190070BDBF
:1025080002002900153291400A000B21081AC54023
:102518002D032D0BE3E70024002300250022DEE72E
:102528001E040000FFFF0F804100090E4B1C70B510
:10253800DBB24602750AC40F012B14DDE0239B00B1
:102548006D07360BCB1800210A0D280012051C4D0B
:1025580032435B052A405B0813435B00E4075B08D2
:102568002343190070BD002914D1002D1ED0280066
:1025780000F0B0F80A281CDC0B232A001B1ADA40EA
:10258800030015339D400F4B12031B1A5B05160BF6
:102598005B0DD8E7002D06D0320B802636036D0779
:1025A8001643094BCFE7084B0026CCE7002300264B
:1025B800C9E703002A000B3B9A400025E3E7C04621
:1025C800FFFF0F8089030000FF070000F0B54C00F3
:1025D800640D0B03621C5B0A460F5205C90F1E43AC
:1025E800C500520D012A29DD374BE718FE2F1CDCE8
:1025F800002F3BDD8001431E98410722F3006D0F39
:1026080003432B431A40002A04D00F221A40042AFD
:1026180000D004338022D2041A4024D00137FAB201
:10262800FF2F02D09B01580A01E0FF220020400240
:10263800D205400AC90710430843F0BD3543002CB2
:1026480004D1002D0AD100220020F0E7002DECD0A3
:102658008020C0033043FF22E9E7002400235B0207
:10266800580AE2B2E3E7DB083C00F8E73B0017331F
:10267800F3DB80231B0433431E26F61B1F2E14DDB9
:1026880002225242D71B1A00FA401700202E04D00B
:102698000E4A94466444A3401D432B005D1EAB4183
:1026A80007223B431A400027ADE7094A2800A21831
:1026B800954093406C1EA541F04007222B430343ED
:1026C8001A4000279FE7C04680FCFFFFA2FCFFFFDF
:1026D80082FCFFFF1C2101231B04984201D3000C3C
:1026E80010391B0A984201D3000A08391B0998427D
:1026F80001D30009043902A2105C40187047C04693
:1027080004030202010101010000000000000000B2
:102718000023C25C0133002AFBD1581E7047000019
:1027280082B0054A516B012319435163526B134020
:102738000193019B02B070470010024072B6FEE799
:1027480000B599B0342200210BA803F0B2FE102284
:10275800002107A803F0ADFE1822002101A803F00C
:10276800A8FE8020800001F085F902230B938022C7
:1027780052000E9200220F9240211091129313934F
:1027880014920633159380239B02169380239B058E
:1027980017930BA801F098F9002818D1072307937D
:1027A800053B0893002309930A93022107A801F027
:1027B8003FFC00280DD121230193002302930393AA
:1027C80001A801F015FD002805D119B000BDFFF7DB
:1027D800B5FFFFF7B3FFFFF7B1FF000010B51748CB
:1027E800174B0360E1231B02436000238360C3602F
:1027F80003610C2242618361C361036243628362A5
:1028080002F062FB002811D100210C4802F09CFC68
:1028180000280DD10021094802F0BAFC002809D18E
:10282800064802F071FC002806D110BDFFF786FFAC
:10283800FFF784FFFFF782FFFFF780FF800100208A
:102848000038014010B50C480C4B0360E1231B0213
:10285800436000238360C36003610C22426183618B
:10286800C36103624362836202F02EFB002800D139
:1028780010BDFFF763FFC04610020020004400406F
:1028880010B51248124B0360124B4360002383605B
:102898000122C260036143618361C361036200F086
:1028A800C1FE00280CD10021084801F08DF800284D
:1028B80008D10021054801F0B3F8002804D110BD63
:1028C800FFF73CFFFFF73AFFFFF738FF340100201E
:1028D80000540040BC7D701070B50400FFF718FF6D
:1028E80001256D4282B22B002100084802F038FA17
:1028F800642000F0D3FB2000FFF70AFF82B22B0010
:102908002100034802F02CFA024870BD8001002023
:1029180010020020A002002070B59AB005000E0039
:102928001400002301936022002102A803F0C1FDD6
:1029380001A8FFF7EDFE01AB9C46604408221F4941
:1029480003F0AEFD2800FFF7E3FE0200290001A80E
:1029580003F0B7FD01A8FFF7DBFE01AB9C4660441E
:10296800174D0222290003F09BFD3000FFF7D0FE2F
:102978000200310001A803F0A4FD01A8FFF7C8FE7A
:1029880001AB9C4660440222290003F089FD200027
:10299800FFF7BEFE0200210001A803F092FD01A886
:1029A800FFF7B6FE01AB9C4660440322054903F0DD
:1029B80077FD01A8FFF790FF1AB070BDD86700082F
:1029C800E06700081467000810B50248FFF784FFA5
:1029D80010BDC046F467000810B5FFF76BFD074A45
:1029E800074BFEF791FF0022064BFEF78DFF064AC4
:1029F800064BFFF7FBF9FFF7E9FD10BDD7A3703DC4
:102A08000AF765400000F03ECDCCCCCCCC6C4740FA
:102A180010B5FFF74FFD00220F4BFEF775FF0022A0
:102A28000E4BFEF771FF00220D4BFFF7DFF9FFF7A2
:102A3800CDFD041C0021FDF725FD002809D1094919
:102A4800201CFDF733FD002801D1201C10BD054CCA
:102A5800FBE70024F9E7C04600405F400000F03E75
:102A6800000018400000C84203781B024078184351
:102A78007047000030B585B004000D000F226A448D
:102A8800E5231370224B009301238021214800F095
:102A98002FFE00282FD11E4B0093022303AA80216A
:102AA8001C4800F0DBFE002828D103A8FFF7DCFF54
:102AB800FFF7AEFF20600F226A44E0231370144B27
:102AC800009301238021134800F012FE002818D13A
:102AD8000F4B0093022303AA80210E4800F0BEFE8C
:102AE800002811D103A8FFF7BFFFFFF775FF286083
:102AF800002005B030BD01204042FAE701204042E5
:102B0800F7E701204042F4E701204042F1E7C046E0
:102B18001027000034010020F8B52C4B1C78002C3D
:102B280011D002682A4B9A420FD0012229492A481B
:102B380002F08AFAF8BD294A0021D1540133DBB2E8
:102B4800312BF8D9EDE72300FAE7224B1B780D2B40
:102B580006D00A2B04D0611C1C4A11701F4A135559
:102B68000A2BE2D1002300E00133082B0ADC1B4AC0
:102B7800D15C1B4AD25C9142F6D114494A780132A1
:102B88004A70F1E7114B5B78092B19D00F4C0025DF
:102B98006570124E3000FFF7BBFD82B2114F012362
:102BA8005B423100380002F0DBF801235B4202226D
:102BB8000D49380002F0D4F825700123E370B4E71A
:102BC800024A937801339370E0E7C046AC000020D6
:102BD8000044004070030020100200200803002079
:102BE80000000020800100201467000870B501393A
:102BF800002307E0C4182578421816782670157047
:102C0800013301398B42F5DB70BDF0B5C64600B51E
:102C180005000E00904600240CE00A212800FDF76C
:102C2800DBFB671C303131550A212800FDF7EEFA2D
:102C380005003C00002DF0D102E03023335501346B
:102C48004445FADB21003000FFF7D0FF3619002396
:102C58003370200004BC9046F0BD0000F0B583B08E
:102C6800071C0C001500FDF7BFFE0600FDF7DCFE93
:102C7800011C381CFDF7F4FC071C00222100300061
:102C8800FFF7C3FF0600002D01D103B0F0BD2E23CE
:102C980023542800FFF70EFC02000B0000200B490C
:102CA80002F0C6FA00900191381CFFF73DFC009A2B
:102CB800019BFEF729FEFFF789FC0136A419FDF7F1
:102CC80093FE2A002100FFF7A0FFDEE70000244062
:102CD800F0B583B001912C4F3C1D00222100FFF775
:102CE800BDFF20373800FFF713FD3818274E0222A2
:102CF800310003F0D5FB3800FFF70AFD381802222F
:102D0800234903F0CDFB3800FFF702FD3818214DA9
:102D18000222290003F0C4FB2000FFF7F9FC02009F
:102D28002100380003F0CDFB3800FFF7F1FC38181C
:102D38000222310003F0B4FB002221000198FFF7C2
:102D48008DFF3800FFF7E4FC38180222124903F01F
:102D5800A7FB3800FFF7DCFC38180222290003F033
:102D68009FFB2000FFF7D4FC02002100380003F08D
:102D7800A8FB3800FFF7CCFC38180222074903F0FB
:102D88008FFB380003B0F0BDAC000020386A0008A3
:102D98003C6A0008406A0008446A0008486A00085B
:102DA80010B500F055F9FFF7CBFCFFF7B9FCFFF7BA
:102DB80015FDFFF747FDFFF763FD01222749284866
:102DC80002F042F924E0FFF7FFFD264BDB78012BE8
:102DD800FBD1244B0022DA70234B01321A71FA20FE
:102DE800800000F05BF917E0204B31221A7521E0D2
:102DF8001C4AD2182021002050540133632BF7DDE0
:102E0800002403E01A4800F049F901340E2CF9DDDA
:102E1800154B1B79002BD6D0144CE1682069FFF7BD
:102E280029FE144B1968144B1868FFF751FF237DCE
:102E3800392BD9D00B4A0D4B996920320F48FFF72F
:102E48006BFD084BDB78012BFBD1064B0022DA70B7
:102E5800064A137D013313750023CFE77003002062
:102E680010020020AC0000202C01002000000020EF
:102E780060EA00006C030020040300204C6A00088C
:102E880082B00A4B196C012211431964196C0A406B
:102E98000092009ADA6B802149050A43DA63DB6BFA
:102EA8000B400193019B02B07047C04600100240DE
:102EB80010B588B004001422002103A803F0F9FA21
:102EC8002268124B9A4201D008B010BD104C626BB8
:102ED80002231A436263626B13400193019BC02370
:102EE8000393AE3B0493113B05930533079303A962
:102EF800084800F0BFF9E26B802189030A43E263C6
:102F0800E36B0B400293029BDEE7C046005400408F
:102F1800001002400004005010B58AB004001422CA
:102F2800002105A803F0C5FA2368254A934204D076
:102F3800244A93421FD00AB010BD234B196C80203D
:102F4800C001014319641A6C02400192019A596B3D
:102F58000122114359635B6B13400293029BC02308
:102F6800DB000593022306930992A02005A9C0055A
:102F780000F080F9DFE7144BD96B80208002014311
:102F8800D963DA6B02400392039A596B0122114309
:102F980059635B6B13400493049B0C2305930A3B12
:102FA80006930992A02005A9C00500F063F9002244
:102FB80000211C2000F084F81C2000F0B3F8BAE7C8
:102FC800003801400044004000100240FEE7FEE7E0
:102FD8007047704710B500F04FF810BD10B50248A3
:102FE80001F0FCF910BDC04610020020024B8022FF
:102FF80012059A607047C04600ED00E010B5040065
:10300800114B1978002901D1012010BDFA20800048
:10301800FDF772F801000D4B1868FDF76DF800F028
:103028008DF800280DD1032C01D90120EDE70130DE
:1030380000222100404200F043F8034B5C6000206E
:10304800E3E70120E1E7C046200000201C00002043
:1030580010B5084A116880235B000B4313600020F9
:10306800FFF7CCFF041E02D00124200010BDFFF79B
:1030780007FFFAE700200240034B1B78034A116858
:103088005B1813607047C0462000002074030020BE
:10309800014B18687047C0467403002070B50400DF
:1030A800FFF7F6FF0500631C02D0044B1B78E418F9
:1030B800FFF7EEFF401BA042FAD370BD20000020AE
:1030C80070B5002811DB8308144DC0339B005C5990
:1030D80003221040C000FC3216008640B443890128
:1030E8000A40824022435A5170BDC0B20F230340A8
:1030F800083B9B0806339B00094A944663445D6875
:1031080003242040C000FF2214008440A543890105
:103118001140814029435960E6E7C04600E100E0DC
:1031280000ED00E0002805DB1F2318401E3B83400C
:10313800014A13607047C04600E100E001380A4BBD
:1031480098420FD8094A50600948036A1B021B0AB3
:10315800C02109060B430362002393600733136001
:10316800002070470120FCE7FFFFFF0010E000E0AF
:1031780000ED00E030B5002836D02523C35C022BD3
:1031880006D00423C36320330022C254012030BD7B
:10319800026813680E218B431360426C136813494D
:1031A8000B40136001680A6801239A430A60104CB7
:1031B80062681C21056C29408B4013436360836C53
:1031C800C26C5A60036D002B06D01A6807490A4082
:1031D8001A60436D826D5A6025230122C254013B57
:1031E8000022C2540020D2E70120D0E7FFFEFFFFF3
:1031F8000000024070B52523C35C022B03D00423D2
:10320800C363012070BD026813680E218B431360ED
:1032180001680A6801239A430A60416C0A68134CE2
:1032280022400A60124C62681C21056C29408B40C0
:1032380013436360836CC26C5A60036D002B06D025
:103248001A680A490A401A60436D826D5A6025233C
:103258000122C254013B0022C254836B002B02D0CE
:1032680098470020CEE70020CCE7C046FFFEFFFFCE
:1032780000000240F0B5CE46474680B5002336E050
:10328800032600E00026AE4035003D43524E183478
:10329800A400A55180243559D4432E0026404F68F8
:1032A800FF0301D515432E004B4D8027EE51842690
:1032B800AD592E0026404F68BF0301D515432E0097
:1032C800454D8427EE512D682E0026404F68FF0299
:1032D80001D515432E00404D2E606D682C404E6878
:1032E800B60201D52A4314003B4A546001330A68E8
:1032F8001400DC406CD001249C402240F6D04D687C
:103308006E1E012E03D9112D01D0122D12D1856800
:103318005F000326BE40B5432E00CD68BD4035434F
:1033280085604568A5434C682609012434409C40C3
:103338002C434460C7685E000324B440E443A446B9
:1033480027408D68B5403D43C5604C68022C01D0CC
:10335800122C10D1DC080834A400A14627580725F0
:103368001D40AD000F24AC40A7430C69AC402500BC
:103378003D434C46255005686446254003244F6864
:103388003C40B4402C4304604C68E400AED59C0833
:1033980025001835AD00104EAF5903251D40ED002E
:1033A8000F26AE40B743A026F605B04200D169E724
:1033B8000A4EB04208D00A4EB04207D0094EB04279
:1033C80000D15DE705265EE701265CE702265AE79D
:1033D8000CBC90469946F0BD00180240000400500D
:1033E80000080050000C005003689A69920701D544
:1033F80000229A6203689A69D20703D49A69012164
:103408000A439A6170470000F0B5059C0568686832
:10341800660D8027FF003740054E3E43B0438905BF
:10342800890D120411430B43234303436B60F0BD22
:10343800FF63FF0370B504000E00150003689B6965
:10344800DB0619D523689A69920617D4731CF9D03C
:10345800FFF71EFE401BB04201D8002EF2D1636C6C
:103468002022134363644123E25400232232A354ED
:10347800023AA35401201AE0002018E01022DA6171
:1034880023682025DD612000FFF7AEFF226853681E
:1034980007490B405360636C042213436364412360
:1034A800E55400233E32A354023AA354012070BDD0
:1034B80000E800FE70B504000D00160023689B6943
:1034C8009B071CD4320029002000FFF7B3FF002817
:1034D80017D16B1CF2D0FFF7DBFD801BA84201D887
:1034E800002DEBD1636C2022134363644123E25423
:1034F80000232232A354023AA354012000E0002002
:1035080070BD0120FCE7F8B506000C0017001D008F
:1035180033689B6923401B1B5A425341BB4216D157
:103528006B1CF5D0FFF7B4FD069BC01AA84201D862
:10353800002DEDD1736C2022134373644123F254A0
:1035480000232232B354023AB354012000E0002091
:10355800F8BD70B505000C0016002B689B699B062A
:103568001AD4320021002800FFF764FF002815D183
:10357800FFF78EFD801BA04201D8002CEDD16B6CAB
:10358800202213436B644123EA5400232232AB54B4
:10359800023AAB54012070BD0020FCE70120FAE795
:1035A80070B504000D00160023689B695B0733D4CF
:1035B800320029002000FFF73DFF00282ED12368A4
:1035C8009A69920611D4FFF763FD801BA84201D8BF
:1035D800002DE9D1636C2022134363644123E25434
:1035E800013B0022E254012070BD9A69520702D5BE
:1035F800228D002AF8D12022DA6121684B68084818
:1036080003404B6000236364412162542232A35477
:10361800023AA3540120E7E70020E5E70120E3E7A9
:1036280000E800FE10B5041E59D04123C35C002BEE
:1036380043D041232422E2542268136801218B439A
:1036480013602268274B61680B40136122689368F6
:1036580025490B409360E368012B34D0226884230A
:103668001B02A1680B439360E368022B32D02268E7
:1036780051681E4B0B4353602268D3681A490B40AC
:10368800D360236962691343A26912022168134354
:10369800CB602268E369216A0B43136022681368D0
:1036A80001210B4313600023636441221F31A1549D
:1036B80023630132A354002010BD40330022C254BA
:1036C800FFF7F6FBB5E7226880231B02A1680B43CE
:1036D8009360C9E72368802212015A60C7E7012076
:1036E800EAE7C046FFFFFFF0FF7FFFFF0080000210
:1036F800F0B585B00500039117001E004123C35C97
:10370800202B00D099E02033C35C012B00D197E037
:1037180040230122C254FFF7BBFC04008021009023
:103728001923012209022800FFF7EDFE002800D026
:1037380088E041232122EA540133113AEA54002354
:103748006B646F626E856B636B8D9BB2FF2B0BD9BD
:10375800FF232B857F3B3F4A00925B04FF2203999E
:103768002800FFF751FE18E06A8D92B22A8580235F
:10377800D2B2384900919B0403992800FFF744FE10
:103788000BE06A8D92B22A858023D2B20021009183
:103798009B0403992800FFF737FE6B8D9BB2002B23
:1037A80034D022000A992800FFF784FE00284BD164
:1037B8002B686A6A12789A626B6A01336B626B8D46
:1037C800013B9BB26B852B8D013B9BB22B856A8D90
:1037D80092B2002AE1D0002BDFD100940A9B00228C
:1037E80080212800FFF78FFE00282FD16B8D9BB218
:1037F800FF2BC6D9FF232B857F3B002200925B0459
:10380800FF3203992800FFF7FFFDC6E722000A9957
:103818002800FFF79EFE00281AD12B682022DA61C3
:1038280029684B680C4C23404B604123EA54002321
:103838002232AB54023AAB5400E0022005B0F0BD8E
:103848000220FBE70120F9E70120F7E70120F5E76F
:103858000120F3E70020008000E800FEF0B585B005
:103868000500039117001E004123C35C202B00D0E4
:1038780099E02033C35C012B00D197E0402301225B
:10388800C254FFF705FC040080210090192301228F
:1038980009022800FFF737FE002800D088E04123FE
:1038A8002222EA540133123AEA5400236B646F620D
:1038B8006E856B636B8D9BB2FF2B0BD9FF232B851A
:1038C8007F3B3F4A00925B04FF2203992800FFF7E1
:1038D8009BFD18E06A8D92B22A858023D2B23849BE
:1038E80000919B0403992800FFF78EFD0BE06A8D79
:1038F80092B22A858023D2B2002100919B040399B9
:103908002800FFF781FD6B8D9BB2002B34D022007D
:103918000A992800FFF744FE00284BD12B685B6A00
:103928006A6A13706B6A01336B622B8D013B9BB221
:103938002B856A8D013A92B26A856A8D92B2002A05
:10394800E1D0002BDFD100940A9B002280212800BF
:10395800FFF7D9FD00282FD16B8D9BB2FF2BC6D95D
:10396800FF232B857F3B002200925B04FF320399E3
:103978002800FFF749FDC6E722000A992800FFF74B
:10398800E8FD00281AD12B682022DA6129684B68E3
:103998000C4C23404B604123EA5400232232AB54A1
:1039A800023AAB5400E0022005B0F0BD0220FBE76C
:1039B8000120F9E70120F7E70120F5E70120F3E707
:1039C8000024008000E800FEF0B54123C35C202BF2
:1039D80020D12033C35C012B1ED040240122025584
:1039E80041252423435506683368934333600668AA
:1039F80033680A4F3B4033600668336819433160C7
:103A080001680B6813430B602023435500230355BB
:103A1800002000E00220F0BD0220FCE7FFEFFFFFDE
:103A2800F0B54123C35C202B1ED12033C35C012B8E
:103A38001CD0402401220255412524234355066801
:103A480033689343336006683368094F3B40090283
:103A58001943316001680B6813430B6020234355F9
:103A680000230355002000E00220F0BD0220FCE7FF
:103A7800FFF0FFFF10B5104A136810490B400343CD
:103A8800136080239B00984201D0002010BD0C4B8E
:103A98001A6853009B1858000A49FCF72DFB01309F
:103AA800054B5B695B0503D5002803D00138F7E7B0
:103AB8000020EBE70320E9E700700040FFF9FFFF73
:103AC8001C00002040420F0070B582B0041E00D1D7
:103AD80034E20368DB0739D5C14A916838230B40C3
:103AE800D16803220A40102B26D0082B26D0636801
:103AF8008022520293427FD0A022D202934200D168
:103B080081E0B74B1A68B7490A401A601A68B64983
:103B18000A401A606368002B00D180E0FFF7B8FA0A
:103B28000500AF4B1B689B0310D4FFF7B1FA401B8D
:103B38006428F6D9032002E2032AD6D1A84B1B68D1
:103B48009B0303D56368002B00D1FAE123689B0728
:103B580031D5A34A936838210B40D16803220A4023
:103B6800102B6AD0002B6BD19D4A1268520503D5E1
:103B7800E268002A00D1E6E1994842689B490A4078
:103B8800616909020A434260002B0DD10368984914
:103B98000B4021690B4303600368DB0A07221A40C4
:103BA800944BD340944A1360944B1868FFF726FA55
:103BB800002800D0C9E123681B0700D481E0884BA6
:103BC8009A6838231340182B73D0A369002B00D1AF
:103BD80091E0834A136E01210B431366FFF758FAED
:103BE80005007F4B1B6E9B076BD4FFF751FA401BF8
:103BF8000228F6D90320A2E1794A116880235B02E2
:103C08000B43136086E7764B19688022D2020A4379
:103C18001A601968802252020A431A607AE7FFF78D
:103C280037FA05006E4B1B689B038FD5FFF730FAF8
:103C3800401B6428F6D9032081E1022A92D193E738
:103C4800E368002B22D0664A136869490B40216952
:103C58000B431360116880235B000B431360FFF76D
:103C680017FA05005E4B1B685B0506D4FFF710FAD0
:103C7800401B0228F6D9032061E159494B685B4A89
:103C880013406269120213434B6094E7544A136865
:103C98005B490B401360FFF7FBF90500504B1B68AD
:103CA8005B0588D5FFF7F4F9401B0228F6D90320F5
:103CB80045E14B4B1B6E9B0703D5A369002B00D135
:103CC80045E123685B0700D4A2E0454B9A68382396
:103CD8001340202B22D0424BDB6BDB0027D4404A19
:103CE800D16B802040050143D163D36B034001931E
:103CF800019B01251CE03A4A136E01218B43136690
:103D0800FFF7C6F90500364B1B6E9B07D9D5FFF7A1
:103D1800BFF9401B0228F6D9032010E1304BDB6DB8
:103D28009B0775D5A368002B72D1012007E10025F8
:103D3800344B1B68DB051FD5A368012B30D0052B3E
:103D480034D0274BDA6D01218A43DA65DA6D033105
:103D58008A43DA65A368002B32D0FFF799F9060089
:103D68001F4BDB6D9B0751D4FFF792F9801B264B45
:103D78009842F5D90320E2E0224A116880235B00CB
:103D88000B431360FFF784F906001E4B1B68DB0525
:103D9800D2D4FFF77DF9801B0228F6D90320CEE0A4
:103DA8000F4AD36D01210B43D365D3E70C4BDA6D72
:103DB80004210A43DA65DA6D03390A43DA65C9E78B
:103DC800FFF766F90600064BDB6D9B071ED5FFF76C
:103DD8005FF9801B0C4B9842F5D90320AFE0C04631
:103DE80000100240FFFFFEFFFFFFFBFFFF80FFFF09
:103DF800FFC7FFFF0024F4001C000020240000205F
:103E0800FFFEFFFF0070004088130000012D26D040
:103E1800E369002B00D19CE0514A916838220A409E
:103E2800102A61D0022B20D04D4B1A684D490A4008
:103E38001A60DA6803218A43DA60DA684A490A4074
:103E4800DA60FFF725F90400454B1B689B0149D54B
:103E5800FFF71EF9001B0228F6D903206FE0404A3D
:103E6800D36B42490B40D363D2E73D4A13683D49BF
:103E78000B401360FFF70CF90500394B1B689B01D9
:103E880006D5FFF705F9401B0228F6D9032056E0AE
:103E9800334AD36836491940236A606A0343A06AE3
:103EA80000020343E06A0343206B03430B43D360E0
:103EB800116880235B040B431360D16880235B0582
:103EC8000B43D360FFF7E4F80400254B1B689B0104
:103ED80006D4FFF7DDF8001B0228F6D903202EE0F0
:103EE80000202CE000202AE0012B34D01C4BDA689B
:103EF80003231340216A8B4201D001201FE0702365
:103F08001340616A8B4201D0012018E0FE21C901EB
:103F18001140A36A1B02994201D001200FE0F82347
:103F28009B031340E16A8B4201D0012007E0520F46
:103F38005207236B9A4210D0012000E0012002B002
:103F480070BD0120FBE70120F9E70120F7E7012018
:103F5800F5E70020F3E70120F1E70020EFE7C0468E
:103F680000100240FFFFFFFEFFFFFEEFFFFFFFEF25
:103F78008C80C11F10B52B4B9B6838221A4219D070
:103F8800284B9A6838231340082B46D0254B9A684B
:103F980038231340102B18D0224B9A68382313402B
:103FA800202B3CD01F4B9A6838231340182B31D054
:103FB800002009E01B4B1A68D20A0723134001218D
:103FC80099401948FCF798F810BD164AD1680D3B7E
:103FD8000B40D2681209072111400131032B0FD180
:103FE8001248FCF789F80F4BDA68120A7F2313404E
:103FF80058430C4BD968490F0131FCF77DF8E3E7CA
:104008000948FCF779F8074BDA68120A7F2313404E
:104018005843EEE7FA20C001D6E70448D4E78020E9
:104028000002D1E7001002400024F40000127A00D8
:1040380070B504000D00002800D1AAE0574B1A689B
:10404800072313408B4221D323689A070ED55B07B9
:1040580005D5534A9168E023DB010B439360504A2E
:10406800936850490B40A1680B4393602368DB07B2
:1040780054D56368012B20D0022B3BD0002B3FD1B5
:10408800474A126852051CD401206AE0434A136863
:1040980007218B432B431360FEF7FAFF06003F4BC3
:1040A8001A6807231340AB42CED0FEF7F1FF801BFE
:1040B8003D4B9842F3D9032053E0394A12689203E2
:1040C80069D537498A680720824313438B60FEF716
:1040D800DFFF0600324B9B6838221A406368DB001A
:1040E8009A421BD0FEF7D4FF801B2F4B9842F1D980
:1040F800032036E02A4A12689201E2D4012030E017
:10410800032B05D0264AD26D9207DAD4012028E085
:10411800234A126E9207D4D4012022E01F4B1A685A
:1041280007231340AB421DD823685B0706D51C4AFA
:1041380093681E490B40E1680B439360FFF71AFF31
:10414800174B9A68120A0F2313409B00184A9A5873
:104158001F231340D840174B1860174B1868FEF7F9
:104168004DFF70BD0D4A136807218B432B43136025
:10417800FEF78EFF0600094B1A6807231340AB426F
:10418800D2D0FEF785FF801B074B9842F3D9032056
:10419800E7E70120E5E70120E3E7C0460020024009
:1041A80000100240FFF0FFFF88130000FF8FFFFFA1
:1041B800106500081C00002024000020014B18682E
:1041C8007047C0461C00002010B5FFF7F7FF064BEC
:1041D8009A68120B072313409B00044A9A581F231E
:1041E8001340D84010BDC04600100240506500087A
:1041F800F0B583B0040003689B0360D5524BDB6BBA
:10420800DB001ED4504AD16B802040050143D163A6
:10421800D36B03400193019B01264C4A116880230C
:104228005B000B431360FEF733FF0500474B1B6829
:10423800DB0508D4FEF72CFF401B0228F6D903251E
:1042480002E00026E9E70025002D21D13E4BDB6D79
:10425800C0229200134010D062699A420DD03A4AA7
:10426800D36D3B490B40D06D802149020143D16594
:10427800D16D38480140D165D365DB0710D4002DD6
:1042880006D1314AD36D32490B4061690B43D3657E
:10429800012E15D12C4AD36B2F490B40D3630FE065
:1042A800FEF7F6FE0700284BDB6D9B07E7D4FEF709
:1042B800EFFEC01B294B9842F5D90325DFE70025FF
:1042C8002368DB0706D5204A536D03218B436168B9
:1042D8000B43536523689B0606D51B4A536D20493B
:1042E8000B40A1680B43536523685B040BD5164A42
:1042F800536D9B009B0821690B4353658023DB05A5
:1043080022699A4211D023681B050BD50E4A536DBA
:1043180014490B40E1680B435365E2688023DB01D5
:104328009A4209D0280003B0F0BD074AD16880231B
:104338005B020B43D360E6E7034AD16880235B0244
:104348000B43D360EEE7C046001002400070004007
:10435800FFFCFFFFFFFFFEFFFFFFFFEF88130000DA
:10436800FFCFFFFFFF3FFFFF026813680B490B40B9
:104378001360026893680A490B409360C36E012B6F
:1043880006D088232022C2500023C36603677047E3
:104398000268136810218B431360F2E7DFFEFFFF0A
:1043A800FEFFFFEF704710B50268136840218B438A
:1043B800136084232022C25000234367FFF7F2FFD3
:1043C80010BD704710B5806A00235E228352083AF8
:1043D8008352FFF7F6FF10BD70470000F8B50400E0
:1043E8000168CB6908688D68994A1A400BD19E0606
:1043F80009D5860601D4EE0005D5236F002B01D020
:1044080020009847F8BD002A00D182E0914A2A404E
:1044180002D1914E30427CD0DE0707D5C60505D5BE
:1044280001270F628C26A1593943A151990709D553
:10443800E90707D5216802260E628A36A1590427A2
:104448003943A151590709D5E90707D52168042639
:104458000E628836A15902273943A15119070AD596
:10446800810601D4002A06D02268082616628C210B
:104478006258324362501A050AD5420108D52268AB
:104488008021090111628C21625820263243625032
:104498008C22A258002AB5D09B0608D5830601D4E1
:1044A800EB0004D5236F002B01D0200098478C2304
:1044B800E25823689B685B0602D42823134221D064
:1044C8002000FFF751FF23689A68520616D59A68AC
:1044D80040218A439A60E36F002B0BD05F4A9A63AE
:1044E800E06FFEF787FE002800D18BE7E06F836B53
:1044F800984787E72000FFF764FF83E72000FFF76E
:1045080060FF7FE72000FFF75CFF8C230022E2506A
:1045180078E7E26E012A11D0DA0201D56A0276D470
:104528001A0600D47AE0020601D42A0276D5636F0F
:10453800002B00D166E72000984763E7DA06EBD541
:10454800C206E9D510230B62226893685B0638D54A
:10455800E16F0B685B689BB2002B00D152E75C20CF
:10456800205A984200D84DE75E2023520B681B68FA
:104578009B0609D55C23E15A0233E35AC91A89B26A
:104588002000FFF729FF3DE7136835490B4013600A
:10459800226893680331FF318B43936022689368E4
:1045A8003F318B43936088232022E2500023E36647
:1045B8002268136830398B431360E06FFEF7DAFD29
:1045C800D8E75C23E15A0233E05A091A89B2E35A60
:1045D8009BB2002B00D115E7002900D112E7136820
:1045E800204803401360226893681F480340936083
:1045F80088232022E2500023E36623672268136899
:104608001020834313602000FFF7E6FEFAE68023BC
:104618005B030B62200000F073FDF3E65A0601D538
:1046280042060DD41A0201D542000DD4DB0100D494
:10463800E8E6002800DBE5E6200000F062FDE1E6A0
:104648002000FFF7B0FEDDE6200000F05BFDD9E6B4
:104658000F0800000100001020010004CD430008ED
:10466800FFFEFFFFDFFEFFFFFEFFFFEF10B50400B8
:104678006023C35A88228258222A05D00268936987
:1046880008210B43936110BD0268526ADBB21340E4
:10469800826D1370836D013383655E22835A013BFB
:1046A8009BB28352835A9BB2002BECD102681368E9
:1046B8000F490B401360026893682331FF318B4325
:1046C800936088232022C25000230367C36E012B06
:1046D80004D0FEF721FA0023E366D4E702681368E2
:1046E8000F318B4313605C23C15AFFF775FEF2E765
:1046F800DFFEFFFF10B504006023C25A2833C358F9
:10470800222B05D00268936908210B43936110BDE1
:1047180003685B6A1340826D1380836D023383657F
:104728005E22835A013B9BB28352835A9BB2002B71
:10473800EDD10268136810490B4013600268936852
:104748002331FF318B43936088232022C2500023FA
:104758000367C36E012B04D0FEF7DEF90023E3667E
:10476800D5E7026813680F318B4313605C23C15A85
:10477800FFF732FEF2E7C046DFFEFFFFF0B5C646A0
:1047880000B582B004006023C35A01930368DD6951
:104798001A6890469F6888228258222A07D09A6908
:1047A80008210A439A6102B004BC9046F0BD682310
:1047B800C65A1FE08C23E358002B56D15E23E35AD8
:1047C8009BB2002B16D1226813683D490B40136039
:1047D800226893683B490B40936088232022E2506B
:1047E80000232367E36E012B46D02000FEF794F9DF
:1047F8000023E366002E4AD0AB0648D523685B6ADF
:104808006A4612791340A26D1370A36D0133A36534
:104818005E22A35A013B9BB2A3522368DD696A0753
:10482800CCD0EA0708D54246D20505D50121196240
:104838008C22A3580B43A350AB0709D5FB0707D518
:10484800236802221A628A32A35804210B43A35018
:104858006B07AFD5FB07ADD5236804221A628832EF
:10486800A35802210B43A350A4E72000FFF7A9FD9A
:104878008C230022E250A1E72268136810218B43A1
:1048880013605C23E15A2000FFF7A6FDB0E75E2322
:10489800E35A9BB2002B00D185E76822A25A9A42BC
:1048A80000D880E72268936807490B409360074B5C
:1048B80023672268136820210B43136073E7C046FF
:1048C800FFFEFFFFFEFFFFEFFFFFFFEF754600084B
:1048D800F8B5CE46474680B504006023C55A03683C
:1048E800DF691A6890469A68914688228258222A77
:1048F80007D09A6908210A439A610CBC90469946E8
:10490800F8BD6823C65A1FE08C23E358002B56D104
:104918005E23E35A9BB2002B16D1226813683D49E7
:104928000B401360226893683B490B4093608823CF
:104938002022E25000232367E36E012B46D020009B
:10494800FEF7EAF80023E366002E4AD0BB0648D5F6
:1049580023685B6A2B40A26D1380A36D0233A365A5
:104968005E22A35A013B9BB2A3522368DF697A07F0
:10497800CED0FA0708D54246D20505D501211962DD
:104988008C22A3580B43A350BB070AD54B46DB0721
:1049980007D5236802221A628A32A35804210B43DE
:1049A800A3507B07B0D54B46DB07ADD5236804225F
:1049B8001A628832A35802210B43A350A4E72000AF
:1049C800FFF7FFFC8C230022E250A1E7226813685E
:1049D80010218B4313605C23E15A2000FFF7FCFC95
:1049E800B0E75E23E35A9BB2002B00D185E768222B
:1049F800A25A9A4200D880E72268936807490B4078
:104A08009360074B23672268136820210B431360C8
:104A180073E7C046FFFEFFFFFEFFFFEFFFFFFFEF5C
:104A2800FD46000810B50400836802691343426913
:104A38001343C2691343426E1A4301680B685C480A
:104A4800034013430B60226853685A490B40E168DE
:104A58000B435360226AA3691A4321688B6856483E
:104A6800034013438B602268D36A0F218B43616A2A
:104A78000B43D3622368514A934215D0504A93425C
:104A880026D0102380221202E169914224D0022B01
:104A980000D17BE055D9042B00D179E0082B00D058
:104AA8007FE08020000252E0464B5A6D03231340FA
:104AB800012B09D0002B05D0022B0BD0032B05D0DE
:104AC8001023DFE70023DDE70423DBE70823D9E72A
:104AD8000023D7E70223D5E7022B30D006D9042BD1
:104AE8002AD0082B57D18020000205E0002B52D194
:104AF800FFF76AFB002850D0636A5B00324A995A74
:104B0800FBF7FAFA400063685B08C0186168FBF7B6
:104B1800F3FA83B20004000C010010392B4A9142C9
:104B28003DD80F2293431A0040080723184010432A
:104B38002368D860002020E0FFF71CFADAE7244851
:104B4800DAE7002B2DD1FFF73FFB00282BD0636A53
:104B58005B001D4A995AFBF7CFFA63685B08C018D7
:104B68006168FBF7C9FA0004000C0200103A174B01
:104B78009A421AD82368D860002001236A22A352D7
:104B8800023AA35200232367636710BD1048DEE78B
:104B9800FFF7F0F9D9E70120EFE70020EDE7012062
:104BA800EBE70120E9E70020E7E70120E5E7C04659
:104BB800F369FFCFFFCFFFFFFFF4FF11003801407B
:104BC800004400400010024070650008EFFF00003C
:104BD8000024F400836ADB0706D5026853682C4971
:104BE8000B40C16A0B435360836A9B0706D5026872
:104BF800536828490B40016B0B435360836A5B077A
:104C080006D50268536824490B40416B0B43536037
:104C1800836A1B0706D50268536820490B40816BDD
:104C28000B435360836ADB0606D5026893681C4908
:104C38000B40C16B0B439360836A9B0606D50268E1
:104C4800936818490B40016C0B439360836A5B06B9
:104C58000BD50268536814490B40416C0B435360F1
:104C680080235B03426C9A420AD0836A1B0606D5EE
:104C7800026853680D490B40C16C0B435360704781
:104C8800026853680A490B40816C0B435360ECE798
:104C9800FFFFFDFFFFFFFEFFFFFFFBFFFF7FFFFFA3
:104CA800FFEFFFFFFFDFFFFFFFFFEFFFFFFFF7FF54
:104CB800FFFF9FFFF0B5C64600B505000C001700C2
:104CC8009846069E2B68DB6923401B1B5A425341BA
:104CD800BB423FD1731CF5D0FEF7DAF94346C01A40
:104CE800B04222D8002E20D02B681A685207E9D586
:104CF800DA691205E6D5802212011A622A68136859
:104D080016490B4013602A689368A331FF318B431F
:104D1800936020238422AB500432AB500432AB5052
:104D280060330022EA54032015E02A6813680B490F
:104D38000B4013602A689368A331FF318B4393605B
:104D480020238422AB500432AB5060330022EA5453
:104D5800032000E0002004BC9046F0BD5FFEFFFF8A
:104D6800F0B585B004000E0017001D008423C35859
:104D7800202B62D1002963D0002A63D080235B01F5
:104D880082689A421DD08023E35C012B5CD080238B
:104D98000122E2540C330022E250083B2132E25057
:104DA800FEF776F903905423E7520233E752802343
:104DB8005B01A2689A420BD0002780230022E254AC
:104DC80019E00369002BDED1CB07DCD5012035E0E3
:104DD8002369002B01D00027EFE737000026ECE716
:104DE8003B882268DB05DB0D936202375622A35A03
:104DF800013B9BB2A3525623E35A9BB2002B0FD020
:104E08000095039B002280212000FFF753FF002814
:104E18001CD1002EE4D0327823689A620136E5E787
:104E28000095039B002240212000FFF743FF002844
:104E38000ED184232022E25000E0022005B0F0BD0C
:104E48000120FBE70120F9E70220F7E70320F5E757
:104E58000320F3E730B583B004008C230022C2504E
:104E6800FEF716F9050023681B681B070FD4236893
:104E78001B685B0718D420238422A3500432A35054
:104E88000023E366083AA354002003B030BD802114
:104E98000C4B00930300002289032000FFF70AFF50
:104EA8000028E4D00320F0E78021064B00932B0074
:104EB8000022C9032000FFF7FDFE0028DBD00320F5
:104EC800E3E7C046FFFFFF0110B5041E30D084237E
:104ED800C358002B22D084232422E250226813686E
:104EE80001218B4313602000FFF79CFD012814D09B
:104EF800A36A002B18D1226853680E490B405360EF
:104F0800226893682A218B439360226813682939A1
:104F18000B4313602000FFF79DFF10BD8033002274
:104F2800C254FDF7F9FFD6E72000FFF753FEE2E78A
:104F38000120F2E7FFB7FFFF10B581655C23C2527D
:104F48000233C252002303678368802149018B42E0
:104F580008D0002B15D10369002B0ED16033FF2137
:104F6800C15215E00369002B03D160333149C152A6
:104F78000EE06023FF21C1520AE060237F21C15265
:104F880006E0802149058B4223D060230021C152CD
:104F98008C230021C150043B2231C15001688B6829
:104FA800012423438B6080239B05416E99421BD0CB
:104FB80080235B0182689A4236D01F4B03678023A7
:104FC8000022C25402681168A0330B43136000200A
:104FD80010BD0369002B03D160337F21C152D7E78D
:104FE80060233F21C152D3E76823C35A9342DFD8D5
:104FF80080235B0182689A4210D0104B036780239C
:105008000022C2540268116880330B43136002689F
:10501800916880235B050B439360D8E70369002BF5
:10502800EBD1074B0367EAE70369002BC5D1054BB2
:105038000367C4E7FF0100007546000885470008BC
:10504800D9480008FD46000810B58823C358202B0E
:105058001BD100291BD0002A1BD080235B01846848
:105068009C420BD08023C35C012B14D080230124E5
:10507800C4540023C366FFF75FFF07E00369002BF2
:10508800F0D1CB07EED5012000E0022010BD0120B1
:10509800FCE70120FAE70220F8E7000070B584B0C9
:1050A800040002A9154A130005CB05C16A4603CBC3
:1050B80003C2636E002B1AD0226895686D0E072311
:1050C8001D409268520F134002AEF05CC0006A4661
:1050D800D15CFBF79BF86A23E052705DC0006B4619
:1050E800595DFBF793F86823E05204B070BD0133B3
:1050F8006A22A352023AA352F7E7C046886500081D
:10510800704770477047000070B58023C35C012B5F
:1051180015D080240126065584252423435102688E
:1051280013681168B1431160064A134000224266B1
:1051380001680B60202343510255002070BD0220F6
:10514800FCE7C046FFFFFFDFF8B504008023C35C1F
:10515800012B1BD080250120605584262423A351D0
:1051680023681F681A6882431A6022689368DB0004
:10517800DB08194391602000FFF790FF23681F6048
:105188002023A351002363550020F8BD0220FCE72B
:10519800F8B504008023C35C012B1BD080250120B7
:1051A800605584262423A35123681F681A68824304
:1051B8001A602268936808480340194391602000E8
:1051C800FFF76CFF23681F602023A351002363555A
:1051D8000020F8BD0220FCE7FFFFFFF10D488546DF
:1051E800FDF704FF0C480D490D4A002302E0D4588E
:1051F800C4500433C4188C42F9D30A4A0A4C002319
:1052080001E013600432A242FBD301F025F9FDF757
:10521800C7FDFEE7002000200000002090000020CD
:10522800706A00089000002078030020FEE7000064
:10523800F0B557464E46DE464546E0B58FB01D00F0
:1052480006000F00140000F0ADF9CE4B009001915C
:105258009A461B785BB2994601333ED022002B0058
:1052680020002900FDF70AF98346002835D13200CD
:105278003B0030003900FDF701F9002203900028B7
:1052880000D06FE0002330003900FBF7BBF800289E
:105298002CD00022002320002900FBF7B3F8834616
:1052A800002800D192E004AB9846012342460493BB
:1052B800B54B53604346039A1C615D611A629E6058
:1052C800DF604246002300249361D4614B46002BE3
:1052D80067D00023AD4C00930194009801990FB05A
:1052E8003CBC90469946A246AB46F0BD0098019951
:1052F80000F09AFF8146002800D19AE000980199B1
:1053080000220023FBF77EF80028E6D030003900A1
:1053180000F08AFF0028E0D02000290000F084FF78
:105328000028DAD004AB9846042342460493964BEF
:1053380014615561536000230024136200239361B4
:10534800D46153461B789660D7605BB2022B04D0B9
:10535800404600F073FF002829D101F077F8222396
:10536800036024E0002320002900FBF74BF8002805
:10537800B3D004AB9846012342460493824B41467E
:10538800536043465A461A6200229E60DF601C61E1
:105398005D617E4B8A61CB61009201934B46022B83
:1053A8009BD0404600F04AFF002800D18AE04346DF
:1053B8001B6A002B04D001F049F843461B6A0360BE
:1053C8004346DC699B690093019486E72000290025
:1053D80000F02AFF002800D17FE7002200232000E8
:1053E8002900FBF715F8002800D176E704AB9846AA
:1053F800012342460493644B536043465A469E60D9
:10540800DF601A621C615D6153461B785BB2002B3A
:105418005DD0002042465E499061D161022B5BD18C
:1054280001F014F82123036043461B6A002BC7D000
:10543800C1E73000390000F0F7FE002800D15DE731
:105448002000290000F0F0FE002800D156E700985F
:10545800019953461B7802005BB29B460B00FDF78F
:105468000DF804AB9846002862D103234246049302
:10547800454B14615561536010629660D760454B87
:10548800200029000022FCF73FFA5B4604000D00CB
:10549800002B27D1E02241463F4B12068A61CB619F
:1054A8003000002200233900FAF7B2FF00282AD181
:1054B800404600F0C3FE0028B6D100F0C7FF222303
:1054C8000360B1E700F0C2FF212303606FE74246A3
:1054D800002300249361D461404600F0AFFE002809
:1054E800A2D19DE7002241462C4B30008A61CB6156
:1054F800002200233900FAF78BFF002835D15B46DC
:10550800022BDAD0D4E72000290000F09FFE220009
:105518002B00FAF777FF002805D1E022204B12066E
:1055280041468A61CB6153461B785BB29B46E6E7EE
:10553800012342460493144B536043464A469E60F7
:10554800DF601A621C615D615B46002BBFD00023DF
:10555800002219001000FBF7CDFD43469861D96180
:105568005B46022B00D15BE7B6E72000290000F07C
:105578006DFE22002B00FAF745FF0028D3D1002248
:10558800034BCDE728000020546A00080000F03FD4
:105598000000F0FF0000E03FFFFFEF470000F07F52
:1055A800FFFFEFC7F0B55746DE464E4645465C005E
:1055B8006408E0B598461F00230093B083468A46E6
:1055C800160013430CD07D4B4D00029181466D08A7
:1055D8009D4212DD7A4B9C465B4665441D4361D172
:1055E8000023784C009301940098019913B03CBCB7
:1055F80090469946A246AB46F0BD9D4250D09C428B
:10560800E8DC6E4B9C426BD0002304935346002B7E
:1056180069DB002A10D1694B9C424CD0694B9C42F3
:1056280000D1A3E08023DB05984500D1BCE0664BA0
:10563800984501D100F0D6FB5846514600F0F0FDE0
:105648004B4600900191002B07D1002D67D053469F
:105658005C4A9B009B08934261D05346DB0F013B99
:1056680099464A46049B134300D190E0574B9C420D
:1056780000DCBBE0564B9C4201DC00F010FC554BB3
:105688009D4201DC00F004FC4346002B23DD524A16
:10569800524B10001900FCF737F900900191A3E76D
:1056A800002805D04E4800F0CBFD009001919BE703
:1056B800AC42F7DCA5E75A46414BEB18134300D13F
:1056C8008EE7444B9D4200DC99E3434600960197E0
:1056D800002B00DB88E7002300240093019483E774
:1056E800002A91D076E73F4B9C423CDC394B9C42E8
:1056F8008FDD3D4923158C466344142B00DCB2E34F
:105708003421CB1A3100D94008009840904200D08B
:105718007FE70123194001335B1A049379E7434675
:10572800002B07DA009A019B00202649FBF7E2FCD0
:1057380000900191029B002B00DB55E7204B9C4613
:10574800049B65441D4301D100F00EFC049B012B12
:1057580000D049E7009C019D8021220009066B18B2
:105768000092019340E70223049352E758465146BA
:10577800434600900191002B00DB35E75A4653461B
:1057880000201049FBF7B6FC009001912CE75A461F
:10579800534658465146FCF729FB02000B00FBF71D
:1057A800A9FC009001911FE75A46534658465146B6
:1057B800FCF7AAF80090019116E7C0460000F07FB8
:1057C800000010C00000F03F0000E03F0000E04192
:1057D8000000F043FFFFEF3F9C7500883CE4377EF4
:1057E800346A0008FFFF3F4301FCFFFFE44B00223F
:1057F8009D420ADC009801990022E24BFCF784F8EC
:1058080035220D00009001915242DF492B158C463C
:10581800634498462D03DD4CDD4B2D0B90442C43FF
:105828009D420ADDDB4B9D4201DC00F001FC0123B7
:105838009C46D94BE0449C466444002200230E92C7
:105848000F931092119300220025D04B06920793D4
:1058580000980199069A079B210008900991FCF786
:10586800C5FA069A079B0A900B9108980999FBF7C5
:1058780025F902000B000020C449FBF73BFC0A0095
:10588800010013000C910D9202000A980B99FCF785
:105898003BF80A00010013000291039200220092D3
:1058A8000193802364109B05234380242403A4468A
:1058B80000206344591904000D0002000B000098F1
:1058C8000199FCF721F802000B000A980B99FCF7E4
:1058D8008DFA069A079B0A900B9120002900FCF785
:1058E80085FA02000B0008980999FCF77FFA009ADC
:1058F800019BFCF709F802000B000A980B99FCF7CA
:1059080075FA0C9A0D9BFBF7FFFF029C039D08900C
:10591800099122002B0020002900FBF7F5FF040065
:105928000D009E4A9E4BFBF7EFFF9E4A9E4BFBF7EE
:10593800C5F822002B00FBF7E7FF9C4A9C4BFBF7BE
:10594800BDF822002B00FBF7DFFF9A4A9A4BFBF7C2
:10595800B5F822002B00FBF7D7FF984A984BFBF7C6
:10596800ADF822002B00FBF7CFFF964A964BFBF7CA
:10597800A5F82200069007912B0020002900FBF7CC
:10598800C3FF02000B0006980799FBF7BDFF009ABA
:10599800019B04000D0002980399FBF78FF8089A01
:1059A800099BFBF7B1FF22002B00FBF787F8009C4F
:1059B800019D0A900B9122002B0020002900FBF783
:1059C800A3FF0022814B04000D00FBF777F80A9A29
:1059D8000B9BFBF773F800220B0011001A000691CD
:1059E80007920A0000980199FBF78EFF00220C909D
:1059F8000D9106980799754BFCF7F8F922002B00D2
:105A0800FCF7F4F902000B000A980B99FCF7EEF981
:105A1800029A039BFBF778FF069A079B04000D0088
:105A280008980999FBF770FF02000B002000290075
:105A3800FBF744F804000D0002000B000C980D99C8
:105A4800FBF73CF800221000E022614B12060090A0
:105A58000191FBF759FF0C9A0D9B02900391009856
:105A68000199FCF7C3F902000B0020002900FCF79C
:105A7800BDF9584A564BFBF747FF574A04000D003B
:105A880000980199554BFBF73FFF02000B002000DF
:105A98002900FBF713F8109A119BFBF70FF80690F3
:105AA80007914046FCF706FD069A079B04000D0087
:105AB80002980399FBF702F80E9A0F9BFAF7FEFF7C
:105AC80022002B00FAF7FAFF002022002B0000909A
