:020000040800F2
:1000000000200020CD5900080138000803380008FE
:1000100000000000000000000000000000000000E0
:10002000000000000000000000000000053800088B
:100030000000000000000000073800080938000830
:100040001D5A0008000000001D5A00081D5A000833
:100050001D5A00081D5A00081D5A00081D5A0008A4
:10006000000000001D5A00081D5A00081D5A000813
:100070001D5A00081D5A00081D5A00080000000003
:100080001D5A000800000000000000001D5A000872
:10009000000000001D5A00081D5A00081D5A0008E3
:1000A0001D5A00081D5A00081D5A00081138000882
:0800B0002138000800000000E7
:1000B80010B5064C2378002B07D1054B002B02D036
:1000C800044800E000BF0123237010BD8000002019
:1000D80000000000B46C0008044B10B5002B03D0DE
:1000E8000349044800E000BF10BDC04600000000FE
:1000F80084000020B46C0008002243088B4274D3AB
:1001080003098B425FD3030A8B4244D3030B8B4210
:1001180028D3030C8B420DD3FF22090212BA030C19
:100128008B4202D31212090265D0030B8B4219D3FA
:1001380000E0090AC30B8B4201D3CB03C01A52411A
:10014800830B8B4201D38B03C01A5241430B8B4262
:1001580001D34B03C01A5241030B8B4201D30B034B
:10016800C01A5241C30A8B4201D3CB02C01A524172
:10017800830A8B4201D38B02C01A5241430A8B4235
:1001880001D34B02C01A5241030A8B4201D30B021E
:10019800C01A5241CDD2C3098B4201D3CB01C01A38
:1001A800524183098B4201D38B01C01A5241430942
:1001B8008B4201D34B01C01A524103098B4201D330
:1001C8000B01C01A5241C3088B4201D3CB00C01A9D
:1001D800524183088B4201D38B00C01A5241430815
:1001E8008B4201D34B00C01A5241411A00D201463A
:1001F800524110467047FFE701B5002000F0F0F8C3
:1002080002BDC0460029F7D076E7704703460B4386
:100218007FD4002243088B4274D303098B425FD3F7
:10022800030A8B4244D3030B8B4228D3030C8B4223
:100238000DD3FF22090212BA030C8B4202D3121209
:10024800090265D0030B8B4219D300E0090AC30BDE
:100258008B4201D3CB03C01A5241830B8B4201D38B
:100268008B03C01A5241430B8B4201D34B03C01A74
:100278005241030B8B4201D30B03C01A5241C30AEC
:100288008B4201D3CB02C01A5241830A8B4201D35D
:100298008B02C01A5241430A8B4201D34B02C01A47
:1002A8005241030A8B4201D30B02C01A5241CDD2EC
:1002B800C3098B4201D3CB01C01A524183098B4237
:1002C80001D38B01C01A524143098B4201D34B0120
:1002D800C01A524103098B4201D30B01C01A524183
:1002E800C3088B4201D3CB00C01A524183088B420A
:1002F80001D38B00C01A524143088B4201D34B00F3
:10030800C01A5241411A00D2014652411046704764
:100318005DE0CA0F00D04942031000D34042534069
:1003280000229C4603098B422DD3030A8B4212D329
:10033800FC22890112BA030A8B420CD3890192115B
:100348008B4208D3890192118B4204D389013AD098
:10035800921100E08909C3098B4201D3CB01C01A6D
:10036800524183098B4201D38B01C01A5241430980
:100378008B4201D34B01C01A524103098B4201D36E
:100388000B01C01A5241C3088B4201D3CB00C01ADB
:10039800524183088B4201D38B00C01A5241D9D2F3
:1003A80043088B4201D34B00C01A5241411A00D274
:1003B8000146634652415B10104601D34042002B70
:1003C80000D54942704763465B1000D3404201B5EF
:1003D800002000F005F802BD0029F8D016E77047A4
:1003E8007047C0468446101C62468C46191C6346FA
:1003F80000E0C0461FB501F029FB002801D4002108
:10040800C8421FBD10B501F081FA4042013010BD4D
:1004180010B501F01BFB002801DB002010BD0120F6
:1004280010BDC04610B501F011FB002801DD002009
:1004380010BD012010BDC04610B501F0A3FA002878
:1004480001DC002010BD012010BDC04610B501F030
:1004580099FA002801DA002010BD012010BDC0461D
:100468008446081C6146FFE71FB500F025FA0028FE
:1004780001D40021C8421FBD10B500F0A7F94042C1
:10048800013010BD10B500F017FA002801DB00207C
:1004980010BD012010BDC04610B500F00DFA0028AF
:1004A80001DD002010BD012010BDC04610B500F0D0
:1004B800B5F9002801DC002010BD012010BDC046A0
:1004C80010B500F0ABF9002801DA002010BD0120BA
:1004D80010BDC046002B15D1002A13D1002906DB18
:1004E80001DC002806D00020C043410802E080213A
:1004F8000906002007B4024801A14018029003BD74
:10050800E1FEFFFF03B4684601B5029800F030F839
:10051800019B9E4602B00CBC7047C046F0B5CE4663
:10052800474615042D0C2E0080B50704140C3F0C0B
:100538009946030C7E435D43674363437F19340C3C
:10054800E4199C46A54203D980235B029846C4441B
:100558004B4643435143250C36046544360C24046A
:10056800A4195B19591820000CBC90469946F0BD97
:10057800F0B583B016001F000090019102F0B2F9A7
:1005880004000D0002000B0030003900FFF7C6FF21
:10059800009A019B121A8B41089920000A604B604F
:1005A800290003B0F0BDC046F8B557464E4645464B
:1005B800DE464402E0B546008846640A360EC70F98
:1005C800002E63D0FF2E24D08023E400DB041C43DC
:1005D800002399469B467F3E434642465D02D20F22
:1005E8005B006D0A1B0E9046924665D0FF2B55D0D6
:1005F80080220021ED00D2047F3B1543F61A4346C2
:100608004A467B400F2A00D98DE06D4892008258F7
:100618009746002C54D108239946063BFF269B4653
:10062800DAE70025534602291BD0032900D1BFE091
:10063800012928D030007F30002820DD6A0704D047
:100648000F222A40042A00D004352A0103D530009D
:100658005C4A80301540FE2803DCAC01640AC2B253
:1006680001E0FF2200246402D205600ADB07104380
:1006780018433CBC90469946A246AB46F8BD0122B9
:10068800101A1B287CDD00220024ECE7002C1DD169
:1006980004239946033B00269B469DE7FF3E002D19
:1006A80020D1022143464A467B400A430F2AD8D824
:1006B8004548920082589746002D19D10121F1E74B
:1006C8000C239946093BFF269B4685E7200002F04C
:1006D800EBF87626431F9C4000237642361A99464B
:1006E8009B4679E74A4603231A439146032186E746
:1006F800280002F0D9F8431F36189D4076360021AD
:100708007DE780240023E403FF22ACE70025802353
:10071800DB031C4228D01D4226D12B435C02640A0D
:100728004346FF229FE762016C01A24224D21B21AB
:100738000025013E012710006D005200002801DB52
:10074800944201D8121B3D4301390029F3D114000A
:10075800621E944125436DE7BA4659462500534623
:10076800022900D061E77CE78023DB031C43640295
:10077800640A3B00FF2276E7121B1A210125D9E7FC
:100788009E362A00B5402C00C240651EAC41144379
:10079800620704D00F222240042A00D004346201E8
:1007A80003D4A401640A00225DE7012200245AE769
:1007B8008024E4032C436402640AFF2253E7C04602
:1007C800586D0008FFFFFFF7986D000870B54200EC
:1007D8004E024C0045026D0A120EC30F760A240E13
:1007E800C90FFF2A0FD0FF2C11D00120A24200D040
:1007F80070BDB542FCD18B420DD0002AF8D128003B
:10080800451EA841F4E70120002DF1D1EBE70120B6
:10081800002EEDD1E9E70020EAE7C04670B54A00AE
:100828004E02450244006D0A240EC30F760A120ECA
:10083800C90FFF2C15D0FF2A0ED0002C15D1002A85
:1008480001D1002E1CD0002D14D08B4227D00220BD
:10085800013B1840013870BD002EEED00220404206
:10086800F9E7002DFAD1FF2A0ED0002A0ED1002E6A
:10087800EDD00BE001230139994308000130EAE784
:100888000020002DE7D0E2E7002EE7D18B42DED131
:10089800944205DD0221581E08400138DBE7002498
:1008A800A24204DCB542D2D80020B542D3D2581EA9
:1008B800012398430130CEE730B5420044024D028F
:1008C800C30F4800640A120E6D0A000EC90FFF2AF2
:1008D80012D0FF280CD0002A12D1002819D1002DDF
:1008E80017D1002C2BD00220013B1840013826E0FC
:1008F800002DF0D0022022E0002CFBD1FF281FD0D1
:1009080000281FD1002D1DD10220013B18400138BD
:1009180015E0002C0ED08B42E5D10022904204DC79
:10092800AC42E0D80020AC4209D2581E01239843BB
:10093800013004E00123013999430800013030BD3A
:10094800002DD7D18B42CED18242E7DD0221581E3D
:1009580008400138F3E7C046F0B54E4657464546CD
:10096800DE46E0B543025B0A450083B00F1C99469A
:100978002D0EC60F002D57D0FF2D24D08020DB0070
:10098800C0041843002381469A469B467F3D7C025B
:100998007A00FB0F640A120E984623D0FF2A4BD028
:1009A800E30080240020E4047F3A1C43AD186B1C4C
:1009B80047460193534677403A000F2B48D87D4964
:1009C8009B00CB589F46002B00D085E008339A4601
:1009D800063B9B467C027A00FB0FFF25640A120E39
:1009E8009846DBD1002C00D090E0524601231A43F0
:1009F80092460120DBE74C4658461700022824D0CF
:100A0800032800D1CFE00022002301284DD158024D
:100A1800D205400AFF071043384303B03CBC904658
:100A28009946A246AB46F0BD002B5BD104239A46FB
:100A3800033B00259B46AAE7FF35002C60D15246B0
:100A480002231A4392460220B1E7FF220023DEE781
:100A58004B461B0C9C464B462604360C1804614634
:100A68003300220C6446000C43434E435043544326
:100A780080191A0C1218964203D9802149028C4613
:100A880064441B041B0C1004C01883015E1EB34190
:100A9800800E1843130C1B199B0103431C002301F0
:100AA80079D5012362081C401443019A7F32002A39
:100AB8004DDD630704D00F232340042B00D00434FA
:100AC800230103D53C4B019A1C408032FE2ABCDC32
:100AD800A3015B0AD2B29AE70C239A46093BFF2589
:100AE8009B4654E7180001F0DFFE4A46431F76256F
:100AF8009A4000236D4291462D1A9A469B4646E736
:100B0800524603231A439246032050E7200001F07F
:100B1800CBFE431F2D1A9C40763D002047E78023DB
:100B28000027DB03FF2272E7424666E74C463200A5
:100B3800584662E780234A46DB031A4222D01C4209
:100B480020D123435B025B0A4746FF225FE701236C
:100B58009A1A1B2A21DC23000199D3409E318C402C
:100B68001A0023005C1EA34113435A0704D00F2226
:100B78001A40042A00D004335A0111D49B015B0A9D
:100B8800002244E780234A46DB0313435B025B0AE7
:100B98003700FF223BE7019587E70022002336E76D
:100BA8000122002333E78023DB0323435B025B0A34
:100BB800FF222CE7D86D0008FFFFFFF770B500286B
:100BC8003DD0C317C5185D40C40F280001F06CFE66
:100BD8009E22121A962A07DCD2B2082833DD08387A
:100BE80085406802400A23E0992A0BDD0523290085
:100BF8001B1AD94003001B339D402B005D1EAB41DF
:100C080019430D00052801DD431F9D402B000F49A6
:100C18000B406E0709D00F263540042D05D004334C
:100C28005D0102D59F220B40121A9B01580AD2B2CD
:100C38004002D205400AE4071043204370BD002457
:100C480000220020F4E76802400AF1E7FFFFFFFBFB
:100C580070B5041E34D001F027FE9E22121A962A7F
:100C680007DCD2B208282EDD083884406002400A2A
:100C780021E0992A09DD030021001B3399404B1E0E
:100C8800994105231B1ADC400C43052801DD431F4D
:100C98009C4023000D490B40650709D00F252C40C7
:100CA800042C05D004335C0102D59F220B40121A94
:100CB8009B01580AD2B24002D205400A104370BDC7
:100CC80000220020F7E76002400AF4E7FFFFFFFB7D
:100CD800F0B54F464646D6460C000903C0B5490A4A
:100CE800470F5E0039431F03DB0F9C4665007B0AF4
:100CF800570F1F436D0DE40F760DA146C000B8468F
:100D0800D200AB1B64457BD0002B5FDD002E00D0EA
:100D1800A4E03E00164300D112E15E1E002E00D072
:100D28009EE1871A4346B84280410125C91A4042CC
:100D3800091A0B0200D431E149024E0A002E00D1F3
:100D48006EE1300001F0B0FD0300083B1F2B00DD11
:100D580061E120223900D21A9E40D1409F400E43C3
:100D68009D4200DD51E15D1B6B1C1F2B00DD7CE10A
:100D78002021C91A3D0030008F408840DD40791E8F
:100D88008F41310007222843D940002507433A40C4
:100D9800002A09D00F233B40042B05D03B1DBB4242
:100DA800BF417F42C9191F000B0200D426E26A1C0A
:100DB800C64B55056D0D9A4200D106E1C44AFF089D
:100DC8000A40530752023B43120B8EE0002B00D01F
:100DD800B8E06B1C5B055B0D012B00DC30E1871A6A
:100DE8004346B842B641CB1A76429E1B330200D521
:100DF8004CE13B003343A1D100220024002570E0E0
:100E0800002B00DCE5E0002E00D183E0AF4EB542B8
:100E180060D0802636043743B846382B00DC3EE1E4
:100E2800434613431F007A1E97413F18874280416B
:100E3800404209180B0200D4B0E0A44B01359D4292
:100E480000D1C3E0A24A7B080A4001210F401F439A
:100E58005108D30707221F433A4099E79B4EB542F2
:100E680038D0802636043743B846382B00DDDCE01E
:100E78001F2B00DC30E11E004746203EF740BC46F1
:100E8800202B04D04026F31A46469E4032431700D2
:100E980063467A1E97411F43CCE0002B00D104E241
:100EA8004346134300D159E14B07C0081843802338
:100EB800C9081B03194208D04546ED081D4204D154
:100EC8004346D008590708432900420FC9007F4DFF
:100ED8001143C0004B07CA087C49C00803438D4230
:100EE80068D012036D05120B6D0D00211203180056
:100EF800130B0A0D12051A43764B2D0513402B438D
:100F08005B00E4075B08234319001CBC9046994624
:100F1800A246F0BD3E00164312D05E1E002E00D041
:100F280000E1871887428041414440420918012561
:100F38000B0233D5022585E764463300414610008D
:100F48001D00C7E7002D00D0DAE00C000443F3D001
:100F58005C1C00D19FE15D4CA64200D12FE1DB4330
:100F6800382B00DD66E11F2B00DD83E1202405001E
:100F7800E41A0F00DD40D940A0404346A7405B1A61
:100F8800441EA04198462F433843171ABA4292414B
:100F980043465242991A64463500CAE607223A4047
:100FA800002A00D0F6E64B07CA084849FF083B4329
:100FB8008D4296D11900114300D19EE18021090389
:100FC8000A431203120B414D8FE71500002200233C
:100FD8008BE7002B00D0C7E06B1C5F057F0D012F4E
:100FE80000DCF1E0394DAB4200D1B9E085180A00C8
:100FF800854289414244494251180722CF076D086A
:101008002F4349083A401D00C2E607223049ED1A2D
:1010180031403A40BCE63E002838864000279FE62B
:10102800380001F041FC20308EE6434613431F0090
:101038007A1E9741C71BB84280414042091A78E698
:101048000E003B0006431343002D61D1002E00D053
:10105800F4E0002B00D11BE164463900100039E7A9
:101068001A4FBB427AD03300FFE630001F3DE840FC
:10107800202B03D04021CB1A9E4037437B1E9F4133
:10108800072207433A400021002589E7171A4346FB
:10109800BA42B641591A76428E1B64464EE61F2B59
:1010A80000DDADE020264746F61AB740B9461700DE
:1010B800B246DF404E463E4337005646B240561EC3
:1010C800B24117434246DA408918AEE6FF070000EE
:1010D800FFFF7FFFFFFF0F8020264746F61AB74025
:1010E800B9461700B246DF404E463E4337005646E3
:1010F800B240561EB24117434246DA40891A99E770
:101108007F4CA6425BD0802424045B42214327E71E
:10111800002E0CD1002B00D1CBE064463900100022
:10112800774DD7E6764FBB4218D0330075E6002BD3
:1011380014D04B07C00818438023C9081B03194261
:1011480007D0FC081C4204D17907D0080843E146BF
:1011580021004C46420FC9001143C000684DB9E652
:101168001D0000220023C0E6002D5BD10D000543C1
:1011780000D1E2E65D1C00D1B0E0614DAE421FD067
:10118800DB43382B71DC1F2B00DD96E020250F0098
:10119800ED1AAF40B9460700AA46DF404D463D4329
:1011A8002F005546A840D940451EA841884407430A
:1011B800BF18974292415142414435003AE664468D
:1011C80035004146100085E60B000343002D00D092
:1011D80063E6002BF5D04346134300D17AE687181F
:1011E8008742804107224144404209183A400B0295
:1011F80000D4D5E6434B01351940C9E5380069E606
:101208001E004746203EF740BC46202B04D040260F
:10121800F31A46469E403243170063467A1E9741AA
:101228001F4302E6364DAE42CAD080252D045B42EC
:101238002943A6E70843411E8841A6E6002B00D1B2
:1012480048E6871A4346B842B641CB1A76429E1BF7
:1012580033024BD5171A4346BA429241591A5242A1
:10126800891A072264463A4092E501430F00791E25
:101278008F419DE71C000F00203CE740202B03D046
:101288004024E31A99400843411E884138437CE6CC
:101298000022002425E6171A4346BA429241591AF9
:1012A8005242891A6446350043E541461000144D00
:1012B80010E680220024120380E61D000F00203D66
:1012C800EF40BC46202B03D04025EB1A9940084339
:1012D80007006346781E87411F4369E787189742CE
:1012E8009B4141445B42C9183500A3E53B003343A9
:1012F800CED0072231003A4052E600231A00F4E526
:10130800FF070000FFFF7FFFF0B55746DE464E4659
:101318004546E0B5834607000E03480085B092466F
:101328001C00360B400DCD0F002800D19DE0954BD9
:10133800984239D08023F6001B041E43924A7B0F43
:1013480033439946944603006344009300230026E0
:10135800FF00029323031B0B98466300E40F5246D9
:101368005B0D019400D1B3E086498B4200D19EE029
:101378004246D100802212040A435146490F1143C4
:101388008B46814952468C4600996344CB1A00210A
:10139800D20000932B0063409A460F2E00D905E136
:1013A8007A4BB6009B599F465B463343994600D01B
:1013B800B8E002230826002700900293CAE7CB462C
:1013C8003A0002990195019B9A46022927D00329E0
:1013D80000D180E2012944D06D49009B8C466344CA
:1013E8001C00002C38DD530700D013E2D2085B46FE
:1013F800DB0109D55946674B19408B468021C90046
:101408008C46009B63441C00634B9C4207DC5B4694
:1014180064055F075B0217431B0B620D02E00023A4
:101428000027584A00211B031C0B0B0D1B052343E7
:1014380014055A4A380013401C4353466400DB071E
:1014480064081C43210005B03CBC90469946A2465E
:10145800AB46F0BD0122524201231B1B382B00DC96
:10146800ADE1002200230027DCE75B4633439946C1
:101478005ED0002E00D18AE1300001F015FA030099
:101488000B3B1C2B00DD7BE11D22D31A5A460100C1
:10149800DA4008398E4013005F46334399468F403F
:1014A8003F4B00261B1A00930023029352E7414644
:1014B80053460B433B499B468C46009B6344009331
:1014C8005B46002B3BD1022300221E43022161E729
:1014D800434613439B4637D04346002B00D162E175
:1014E800404601F0E1F903000B3B1C2B00DD53E102
:1014F80002004146083A914088461D21CB1A5146C0
:10150800D9400B0041460B439B46534693401A0073
:10151800009B25499C46604403008C466344009325
:10152800002137E70323B14600900C26029311E708
:101538000023009301330426002702930AE70323BC
:10154800C3461E43032125E701331E430022012120
:1015580020E700239A46802300271B03094A61E7F6
:10156800802349461B03194200D1E2E0594619423B
:1015780000D0DEE00B431B0317001B0BA246014AF9
:1015880050E7C046FF07000001FCFFFF186E000887
:10159800FF030000FFFFFFFEFE070000FFFF0F80B4
:1015A8000DFCFFFF01F8FFFFF3030000D94500D948
:1015B800CBE000D1C6E03C0048460027009B013B39
:1015C80000935B46160E1B021E4313029846330413
:1015D8001B0C9946310C0191FEF714FE4A46424312
:1015E8000B04210C050019438A4207D98919013DCA
:1015F8008E4203D88A4201D9851E8919881A019911
:10160800FEF700FE09048C464A462104644642431C
:10161800090C030021438A4204D98919013B8E42EF
:1016280000D8F1E02D041D43AB464346891A4246D3
:10163800280C12041D0C5B46140C22001B041B0C06
:101648005A4303946B434443029568431B19150C92
:10165800EB189C4203D980246402A44660441C0C05
:1016680015041B042D0C20185D19814277D373D003
:101678000C1AA24A7D1BAF42BF419446009B7F4291
:101688006344E01B1C00864200D1DBE00199FEF7B1
:10169800B9FD4A4642430B04290C070019438A4204
:1016A80007D98919013F8E4203D88A4201D9871E7A
:1016B8008919881A0199FEF7A5FD09044A46894641
:1016C80029044D464243090C030029438A4207D99D
:1016D8008919013B8E4203D88A4201D9831E891990
:1016E8003F04891A3A00039F1A43380013041B0C5D
:1016F800584381460298150C6F4343434543484677
:10170800000C8446DB1963449F4203D980204002C1
:101718008446654448461F0C00041B04000C7D19D0
:101728001818A94200D284E000D17FE001231A43AF
:1017380057E680234A461B0313431B031B0BAA4689
:101748006F4A6FE6BA4200D935E74B46DC075808BE
:101758007B081C43FF0734E70024AF4289D2474483
:101768004745A4415B466442A4196418013BA6425C
:101778001ED2A0426DD800D1B6E0241A9B4678E765
:1017880003005A46283B9A400027914688E6584667
:1017980001F08AF8203072E603005246283B9A404E
:1017A80093460022B4E6504601F07EF820309AE6CF
:1017B800A642E2D1B845DCD9341A9B4659E71F2B1B
:1017C80065DC504C0099A4465C46614408008C4096
:1017D80011008240D940501E82410C4314435A469E
:1017E800DA401300620709D00F222240042A05D0EC
:1017F8002200141D9442894149425B181A0262D59D
:101808000122002300270DE68A4200D80AE7831E3A
:10181800891907E70F231340042B00D1E6E5171DAC
:101828009742924153429B44FA08E0E5002800D1D0
:10183800D7E57118531EB14227D3A94215D358D002
:101848001A0073E7002B00DC04E6012300229B4406
:10185800CDE502234744474589415B429C464942BE
:1018680089190C19E344241A03E743465F004745E6
:101878009B41B8465B429E19023A8919A94200D099
:1018880054E7404500D051E7ABE51A00F6E71F21C1
:101898005F4649420C1BE740202B07D01A49009BA2
:1018A8008C46634418005B4683401A43501E8241AD
:1018B8003A4307270023174009D00F21002311407E
:1018C8001400042995D122005F075B021B0BD20884
:1018D80017430022A6E5802359461B030B431B032D
:1018E80017001B0B064A9DE5BD42B2D89B46002453
:1018F800BFE68045B9D31A00C3E7C046FF0300001E
:10190800FF0700001E0400003E040000F0B54F462B
:101918004646D6468446C0B58046194E18030F037E
:101928004D00000B5C0082463F0B6D0DC90F9146C0
:10193800640DDB0F0120B5420AD0B44203D0A542A2
:1019480001D157450CD01CBC90469946A246F0BD23
:1019580066463E43F7D1AC42F5D154461443F2D122
:101968000120C845EFD1994207D0002DEBD163463D
:101978001F433800471EB841E5E70020E3E7C046AB
:10198800FF070000F0B54F464646D6464D00C0B5A5
:101998000E03C90F8A462C491F035C008046360B8C
:1019A8006D0D91463F0B640DDB0F8D421ED08C42AE
:1019B80016D0002D1ED130438446002C01D13A4365
:1019C80023D06246002A1AD09A4529D051460220CF
:1019D8000139084001381CBC90469946A246F0BD22
:1019E80039001143E5D002204042F4E73043FAD1F0
:1019F800AC420FD0002C0FD13A43E7D00CE00122C3
:101A0800013B934318000130E5E763460020002BB3
:101A1800E1D0DBE73A43E6D19A45D7D1A542D5DCF8
:101A2800A54205DBBE42D1D808D00020BE42D2D2A2
:101A380050460123013898430130CCE7C845C5D842
:101A48000020C845F4D3C6E7FF070000F0B54F46AD
:101A58004646D6464D00C0B50E03C90F8A462E49E4
:101A68001F035C008046360B6D0D91463F0B640DDD
:101A7800DB0F8D4218D08C4211D0002D18D1304385
:101A88008446002C1ED13A431CD163460020002B0B
:101A980030D0514602200139084001382AE0390087
:101AA8001143EAD0022025E03043FBD1AC4226D0D6
:101AB800002C26D13A4324D151460220013908404E
:101AC800013817E06246002A0FD09A45E1D1A542B5
:101AD80005DBBE42DDD819D00020BE420AD25046EE
:101AE800012301389843013004E00122013B93436C
:101AF800180001301CBC90469946A246F0BD3A43F6
:101B0800D0D19A45C5D1A542C3DCE0E7C845C0D8C5
:101B18000020C845E3D3EDE7FF070000F0B55746BE
:101B2800DE464E464546E0B5834606000F034800AC
:101B380087B092461D003F0B400DCC0F002800D106
:101B48006FE0DE4B984238D08023FF001B041F4310
:101B5800730F3B430193DA4B0027994600239B46BA
:101B6800F60081442B0369001B0B52469846490D29
:101B7800ED0F002900D185E0D04B994200D173E0E8
:101B88004346DA0080231B0413435246CC48520FC5
:101B980084461343524600206144D2008944210000
:101BA800694000918C46012149448A460F2F00D98B
:101BB80090E0C449BF00CF59BF465B463B43019301
:101BC80000D06AE102230827002681469B46C9E720
:101BD80032005846019B61460091022800D175E009
:101BE800032800D1FEE1012800D02CE100230027C2
:101BF800002600253F032A0D3F0BB34812053A4340
:101C080002401B051343009A5B00D1075B080B4396
:101C18003000190007B03CBC90469946A246AB4636
:101C2800F0BD5B463B43019300D12FE1002F00D16B
:101C3800A5E1380000F038FE03000B3B1C2B00DD4B
:101C480096E11D22D31A5A460100DA405E46083949
:101C58008F4013008E403B4301939C4B00271B1A77
:101C6800994600239B467DE7414653460B439349DB
:101C78008C46E144002B00D01AE1022202201743CF
:101C880000228CE7134300D10DE14346002B00D11D
:101C980081E1404600F008FE02000B3A1C2A00DDF4
:101CA80072E10100434608398B4098461D239A1A71
:101CB8005346D3401A004346134352468A40494686
:101CC800081A824989468144002068E77B4B00272F
:101CD80000268EE7140C1204120C1100370C36047F
:101CE800350C794328008C462E00604360448346B7
:101CF80056432100300C80465846794340440291AF
:101D0800844506D98846802149028C46E0444146EC
:101D180002913604010C360C00048B4681191E0C06
:101D28001B041B0C0391190079438C46280075434A
:101D38006544A8465843050C45447743A94203D94E
:101D4800802149028C466744290C8C4639000004DE
:101D5800000C2D042D186144AB440591594604919B
:101D680001990F043F0C080C390051434243904637
:101D780002008C46090C8B4662437C4344445C4415
:101D8800A04503D98021490288464244210C88464F
:101D980061460904090C8C46390059434343704392
:101DA8007E430F0CF6182404BE19644442448C4642
:101DB800B34203D980235B0298464044029B6146A4
:101DC8009846049B370443449B46AB45AD416B4260
:101DD8000D0405992D0C8C467F196744FD18A846FB
:101DE8005D462D19A542A44193466442A446C344C6
:101DF800DC448F42BF4198459B4193459241A4459D
:101E0800A4415B427F421F43360C52426442BF19D1
:101E18002243BF18624638184302D20D0399134370
:101E28006A020A43501E82416146ED0D2A434E0262
:101E38003243D90100D4B3E00126500832400243AE
:101E4800DE0732435B08224C5444002C62DD510704
:101E580009D00F201040042805D0101D904292414F
:101E680052429B180200D90104D580241948E40085
:101E7800034054441848844200DD27E75E075B02AC
:101E8800D2081F0B630516435B0DB2E60023994683
:101E98000133042700269B4664E603230197814605
:101EA8000C279B465EE6012201201743002276E6B6
:101EB800032303201F43434671E6C046FF07000083
:101EC80001FCFFFF586E0008FFFF0F800DFCFFFFAD
:101ED800FF030000FFFFFFFEFE070000002380272E
:101EE80000933F030026434B83E6019B3200A44640
:101EF800584670E6AC466EE6802701993F033942A2
:101F08002DD03B422BD11F433F033F0B00951600BA
:101F1800384B6EE601252D1B382D00DD66E61F2D9A
:101F280040DC35481C005044160082408440EE4096
:101F3800501E824134431443EB40620709D00F22FC
:101F48002240042A05D02200141D944280414042B8
:101F58001B181A023ED501230027002649E68027D0
:101F6800019B3F031F433F033F0B0094214B40E677
:101F780003005A46283B9A40002601926DE65846CF
:101F880000F092FC203057E603005246283B9A4066
:101F98001300002293E6504600F086FC20307BE6D2
:101FA800CA4650E71F201E004042041BE640202D71
:101FB80003D0124C5444A3401A43501E824132436A
:101FC80007260027164009D00F20002310401400D0
:101FD8000428B9D122005E075B021F0BD208164302
:101FE800002306E680273F031F433F033F0B1600ED
:101FF800004BFEE5FF0700001E0400003E04000041
:10200800F8B557464E464546DE460C000903E0B58E
:10201800490A460F5F0031431E03DB0F760A9B46D1
:10202800530F3343C84E6500C000E40FD2006D0D56
:10203800A24681467F0D9C469046B74200D1B9E042
:102048005B46012673409B46EE1BA34500D183E007
:10205800002E63DD002F00D0B1E06346134300D1AA
:1020680023E1731E002B00D0BAE1861A6346B04202
:1020780080410125C91A4042091A0B0200D447E1E0
:1020880049024B0A98464346002B00D189E1404655
:1020980000F00AFC0300083B1F2B00DD7CE1202236
:1020A8003000D21A4146D040994002009E400A436F
:1020B8009D4200DD6AE15D1B6B1C1F2B00DD94E176
:1020C800202110003500C91A8E40DA408840DD40D2
:1020D800711E8E4111000722284300250643324015
:1020E800002A09D00F233340042B05D0331DB342F7
:1020F800B641764289191E000B0200D43DE26A1CE3
:10210800914B55056D0D9A4200D119E18F4AF60899
:102118000A40570752023743120B9BE0002E00D0AB
:10212800C5E06E1C7605760D012E00DC48E1674699
:10213800861ACB1BB042BF417F42B8461F004346B8
:10214800FF1A3B00B8461B0200D55FE137439AD11E
:1021580000220024002579E0002E00DCFAE0002FA0
:1021680000D18DE0784B9D4267D0802367461B04E1
:102178001F43BC46382E00DC52E1634613435A1E07
:1021880093411E1886428041404209180B0200D430
:10219800BEE06D4B01359D4200D1D2E06B4A730819
:1021A8000A4001210E401E435108D30707221E434F
:1021B800324095E71E00164300D045E740E7624BE2
:1021C8009D423AD0802367461B041F43BC46382EE5
:1021D80000DDEBE01F2E00DC3AE133006746203BD0
:1021E800DF403B00202E05D04027BF1B6646BE407F
:1021F800324390464646721E96413343DAE0002B3E
:1022080000D114E26346134300D168E180234E07EE
:10221800C008C9081B030643194208D06046C00815
:10222800184204D163460100D2085E071643F30042
:102238009946C900720F444D11434B46DE08424B84
:102248004F073743CA089D4200D16EE012036D055F
:10225800120B6D0D00211203130B0A0D12051A4300
:102268003B4B2D0513402B435B00E4075B082343DE
:10227800380019003CBC90469946A246AB46F8BDCA
:102288006346134311D0731E002B00D007E1861854
:102298008642804161444042091801250B0237D526
:1022A80002257BE73E00614691463500C5E75C465E
:1022B800002D00D0E1E00B000343F3D0731C00D1E4
:1022C800ACE1214B9F4200D13AE1F343382B00DDCA
:1022D8006FE11F2B00DD8CE120250E00ED1AAE40CA
:1022E800B0460600AA46DE40454635432E00554610
:1022F800D940A8406346451EA8415B1A9C46304316
:10230800161AB242924163465242991A3D00B4E607
:1023180007223240002A00D0E4E60B4BF6084F07AC
:102328003743CA089D4200D090E73B00134300D1D1
:10233800A6E180231B031A431203120B024D89E7FF
:1023480015000022002785E7FF070000FFFF7FFF39
:10235800FFFF0F80002E00D0C7E06B1C5E05760DD6
:10236800012E00DCF0E0C84DAB4200D1B9E0851881
:102378000A00854289416244494251180722CE0722
:102388006D082E43490832401D00A9E6BF49ED1AE1
:10239800114007223240A3E6320028388240002646
:1023A80086E6300000F080FA203073E66346134377
:1023B8005A1E9341C61AB04280414042091A5CE64F
:1023C8000E00674606431743002D5ED1002E00D04D
:1023D800F3E0002F00D11EE15C46614691462CE7F0
:1023E800A94FBE427BD01E00F1E610001F3DE84019
:1023F800202B03D04021CB1A9A401643731E9E41CE
:102408000722064332400021002583E7161A634657
:10241800B2428041591A40420B1A98465C4632E64D
:102428001F2E00DDABE02027BB1B9A4663465746AC
:10243800BB40994613004F46F3401F433B005746A5
:10244800BA40571EBA4113436246F240891898E6CB
:102458002027BB1B9A4663465746BB409946130044
:102468004F46F3401F433B005746BA40571EBA41F8
:1024780013436246F240891A9CE7834B9F425FD020
:1024880080252D047342294320E7002E0CD1002F0C
:1024980000D1D0E05C46614691467B4DCDE67A4F4F
:1024A800BE421CD01E0065E6002F18D0C0084E079B
:1024B80006438020C9080003014208D06346DC08AF
:1024C800044204D12100DA46D2085E071643F3001D
:1024D800994601245346C900720F11431C406A4DA6
:1024E800ABE61D0000220027B4E6002D59D10B00F1
:1024F800034300D1D6E6731C00D1B2E0624B9F4281
:102508001ED0F343382B6FDC1F2B00DD97E020250E
:102518000E00ED1AAE40B0460600AA46DE4045461B
:1025280035432E005546A840D940451EA8418C4445
:102538000643B61896429241514261443D0025E651
:102548003D006146914678E60B000343002D00D01C
:1025580055E6002BF5D06346134300D16DE6861887
:102568008642804161444042091800220B0200D48F
:10257800D0E6464B01351940B2E5B1465DE6330079
:102588006746203BDF403B00202E05D04027BF1B7D
:102598006646BE40324390464646721E96413343D5
:1025A800EFE5394B9F42CBD080252D047342294358
:1025B800A8E70843411E8841A2E6002F00D13CE667
:1025C8006346861ACF1AB0429B415B42FB1A984673
:1025D8001B024ED5161A6346B2429241591A52420C
:1025E800891A5C4600227BE501430E00711E8E416C
:1025F8009FE71D000E00203DEE40B046202B04D082
:102608004025EB1A99400843814648464346411EF7
:102618008841184374E60022002417E6161A634618
:10262800B2429241591A5242891A3D0025E5614643
:102638009146154D01E680220024120379E61D001B
:102648000E00203DEE40B046202B04D04025EB1A6A
:102658009940084381464E464346711E8E411E43AB
:1026680067E7861896429B4161445B42C9183D0062
:102678008CE547463743CED007224146324049E6EB
:1026880000273A00E6E5C046FF070000FFFF7FFF8E
:1026980070B50C4E0D031C0349005B002D0B490D52
:1026A800240B5B0DB14208D0064900208B4203D1B0
:1026B80014432000441EA04170BD05430120002D95
:1026C800FAD1F1E7FF07000070B500282DD0C31735
:1026D800C5185D40C40F280000F0E6F8154B1B1A1A
:1026E8005B055B0D0A2815DD0B38854000222D039C
:1026F8002D0B002110002D030A0D2D0B12052A4366
:102708000D4D1B052A4013435B00E4075B08234378
:10271800190070BD02002900153291400A000B21F2
:10272800081AC5402D032D0BE3E7002400230025DC
:102738000022DEE71E040000FFFF0F8010B5041E14
:1027480025D000F0B1F8144B1B1A5B055B0D0A2865
:1027580012DD0B38844000222403240B00211000D2
:1027680024030A0D240B120522430C4C1B0522409E
:1027780013435B00590810BD020021001532914037
:102788000A000B21081AC4402403240BE6E700239F
:1027980000240022E2E7C0461E040000FFFF0F806D
:1027A800F0B54C00640D0B03621C5B0A460F520522
:1027B800C90F1E43C500520D012A29DD374BE71802
:1027C800FE2F1CDC002F3BDD8001431E98410722B1
:1027D800F3006D0F03432B431A40002A04D00F2245
:1027E8001A40042A00D004338022D2041A4024D08C
:1027F8000137FAB2FF2F02D09B01580A01E0FF22ED
:1028080000204002D205400AC90710430843F0BD22
:102818003543002C04D1002D0AD100220020F0E716
:10282800002DECD08020C0033043FF22E9E70024CC
:1028380000235B02580AE2B2E3E7DB083C00F8E752
:102848003B001733F3DB80231B0433431E26F61BA0
:102858001F2E14DD02225242D71B1A00FA4017001D
:10286800202E04D00E4A94466444A3401D432B00F6
:102878005D1EAB4107223B431A400027ADE7094ADA
:102888002800A218954093406C1EA541F0400722ED
:102898002B4303431A4000279FE7C04680FCFFFFF5
:1028A800A2FCFFFF82FCFFFF1C2101231B049842AE
:1028B80001D3000C10391B0A984201D3000A0839C9
:1028C8001B09984201D30009043902A2105C401880
:1028D8007047C04604030202010101010000000024
:1028E80000000000F0B54E465746DE464546E0B5C6
:1028F8000F00002183B006008946002F06DA390050
:10290800002746428F41012149428946002B07DAB8
:102918004946C943100089461900002342428B41A9
:1029280034003D0092469846BB4269D866D041467D
:10293800504600F0AFF883463900300000F0AAF89E
:102948005B461B1A9C46203B9B4600D575E05146CA
:10295800584681400B005146604681400A00BB4200
:1029680061D85ED034003D005946A41A9D41002923
:1029780000DA7AE0002100200126009001915946F2
:102988008E400196614601268E40614600960029D8
:1029980050D0D90756085F080E4363460EE0AF4291
:1029A80001D1A6420CD8A41BBD41012124196D41B7
:1029B8000022013B64185541002B06D0AF42EED9E6
:1029C800013B24196D41002BF8D1009801995B4611
:1029D80000196941002B3DDB2E00DE4063462C00C8
:1029E800DC405B46002B4BDB34005D46AC402300EB
:1029F8006446A6403200801A994103E0B24296D953
:102A0800002000214B46002B04D003000C000021BD
:102A18005842A14103B03CBC90469946A246AB46F9
:102A2800F0BDB1429ED9002100200090019161467D
:102A38000029AED100980199E4E720236246514667
:102A48009B1AD9404046009161468840030000998E
:102A58000B4380E7624620239B1A2A009A402600EF
:102A680013006246D6401E43B8E761462026012778
:102A7800761A00200021F74000900191019781E724
:102A88006746202362463500BC409B1ADD40230080
:102A98002B43ADE710B5002903D1FFF705FF203020
:102AA80002E0081CFFF700FF10BDC0460023C25C0F
:102AB8000133002AFBD1581E7047000030B587B09B
:102AC8000D001400838C5B0099B2AAB2806A0B4B8C
:102AD80002930223019305AB0093012301F0DCFC70
:102AE800002808D105A94A7812020B7813432380DD
:102AF800013007B030BD0020FBE7C0468813000056
:102B080010B5040002008821FFF7D8FF002800D183
:102B180010BDA21C8A212000FFF7D0FF0028F7D0A3
:102B2800221D8C212000FFF7C9FF0028F0D0A21D2C
:102B38008E212000FFF7C2FF0028E9D022000832CA
:102B480090212000FFF7BAFF0028E1D022000A32C6
:102B580092212000FFF7B2FF0028D9D022000C32C2
:102B680094212000FFF7AAFF0028D1D022000E32BE
:102B780096212000FFF7A2FF0028C9D022001032BA
:102B880098212000FFF79AFF0028C1D022001232B6
:102B98009A212000FFF792FF0028B9D022001432B2
:102BA8009C212000FFF78AFF0028B1D022001632AE
:102BB8009E212000FFF782FFAAE7000030B587B00A
:102BC800040003001833818C490089B22E4A02920E
:102BD8000122019200930123A032806A01F05CFC7B
:102BE800002803D00025280007B030BD22001A3283
:102BF800E1212000FFF762FF051EF4D023001C33FB
:102C0800A18C490089B2204A0292012201920093C4
:102C18000123E232A06A01F03FFC002801D0002520
:102C2800E1E716226A44E4212000FFF747FF051E6A
:102C3800D9D005AAE5212000FFF740FF051ED2D014
:102C480023002233A18C490089B20F4A0292012243
:102C5800019200930123E632A06A01F01DFC0028CE
:102C680010D116236B441A881301FF2109010B4068
:102C780012120F210A401343E38305AB1B881B097B
:102C88002384B0E70025AEE78813000030B587B08D
:102C98000C0017256D442A70838C5B0099B2A2B290
:102CA800806A064B029301230193009501F024FBEF
:102CB800002800D0012007B030BDC0461027000012
:102CC80003230370002242708370C3700371437141
:102CD80070470000F0B587B004000D00818C0B0030
:102CE800763B9BB2012B03D90026300007B0F0BD1C
:102CF80003003233490089B23C4A02920122019210
:102D080000930123CF32806A01F0C6FB002867D107
:102D18003223E35C582B03D0602B01D00026E4E774
:102D2800B622E0212000FFF7B1FF00285AD1A18C7C
:102D3800490089B22D4B02930123019316336B444A
:102D480000930123F322A06A01F0A6FB0028EED12C
:102D580017236B441B78DB07E9D42000FFF7D0FE6C
:102D6800061EC2D03223E35C602B26D06A7952015A
:102D78006B789B001A4352B2D2B2F5212000FFF7BC
:102D880085FF002830D12B78012B1DD0EB785B0113
:102D9800AA78920013435BB20022AA561343DFB20B
:102DA8003223E35C602B12D03A00F4212000FFF7B5
:102DB8006DFF002899D0002697E72000FFF7FEFE58
:102DC8000028D3D1060090E700232B70DEE72A798C
:102DD800F2212000FFF75AFF0028E5D0002684E7FB
:102DE800002682E7002680E700267EE78813000099
:102DF800F0B5DE4657464E464546E0B58DB007006D
:102E08000C00934699463223C35C602B00D125E120
:102E18004B46002B00D126E100234A461360994611
:102E28000633B98C490089B2984A029201930AABD9
:102E380000930123F722B86A01F02EFB002800D086
:102E480019E10AAA13781B03517809010B439178F9
:102E580009090B439846D3781B03117909010B43E1
:102E6800527912091343DA1038884100511A0225A1
:102E78007A5F4A43D2121B111B1A5B431B130420AF
:102E8800395E4B439B13D618B3009B1980331B1232
:102E980023603200F3177E480121494212184B4142
:102EA8001000190004900591FDF738FB1023FA5E15
:102EB800D31706900791FDF731FB04000D000E2390
:102EC800FA5ED31704980599FDF728FBC30B9C46B7
:102ED8004B0461460B43420412196B410C217C5E82
:102EE8000020E10012184B41089209930A23FA5E68
:102EF800D31706980799FDF711FB0B06040A1C4324
:102F08000D120823FA5ED31704980599FDF706FBFE
:102F1800030D9A460B0351460B4302032000290078
:102F280080185941002280231B0280185941FA88D1
:102F38000023FDF7F3FA4D10CC172B00234300D1E3
:102F480095E080235B0341465B1A5910D807089A1D
:102F5800099B801A99414F4A0023FDF7DFFA2A009E
:102F68002300FDF7B7FA04000D001623F85EC11719
:102F7800EB0404940595650B1D43059B5C132A001F
:102F88002300FDF7CBFA02000B0028002100FDF713
:102F9800C5FACB01440E1C434D161423FA5ED31711
:102FA80004980599FDF7BAFA4B039C46C20C604693
:102FB8000243CB14049805990019694104000D00D7
:102FC800A4185D412A06230A13431222B95E0A0196
:102FD8009B185A4613604B46002B54D00AAB98797D
:102FE8000002DC7920432C4BF51880031E23FA5E7F
:102FF8001205841A2023FA5E6A43A21A8023DB0191
:103008009C466244D2132223F956694389123B7FB6
:103018006B43DB1280200002844663444B439B12BF
:103028008021890359181A203B5E4B43802189016E
:103038008C4663449B135A43D3135B43DB11397E9D
:103048004B431B11D31A14D4C8225205934200DDF6
:1030580013001B134A46136001200DE04B46002B5A
:1030680003D00823DDE60623DBE60623D9E60023A2
:10307800AFE70023E8E700200DB03CBC9046994636
:10308800A246AB46F0BD0120F6E7C0468813000013
:10309800000CFEFF350C000000D4FEFFF0B585B033
:1030A8000F0016001D1E22D001AB02AA03A9FFF7CC
:1030B8009FFE041E18D00398FDF780FD0D49FDF70B
:1030C80073FA38600298FDF7C3FDEE218905FDF714
:1030D80043FC3060002D07D00198FDF7B9FDEA21C7
:1030E8008905FDF739FC2860200005B0F0BD0023F4
:1030F800DBE7C0460000C84210B586B00400FA23DA
:103108009B000A22CA21006801F09AFA002802D01E
:10311800012006B010BD2068FA239B00029301230A
:10312800019305AB009301230022CA2101F0B4F9F1
:10313800EFE710B5FFF7E0FF012301E0C0460133D8
:103148007F2BFBDD10BD70B586B00400FA239B0011
:103158000222CA21006801F073FA002802D0012077
:1031680006B070BDFA239B0002930523019304ABBC
:10317800009301230E22CA21206801F08DF900284E
:1031880040D104AD287801210B000340237343107C
:10319800072213406373061103231E40A673800998
:1031A800E07368780E000640267446101640667470
:1031B80006111E40A6748009E074A8780E00064027
:1031C800267546101640667506111E40A6758009BC
:1031D800E075E8780E0006402676461016406676BA
:1031E80006111E40A6768009E076287901402177ED
:1031F80041100A40627702111340A3778009E077F3
:103208000020ADE70120ABE7F0B589B0142200211A
:1032180003A803F042FD194B5A6B012422435A6359
:103228005A6B22400192019A596B02221143596349
:103238005B6B1A400292029BA027FF050022102117
:10324800380000F0EFFC0E4E00220121300000F0A3
:10325800E9FC10230393049400250595069503A91A
:10326800380000F025FC039404940595069503A9FD
:10327800300000F01DFC09B0F0BDC046001002404F
:103288000004005072B6FEE700B599B03422002160
:103298000BA803F002FD1022002107A803F0FDFC93
:1032A8001822002101A803F0F8FC8020800001F01A
:1032B800DDFA02230B93802252000E9200220F9215
:1032C800402110911293139314920633159380237F
:1032D8009B02169380239B0517930BA801F0F0FA25
:1032E800002818D107230793053B08930023099367
:1032F8000A93022107A801F097FD00280DD1212388
:10330800019300230293039301A801F06DFE0028A6
:1033180005D119B000BDFFF7B5FFFFF7B3FFFFF701
:10332800B1FF000010B51748174B0360E1231B02DB
:10333800436000238360C36003610C2242618361A0
:10334800C36103624362836202F064FA002811D108
:1033580000210C4802F0ECFA00280DD100210948A0
:1033680002F00AFB002809D1064802F0C1FA002839
:1033780006D110BDFFF786FFFFF784FFFFF782FF36
:10338800FFF780FFE80000200038014010B50C4826
:103398000C4B0360E1231B02436000238360C3607E
:1033A80003610C2242618361C361036243628362E9
:1033B80002F030FA002800D110BDFFF763FFC046C5
:1033C800780100200044004010B51248124B0360F9
:1033D800124B4360002383600122C2600361436192
:1033E8008361C361036200F0B5FD00280CD10021A0
:1033F800084801F0E5F9002808D10021054801F046
:103408000BFA002804D110BDFFF73CFFFFF73AFF85
:10341800FFF738FF9C00002000540040BC7D70106E
:1034280010B5FFF751F9074A074BFEF777FB002263
:10343800064BFEF773FB064A064BFEF7E1FDFFF766
:10344800AFF910BDD7A3703D0AF765400000F03E04
:10345800CDCCCCCCCC6C474010B5FFF735F9002269
:103468000F4BFEF75BFB00220E4BFEF757FB0022CB
:103478000D4BFEF7C5FDFFF793F9041C0021FDF77E
:1034880001F8002809D10949201CFDF70FF8002888
:1034980001D1201C10BD054CFBE70024F9E7C0460C
:1034A80000405F400000F03E000018400000C842A5
:1034B80003781B02407818437047000030B585B088
:1034C80004000D000F226A44E5231370224B009379
:1034D80001238021214800F0A3FD00282FD11E4B95
:1034E8000093022303AA80211C4800F04FFE002805
:1034F80028D103A8FFF7DCFFFFF7AEFF20600F22FB
:103508006A44E0231370144B00930123802113486D
:1035180000F086FD002818D10F4B0093022303AA60
:1035280080210E4800F032FE002811D103A8FFF7D1
:10353800BFFFFFF775FF2860002005B030BD0120F0
:103548004042FAE701204042F7E701204042F4E711
:1035580001204042F1E7C046102700009C000020EF
:1035680070B5134B002564229D5466329D54013278
:103578009D5401323121995404329A58CC33137036
:103588000C4C2000FFF792FA00190A220A4903F0AE
:103598007BFB260009363000FFF788FA80190B22DA
:1035A800064903F071FB6575E574257570BDC04665
:1035B800540200209C030020986E0008A46E0008A6
:1035C80010B500F063F9FFF75FFEFFF71DFEFFF788
:1035D800A9FEFFF7DBFEFFF7F7FEFFF7C1FF1F4C61
:1035E8002000FFF76DFB20002C38762383841C4BCA
:1035F80083622100FFF76EFB1A4C2000FFF799FD4C
:103608002000FFF7A0FD184B184A19491948FFF781
:1036180045FD194B1868FFF791F80022174BFDF785
:1036280073FE02000B0000201549FEF7E9FC00229A
:10363800144BFEF773FA144C20606160134A144B64
:1036480002F0EAF920606160124B19685868FFF7C8
:1036580035FF642000F040F9CEE7C046540300204F
:103668009C0000205C03002020020020140200209F
:1036780050020020280300201C02002000AA8F40CE
:103688000000F03F40A5E540280200206C45D9CC59
:10369800955BC83F0000002082B00A4B196C0122DC
:1036A80011431964196C0A400092009ADA6B802160
:1036B80049050A43DA63DB6B0B400193019B02B0B7
:1036C8007047C0460010024010B588B004001422AC
:1036D800002103A803F0E1FA2268134B9A4201D0B3
:1036E80008B010BD114C626B02231A436263626B0F
:1036F80013400193019BC0235B0003936F3BFF3B87
:103708000493113B05930533079303A9084800F078
:10371800CFF9E26B802189030A43E263E36B0B4034
:103728000293029BDCE7C0460054004000100240B0
:103738000004005010B58AB004001422002105A826
:1037480003F0ABFA2368294A934204D0284A9342EB
:1037580027D00AB010BD274B196C8020C001014347
:1037680019641A6C02400192019A596B01221143A3
:1037780059635B6B13400293029BC023DB000593E4
:10378800022306930992A02005A9C00500F090F92C
:10379800002200211B2000F0B1F81B2000F0E0F807
:1037A800D7E7144BD96B802080020143D963DA6BC9
:1037B80002400392039A596B0122114359635B6BD0
:1037C80013400493049B0C2305930A3B0693099228
:1037D800A02005A9C00500F06BF9002200211C20DB
:1037E80000F08CF81C2000F0BBF8B2E7003801406C
:1037F8000044004000100240FEE7FEE770477047B3
:1038080010B500F057F810BD10B5024801F0E2FC01
:1038180010BDC046E800002010B5024801F0DAFCEF
:1038280010BDC04678010020024B802212059A6024
:103838007047C04600ED00E010B50400114B197840
:10384800002901D1012010BDFA208000FCF754FCAA
:1038580001000D4B1868FCF74FFC00F08DF80028AC
:103868000DD1032C01D90120EDE701300022210000
:10387800404200F043F8034B5C600020E3E701207E
:10388800E1E7C0460C0000200800002010B5084AF7
:10389800116880235B000B4313600020FFF7CCFF07
:1038A800041E02D00124200010BDFFF7F5FEFAE740
:1038B80000200240034B1B78034A11685B18136011
:1038C8007047C0460C000020B4030020014B186864
:1038D8007047C046B403002070B50400FFF7F6FF38
:1038E8000500631C02D0044B1B78E418FFF7EEFFB9
:1038F800401BA042FAD370BD0C00002070B5002810
:1039080011DB8308144DC0339B005C59032210401F
:10391800C000FC3216008640B44389010A40824048
:1039280022435A5170BDC0B20F230340083B9B0885
:1039380006339B00094A944663445D68032420408B
:10394800C000FF2214008440A54389011140814032
:1039580029435960E6E7C04600E100E000ED00E0D9
:10396800002805DB1F2318401E3B8340014A1360D3
:103978007047C04600E100E001380A4B98420FD872
:10398800094A50600948036A1B021B0AC02109063C
:103998000B430362002393600733136000207047D2
:1039A8000120FCE7FFFFFF0010E000E000ED00E071
:1039B80030B5002836D02523C35C022B06D004235B
:1039C800C36320330022C254012030BD026813684B
:1039D8000E218B431360426C136813490B4013602C
:1039E80001680A6801239A430A60104C62681C2126
:1039F800056C29408B4013436360836CC26C5A602A
:103A0800036D002B06D01A6807490A401A60436DF7
:103A1800826D5A6025230122C254013B0022C25400
:103A28000020D2E70120D0E7FFFEFFFF00000240A0
:103A380070B52523C35C022B03D00423C363012084
:103A480070BD026813680E218B43136001680A6811
:103A580001239A430A60416C0A68134C22400A60A9
:103A6800124C62681C21056C29408B40134363602B
:103A7800836CC26C5A60036D002B06D01A680A4921
:103A88000A401A60436D826D5A6025230122C25490
:103A9800013B0022C254836B002B02D098470020C0
:103AA800CEE70020CCE7C046FFFEFFFF0000024043
:103AB800F0B5CE46474680B5002336E0032600E041
:103AC8000026AE4035003D43524E1834A400A5519F
:103AD80080243559D4432E0026404F68FF0301D572
:103AE80015432E004B4D8027EE518426AD592E00EC
:103AF80026404F68BF0301D515432E00454D842746
:103B0800EE512D682E0026404F68FF0201D515435F
:103B18002E00404D2E606D682C404E68B60201D5CF
:103B28002A4314003B4A546001330A681400DC40FD
:103B38006CD001249C402240F6D04D686E1E012EA8
:103B480003D9112D01D0122D12D185685F000326EB
:103B5800BE40B5432E00CD68BD40354385604568FD
:103B6800A5434C682609012434409C402C434460FA
:103B7800C7685E000324B440E443A44627408D6828
:103B8800B5403D43C5604C68022C01D0122C10D1C1
:103B9800DC080834A400A146275807251D40AD00BD
:103BA8000F24AC40A7430C69AC4025003D434C466C
:103BB800255005686446254003244F683C40B440BE
:103BC8002C4304604C68E400AED59C0825001835E9
:103BD800AD00104EAF5903251D40ED000F26AE4035
:103BE800B743A026F605B04200D169E70A4EB042B5
:103BF80008D00A4EB04207D0094EB04200D15DE766
:103C080005265EE701265CE702265AE70CBC9046CB
:103C18009946F0BD0018024000040050000800500A
:103C2800000C0050002A01D1816270478161FCE7D5
:103C380003689A69920701D500229A6203689A6913
:103C4800D20703D49A6901210A439A617047000098
:103C5800F0B5059C05686868660D8027FF00374049
:103C6800054E3E43B0438905890D120411430B43A9
:103C7800234303436B60F0BDFF63FF0370B504008B
:103C88000E00150003689B69DB0619D523689A693D
:103C9800920617D4731CF9D0FFF718FE401BB042E8
:103CA80001D8002EF2D1636C2022134363644123B0
:103CB800E25400232232A354023AA35401201AE00A
:103CC800002018E01022DA6123682025DD61200039
:103CD800FFF7AEFF2268536807490B405360636CD7
:103CE8000422134363644123E55400233E32A35462
:103CF800023AA354012070BD00E800FE70B504002C
:103D08000D00160023689B699B071CD4320029000C
:103D18002000FFF7B3FF002817D16B1CF2D0FFF784
:103D2800D5FD801BA84201D8002DEBD1636C202261
:103D3800134363644123E25400232232A354023A1A
:103D4800A354012000E0002070BD0120FCE7F8B575
:103D580006000C0017001D0033689B6923401B1BDD
:103D68005A425341BB4216D16B1CF5D0FFF7AEFD4A
:103D7800069BC01AA84201D8002DEDD1736C2022F1
:103D8800134373644123F25400232232B354023A9A
:103D9800B354012000E00020F8BD000070B582B0E7
:103DA800040016001D008023EAB2184800905B0446
:103DB8002000FFF74DFF079A06992000FFF79EFFA6
:103DC80000281ED1012D0ED12368F6B29E62079BF2
:103DD8000093069B002280212000FFF7B8FF0028EF
:103DE80010D001200EE02368320A9A62079A0699D9
:103DF8002000FFF783FF002806D12368F6B29E62F1
:103E0800E5E7012002B070BD0120FBE7002000803B
:103E180070B582B0040016001D00DAB2174B00938B
:103E28000023FFF715FF079A06992000FFF766FFA2
:103E380000281ED1012D0ED12368F6B29E62079B81
:103E48000093069B002240212000FFF780FF0028F6
:103E580010D001200EE02368320A9A62079A069968
:103E68002000FFF74BFF002806D12368F6B29E62B8
:103E7800E5E7012002B070BD0120FBE700200080CB
:103E880070B505000C0016002B689B699B061AD4B8
:103E9800320021002800FFF7F1FE002815D1FFF7B6
:103EA80015FD801BA04201D8002CEDD16B6C20229F
:103EB80013436B644123EA5400232232AB54023A81
:103EC800AB54012070BD0020FCE70120FAE7000098
:103ED80070B504000D00160023689B695B0733D496
:103EE800320029002000FFF7C9FE00282ED12368E0
:103EF8009A69920611D4FFF7E9FC801BA84201D801
:103F0800002DE9D1636C2022134363644123E254FA
:103F1800013B0022E254012070BD9A69520702D584
:103F2800228D002AF8D12022DA6121684B680848DE
:103F380003404B6000236364412162542232A3543E
:103F4800023AA3540120E7E70020E5E70120E3E770
:103F580000E800FE10B5041E59D04123C35C002BB5
:103F680043D041232422E2542268136801218B4361
:103F780013602268274B61680B40136122689368BD
:103F880025490B409360E368012B34D022688423D1
:103F98001B02A1680B439360E368022B32D02268AE
:103FA80051681E4B0B4353602268D3681A490B4073
:103FB800D360236962691343A2691202216813431B
:103FC800CB602268E369216A0B4313602268136897
:103FD80001210B4313600023636441221F31A15464
:103FE80023630132A354002010BD40330022C25481
:103FF800FFF76AFBB5E7226880231B02A1680B4321
:104008009360C9E72368802212015A60C7E701203C
:10401800EAE7C046FFFFFFF0FF7FFFFF00800002D6
:10402800F0B585B00500039117001E004123C35C5D
:10403800202B00D099E02033C35C012B00D197E0FE
:1040480040230122C254FFF741FC04008021009064
:104058001923012209022800FFF779FE002800D061
:1040680088E041232122EA540133113AEA5400231B
:104078006B646F626E856B636B8D9BB2FF2B0BD984
:10408800FF232B857F3B3F4A00925B04FF22039965
:104098002800FFF7DDFD18E06A8D92B22A8580239B
:1040A800D2B2384900919B0403992800FFF7D0FD4C
:1040B8000BE06A8D92B22A858023D2B2002100914A
:1040C8009B0403992800FFF7C3FD6B8D9BB2002B5F
:1040D80034D022000A992800FFF710FE00284BD19F
:1040E8002B686A6A12789A626B6A01336B626B8D0D
:1040F800013B9BB26B852B8D013B9BB22B856A8D57
:1041080092B2002AE1D0002BDFD100940A9B002252
:1041180080212800FFF71BFE00282FD16B8D9BB252
:10412800FF2BC6D9FF232B857F3B002200925B041F
:10413800FF3203992800FFF78BFDC6E722000A9992
:104148002800FFF79DFE00281AD12B682022DA618B
:1041580029684B680C4C23404B604123EA540023E8
:104168002232AB54023AAB5400E0022005B0F0BD55
:104178000220FBE70120F9E70120F7E70120F5E736
:104188000120F3E70020008000E800FEF0B585B0CC
:104198000500039117001E004123C35C202B00D0AB
:1041A80099E02033C35C012B00D197E04023012222
:1041B800C254FFF78BFB04008021009019230122D1
:1041C80009022800FFF7C3FD002800D088E041233A
:1041D8002222EA540133123AEA5400236B646F62D4
:1041E8006E856B636B8D9BB2FF2B0BD9FF232B85E1
:1041F8007F3B3F4A00925B04FF2203992800FFF7A8
:1042080027FD18E06A8D92B22A858023D2B23849F8
:1042180000919B0403992800FFF71AFD0BE06A8DB3
:1042280092B22A858023D2B2002100919B0403997F
:104238002800FFF70DFD6B8D9BB2002B34D02200B8
:104248000A992800FFF744FE00284BD12B685B6AC7
:104258006A6A13706B6A01336B622B8D013B9BB2E8
:104268002B856A8D013A92B26A856A8D92B2002ACC
:10427800E1D0002BDFD100940A9B00228021280086
:10428800FFF765FD00282FD16B8D9BB2FF2BC6D998
:10429800FF232B857F3B002200925B04FF320399AA
:1042A8002800FFF7D5FCC6E722000A992800FFF787
:1042B800E7FD00281AD12B682022DA6129684B68AB
:1042C8000C4C23404B604123EA5400232232AB5468
:1042D800023AAB5400E0022005B0F0BD0220FBE733
:1042E8000120F9E70120F7E70120F5E70120F3E7CE
:1042F8000024008000E800FEF0B587B005000391B7
:10430800049205930CAB10CB1E884123C35C202B71
:1043180000D0B3E0002C18D0002E16D04023C35C88
:10432800012B00D1ADE040230122C254FFF7CEFAA1
:104338000700802100901923012209022800FFF7B5
:1043480006FD002806D0012099E080239B006B64BD
:10435800012094E041232122EA5401331F32EA5418
:1043680000236B646C626E856B6301970E9B0093F0
:10437800059B049A03992800FFF710FD00280FD128
:104388006B8D9BB2FF2B10D9FF232B857F3B00221F
:1043980000925B04FF3203992800FFF759FC21E0E3
:1043A80040230022EA54012069E06A8D92B22A85EE
:1043B8008023D2B2002100919B0403992800FFF7C3
:1043C80047FC0FE06A8D92B22A858023D2B2002181
:1043D80000919B0403992800FFF73AFC6B8D9BB270
:1043E800002B34D03A000E992800FFF787FC0028EC
:1043F80049D12B686A6A12789A626B6A01336B62D8
:104408006B8D013B9BB26B852B8D013B9BB22B8542
:104418006A8D92B2002AE1D0002BDFD100970E9B63
:10442800002280212800FFF792FC00282DD16B8DF7
:104438009BB2FF2BC6D9FF232B857F3B002200921E
:104448005B04FF3203992800FFF702FCC6E73A0035
:104458000E992800FFF714FD002818D12B68202298
:10446800DA6129684B680B4C23404B604123EA54BE
:1044780000232232AB54023AAB5400E0022007B0CA
:10448800F0BD0220FBE70120F9E70120F7E7012052
:10449800F5E7C04600E800FEF0B587B004000391D8
:1044A800049205930CAB20CB1F884123C35C202BBF
:1044B80000D0B5E0002D18D0002F16D04023C35CE3
:1044C800012B00D1AFE040230122C254FFF7FEF9CF
:1044D8000600802100901923012209022000FFF71D
:1044E80036FC002806D001209BE080239B006364F3
:1044F800012096E041232222E25401331E32E25485
:104508000023636465626785636301960E9B00936D
:10451800059B049A03992000FFF77AFC00280FD125
:10452800638D9BB2FF2B10D9FF2323857F3B424A23
:1045380000925B04FF2203992000FFF789FB21E02A
:1045480040230022E25401206BE0628D92B2228562
:104558008023D2B2384900919B0403992000FFF7C9
:1045680077FB0FE0628D92B222858023D2B20021C0
:1045780000919B0403992000FFF76AFB638D9BB2AF
:10458800002B36D000960E9B002204212000FFF756
:10459800DEFB002849D123685B6A626A1370636A8C
:1045A80001336362238D013B9BB22385628D013AFF
:1045B80092B26285628D92B2002ADFD0002BDDD1E3
:1045C80000960E9B002280212000FFF7C0FB0028E8
:1045D8002DD1638D9BB2FF2BC4D9FF2323857F3B4D
:1045E800002200925B04FF3203992000FFF730FBA2
:1045F800C4E732000E992000FFF742FC002818D1CA
:1046080023682022DA6121684B680C4D2B404B60EF
:104618004123E25400232232A354023AA35400E077
:10462800022007B0F0BD0220FBE70120F9E70120D6
:10463800F7E70120F5E7C0460024008000E800FE07
:10464800F0B587B00600039115001F0000230593FD
:104658004133C35C202B00D0A2E003689B691B0494
:1046680000D5A0E04023C35C012B00D19DE040238E
:104678000122C25401332332C25400234364F36835
:10468800012B18D0039B9A05920DA0239B0113437D
:1046980032685360FFF71AF90400326891692023E1
:1046A8000B40591E8B41D9B2936910221A40531EF0
:1046B8009A41D3B212E0039B9A05920D3F4B1343E4
:1046C800E6E73268916920230B40591E8B41D9B225
:1046D8009269102313405A1E9341DBB20B4313D146
:1046E8007B1CEED0FFF7F2F8001BB84201D8002F70
:1046F800E7D120224123F254736C1343736440239F
:104708000022F25401204CE033689B69DB0622D575
:1047180000943B00002220213000FFF718FB0028FE
:1047280047D133681022DA6133681032DA61059BA9
:10473800AB4222D0059B01330593059BAB429ED328
:1047480020224123F254736C1343736440230022E4
:10475800F254012025E000943B0000222021300083
:10476800FFF7F5FA002822D132682023D3614122CD
:10477800B35420330022F25413E032685168802386
:10478800DB010B43536000943B00002220213000E2
:10479800FFF7DDFA00280ED133682022DA61C9E775
:1047A800022007B0F0BD0220FBE70220F9E7012054
:1047B800F7E70120F5E70120F3E7C04600200002F3
:1047C800F0B54123C35C202B20D12033C35C012BDF
:1047D8001ED0402401220255412524234355066852
:1047E800336893433360066833680A4F3B4033604D
:1047F800066833681943316001680B6813430B601E
:104808002023435500230355002000E00220F0BD7B
:104818000220FCE7FFEFFFFFF0B54123C35C202B2C
:104828001ED12033C35C012B1CD040240122025529
:10483800412524234355066833689343336006684B
:104848003368094F3B4009021943316001680B681E
:1048580013430B602023435500230355002000E039
:104868000220F0BD0220FCE7FFF0FFFF10B5104A60
:10487800136810490B400343136080239B00984240
:1048880001D0002010BD0C4B1A6853009B1858002B
:104898000A49FBF731FC0130054B5B695B0503D521
:1048A800002803D00138F7E70020EBE70320E9E709
:1048B80000700040FFF9FFFF0800002040420F0091
:1048C80070B582B0041E00D134E20368DB0739D525
:1048D800C14A916838230B40D16803220A40102B43
:1048E80026D0082B26D063688022520293427FD0BC
:1048F800A022D202934200D181E0B74B1A68B7498F
:104908000A401A601A68B6490A401A606368002BA0
:1049180000D180E0FEF7DAFF0500AF4B1B689B0370
:1049280010D4FEF7D3FF401B6428F6D9032002E217
:10493800032AD6D1A84B1B689B0303D56368002BB9
:1049480000D1FAE123689B0731D5A34A936838213F
:104958000B40D16803220A40102B6AD0002B6BD180
:104968009D4A1268520503D5E268002A00D1E6E1A3
:10497800994842689B490A40616909020A434260B2
:10498800002B0DD1036898490B4021690B43036044
:104998000368DB0A07221A40944BD340944A1360F9
:1049A800944B1868FEF748FF002800D0C9E1236837
:1049B8001B0700D481E0884B9A6838231340182BD2
:1049C80073D0A369002B00D191E0834A136E0121B3
:1049D8000B431366FEF77AFF05007F4B1B6E9B07A0
:1049E8006BD4FEF773FF401B0228F6D90320A2E11F
:1049F800794A116880235B020B43136086E7764B84
:104A080019688022D2020A431A6019688022520269
:104A18000A431A607AE7FEF759FF05006E4B1B68D8
:104A28009B038FD5FEF752FF401B6428F6D903205D
:104A380081E1022A92D193E7E368002B22D0664AEB
:104A4800136869490B4021690B431360116880237F
:104A58005B000B431360FEF739FF05005E4B1B68D4
:104A68005B0506D4FEF732FF401B0228F6D9032067
:104A780061E159494B685B4A13406269120213436A
:104A88004B6094E7544A13685B490B401360FEF788
:104A98001DFF0500504B1B685B0588D5FEF716FF08
:104AA800401B0228F6D9032045E14B4B1B6E9B07A0
:104AB80003D5A369002B00D145E123685B0700D427
:104AC800A2E0454B9A6838231340202B22D0424B52
:104AD800DB6BDB0027D4404AD16B802040050143C3
:104AE800D163D36B03400193019B01251CE03A4A33
:104AF800136E01218B431366FEF7E8FE0500364B63
:104B08001B6E9B07D9D5FEF7E1FE401B0228F6D99C
:104B1800032010E1304BDB6D9B0775D5A368002B94
:104B280072D1012007E10025344B1B68DB051FD536
:104B3800A368012B30D0052B34D0274BDA6D012127
:104B48008A43DA65DA6D03318A43DA65A368002B94
:104B580032D0FEF7BBFE06001F4BDB6D9B0751D41E
:104B6800FEF7B4FE801B264B9842F5D90320E2E0FD
:104B7800224A116880235B000B431360FEF7A6FEF0
:104B880006001E4B1B68DB05D2D4FEF79FFE801B78
:104B98000228F6D90320CEE00F4AD36D01210B433A
:104BA800D365D3E70C4BDA6D04210A43DA65DA6D75
:104BB80003390A43DA65C9E7FEF788FE0600064BA3
:104BC800DB6D9B071ED5FEF781FE801B0C4B9842C0
:104BD800F5D90320AFE0C04600100240FFFFFEFFFA
:104BE800FFFFFBFFFF80FFFFFFC7FFFF0024F4006C
:104BF8000800002010000020FFFEFFFF00700040AA
:104C080088130000012D26D0E369002B00D19CE019
:104C1800514A916838220A40102A61D0022B20D0CC
:104C28004D4B1A684D490A401A60DA6803218A43D5
:104C3800DA60DA684A490A40DA60FEF747FE04009B
:104C4800454B1B689B0149D5FEF740FE001B022817
:104C5800F6D903206FE0404AD36B42490B40D36337
:104C6800D2E73D4A13683D490B401360FEF72EFE1C
:104C78000500394B1B689B0106D5FEF727FE401B34
:104C88000228F6D9032056E0334AD368364919403A
:104C9800236A606A0343A06A00020343E06A03438D
:104CA800206B03430B43D360116880235B040B43E1
:104CB8001360D16880235B050B43D360FEF706FEC3
:104CC8000400254B1B689B0106D4FEF7FFFD001B63
:104CD8000228F6D903202EE000202CE000202AE04C
:104CE800012B34D01C4BDA6803231340216A8B4212
:104CF80001D001201FE070231340616A8B4201D06C
:104D0800012018E0FE21C9011140A36A1B02994243
:104D180001D001200FE0F8239B031340E16A8B4286
:104D280001D0012007E0520F5207236B9A4210D09E
:104D3800012000E0012002B070BD0120FBE7012046
:104D4800F9E70120F7E70120F5E70020F3E7012064
:104D5800F1E70020EFE7C04600100240FFFFFFFE2A
:104D6800FFFFFEEFFFFFFFEF8C80C11F10B52B4B3D
:104D78009B6838221A4219D0284B9A683823134066
:104D8800082B46D0254B9A6838231340102B18D08F
:104D9800224B9A6838231340202B3CD01F4B9A682B
:104DA80038231340182B31D0002009E01B4B1A6818
:104DB800D20A07231340012199401948FBF79CF9AF
:104DC80010BD164AD1680D3B0B40D2681209072165
:104DD80011400131032B0FD11248FBF78DF90F4B0E
:104DE800DA68120A7F23134058430C4BD968490FDD
:104DF8000131FBF781F9E3E70948FBF77DF9074B38
:104E0800DA68120A7F2313405843EEE7FA20C001FC
:104E1800D6E70448D4E780200002D1E7001002401A
:104E28000024F40000127A0070B504000D00002878
:104E380000D1AAE0574B1A68072313408B4221D3AD
:104E480023689A070ED55B0705D5534A9168E02376
:104E5800DB010B439360504A936850490B40A168AB
:104E68000B4393602368DB0754D56368012B20D07C
:104E7800022B3BD0002B3FD1474A126852051CD465
:104E880001206AE0434A136807218B432B431360D0
:104E9800FEF71CFD06003F4B1A6807231340AB4280
:104EA800CED0FEF713FD801B3D4B9842F3D903206B
:104EB80053E0394A1268920369D537498A6807204E
:104EC800824313438B60FEF701FD0600324B9B685B
:104ED80038221A406368DB009A421BD0FEF7F6FCC2
:104EE800801B2F4B9842F1D9032036E02A4A1268DA
:104EF8009201E2D4012030E0032B05D0264AD26D7E
:104F08009207DAD4012028E0234A126E9207D4D4FB
:104F1800012022E01F4B1A6807231340AB421DD81B
:104F280023685B0706D51C4A93681E490B40E16855
:104F38000B439360FFF71AFF174B9A68120A0F2367
:104F480013409B00184A9A581F231340D840174B08
:104F58001860174B1868FEF76FFC70BD0D4A136890
:104F680007218B432B431360FEF7B0FC0600094B67
:104F78001A6807231340AB42D2D0FEF7A7FC801B68
:104F8800074B9842F3D90320E7E70120E5E7012022
:104F9800E3E7C0460020024000100240FFF0FFFF98
:104FA80088130000FF8FFFFFD06C00080800002066
:104FB80010000020014B18687047C0460800002008
:104FC80010B5FFF7F7FF064B9A68120B072313403B
:104FD8009B00044A9A581F231340D84010BDC0466E
:104FE80000100240106D0008F0B583B0040003689B
:104FF8009B0360D5524BDB6BDB001ED4504AD16B50
:10500800802040050143D163D36B03400193019B8A
:1050180001264C4A116880235B000B431360FEF79E
:1050280055FC0500474B1B68DB0508D4FEF74EFC12
:10503800401B0228F6D9032502E00026E9E70025EF
:10504800002D21D13E4BDB6DC0229200134010D0C1
:1050580062699A420DD03A4AD36D3B490B40D06DF4
:10506800802149020143D165D16D38480140D1659D
:10507800D365DB0710D4002D06D1314AD36D3249F0
:105088000B4061690B43D365012E15D12C4AD36BB4
:105098002F490B40D3630FE0FEF718FC0700284B9D
:1050A800DB6D9B07E7D4FEF711FCC01B294B984228
:1050B800F5D90325DFE700252368DB0706D5204A55
:1050C800536D03218B4361680B43536523689B062B
:1050D80006D51B4A536D20490B40A1680B43536505
:1050E80023685B040BD5164A536D9B009B08216906
:1050F8000B4353658023DB0522699A4211D023684C
:105108001B050BD50E4A536D14490B40E1680B4340
:105118005365E2688023DB019A4209D0280003B076
:10512800F0BD074AD16880235B020B43D360E6E7F2
:10513800034AD16880235B020B43D360EEE7C04685
:105148000010024000700040FFFCFFFFFFFFFEFF61
:10515800FFFFFFEF88130000FFCFFFFFFF3FFFFFB8
:10516800026813680B490B401360026893680A4988
:105178000B409360C36E012B06D088232022C250B7
:105188000023C366036770470268136810218B43C6
:105198001360F2E7DFFEFFFFFEFFFFEF704710B579
:1051A8000268136840218B43136084232022C25075
:1051B80000234367FFF7F2FF10BD704710B5806A00
:1051C80000235E228352083A8352FFF7F6FF10BD90
:1051D80070470000F8B504000168CB6908688D685D
:1051E800994A1A400BD19E0609D5860601D4EE00CD
:1051F80005D5236F002B01D020009847F8BD002A61
:1052080000D182E0914A2A4002D1914E30427CD0AE
:10521800DE0707D5C60505D501270F628C26A159DB
:105228003943A151990709D5E90707D5216802260D
:105238000E628A36A15904273943A151590709D565
:10524800E90707D5216804260E628836A159022786
:105258003943A15119070AD5810601D4002A06D07D
:105268002268082616628C216258324362501A0559
:105278000AD5420108D522688021090111628C21D2
:1052880062582026324362508C22A258002AB5D098
:105298009B0608D5830601D4EB0004D5236F002BA9
:1052A80001D0200098478C23E25823689B685B064E
:1052B80002D42823134221D02000FFF751FF23688E
:1052C8009A68520616D59A6840218A439A60E36F15
:1052D800002B0BD05F4A9A63E06FFEF7A9FB00280A
:1052E80000D18BE7E06F836B984787E72000FFF7D3
:1052F80064FF83E72000FFF760FF7FE72000FFF7E8
:105308005CFF8C230022E25078E7E26E012A11D07C
:10531800DA0201D56A0276D41A0600D47AE00206C7
:1053280001D42A0276D5636F002B00D166E72000EE
:10533800984763E7DA06EBD5C206E9D510230B6276
:10534800226893685B0638D5E16F0B685B689BB28F
:10535800002B00D152E75C20205A984200D84DE734
:105368005E2023520B681B689B0609D55C23E15A13
:105378000233E35AC91A89B22000FFF729FF3DE733
:10538800136835490B401360226893680331FF3175
:105398008B439360226893683F318B4393608823E3
:1053A8002022E2500023E3662268136830398B43D9
:1053B8001360E06FFEF7FCFAD8E75C23E15A02338A
:1053C800E05A091A89B2E35A9BB2002B00D115E7BB
:1053D800002900D112E713682048034013602268AF
:1053E80093681F480340936088232022E2500023DB
:1053F800E366236722681368102083431360200044
:10540800FFF7E6FEFAE680235B030B62200000F05C
:105418006BFAF3E65A0601D542060DD41A0201D5F5
:1054280042000DD4DB0100D4E8E6002800DBE5E605
:10543800200000F05AFAE1E62000FFF7B0FEDDE6B2
:10544800200000F053FAD9E60F0800000100001010
:1054580020010004C5510008FFFEFFFFDFFEFFFF2B
:10546800FEFFFFEF10B50400836802691343426929
:105478001343C2691343426E1A4301680B685C48C0
:10548800034013430B60226853685A490B40E16894
:105498000B435360226AA3691A4321688B685648F4
:1054A800034013438B602268D36A0F218B43616AE0
:1054B8000B43D3622368514A934215D0504A934212
:1054C80026D0102380221202E169914224D0022BB7
:1054D80000D17BE055D9042B00D179E0082B00D00E
:1054E8007FE08020000252E0464B5A6D03231340B0
:1054F800012B09D0002B05D0022B0BD0032B05D094
:105508001023DFE70023DDE70423DBE70823D9E7DF
:105518000023D7E70223D5E7022B30D006D9042B86
:105528002AD0082B57D18020000205E0002B52D149
:10553800FFF746FD002850D0636A5B00324A995A4B
:10554800FAF7DAFD400063685B08C0186168FAF78B
:10555800D3FD83B20004000C010010392B4A91429C
:105568003DD80F2293431A004008072318401043E0
:105578002368D860002020E0FFF7F8FBDAE724482A
:10558800DAE7002B2DD1FFF71BFD00282BD0636A2B
:105598005B001D4A995AFAF7AFFD63685B08C018AB
:1055A8006168FAF7A9FD0004000C0200103A174BD5
:1055B8009A421AD82368D860002001236A22A3528D
:1055C800023AA35200232367636710BD1048DEE741
:1055D800FFF7CCFBD9E70120EFE70020EDE701203A
:1055E800EBE70120E9E70020E7E70120E5E7C0460F
:1055F800F369FFCFFFCFFFFFFFF4FF110038014031
:105608000044004000100240306D0008EFFF000029
:105618000024F400836ADB0706D5026853682C4926
:105628000B40C16A0B435360836A9B0706D5026827
:10563800536828490B40016B0B435360836A5B072F
:1056480006D50268536824490B40416B0B435360ED
:10565800836A1B0706D50268536820490B40816B93
:105668000B435360836ADB0606D5026893681C49BE
:105678000B40C16B0B439360836A9B0606D5026897
:10568800936818490B40016C0B439360836A5B066F
:105698000BD50268536814490B40416C0B435360A7
:1056A80080235B03426C9A420AD0836A1B0606D5A4
:1056B800026853680D490B40C16C0B435360704737
:1056C800026853680A490B40816C0B435360ECE74E
:1056D800FFFFFDFFFFFFFEFFFFFFFBFFFF7FFFFF59
:1056E800FFEFFFFFFFDFFFFFFFFFEFFFFFFFF7FF0A
:1056F800FFFF9FFFF0B5C64600B505000C00170078
:105708009846069E2B68DB6923401B1B5A4253416F
:10571800BB423FD1731CF5D0FEF7D8F84346C01AF8
:10572800B04222D8002E20D02B681A685207E9D53B
:10573800DA691205E6D5802212011A622A6813680E
:1057480016490B4013602A689368A331FF318B43D5
:10575800936020238422AB500432AB500432AB5008
:1057680060330022EA54032015E02A6813680B49C5
:105778000B4013602A689368A331FF318B43936011
:1057880020238422AB500432AB5060330022EA5409
:10579800032000E0002004BC9046F0BD5FFEFFFF40
:1057A80030B583B004008C230022C250FEF78EF877
:1057B800050023681B681B070FD423681B685B0759
:1057C80018D420238422A3500432A3500023E36674
:1057D800083AA354002003B030BD80210C4B00933D
:1057E8000300002289032000FFF784FF0028E4D08B
:1057F8000320F0E78021064B00932B000022C90309
:105808002000FFF777FF0028DBD00320E3E7C0463E
:10581800FFFFFF0110B5041E30D08423C358002BAE
:1058280022D084232422E2502268136801218B436A
:1058380013602000FFF716FE012814D0A36A002B7E
:1058480018D1226853680E490B4053602268936848
:105858002A218B4393602268136829390B4313600C
:105868002000FFF79DFF10BD80330022C254FDF7D2
:1058780061FFD6E72000FFF7CDFEE2E70120F2E75F
:10588800FFB7FFFF70B584B0040002A9154A1300E2
:1058980005CB05C16A4603CB03C2636E002B1AD041
:1058A800226895686D0E07231D409268520F1340B9
:1058B80002AEF05CC0006A46D15CFAF7A7FC6A2326
:1058C800E052705DC0006B46595DFAF79FFC682393
:1058D800E05204B070BD01336A22A352023AA352C7
:1058E800F7E7C046486D00087047704770470000EA
:1058F80070B58023C35C012B15D080240126065582
:10590800842524234351026813681168B143116048
:10591800064A13400022426601680B602023435167
:105928000255002070BD0220FCE7C046FFFFFFDFE4
:10593800F8B504008023C35C012B1BD0802501200F
:10594800605584262423A35123681F681A6882435C
:105958001A6022689368DB00DB0819439160200015
:10596800FFF790FF23681F602023A351002363558E
:105978000020F8BD0220FCE7F8B504008023C35CD2
:10598800012B1BD080250120605584262423A35198
:1059980023681F681A6882431A6022689368084857
:1059A8000340194391602000FFF76CFF23681F60D4
:1059B8002023A351002363550020F8BD0220FCE7F3
:1059C800FFFFFFF10D488546FDF72EFF0C480D49F6
:1059D8000D4A002302E0D458C4500433C4188C4242
:1059E800F9D30A4A0A4C002301E013600432A242A8
:1059F800FBD301F025F9FDF7E3FDFEE700200020C9
:105A0800000000207C000020F06E000880000020CC
:105A1800B8030020FEE70000F0B557464E46DE46C4
:105A28004546E0B58FB01D0006000F00140000F0D9
:105A3800ADF9CE4B009001919A461B785BB299461E
:105A480001333ED022002B0020002900FCF720FE65
:105A58008346002835D132003B0030003900FCF77E
:105A680017FE00220390002800D06FE000233000CA
:105A78003900FAF7C7FC00282CD0002200232000A8
:105A88002900FAF7BFFC8346002800D192E004AB56
:105A98009846012342460493B54B53604346039A04
:105AA8001C615D611A629E60DF604246002300242B
:105AB8009361D4614B46002B67D00023AD4C009313
:105AC8000194009801990FB03CBC90469946A246B3
