:020000040800F2
:1000000000200020711F0008B5040008B704000894
:1000100000000000000000000000000000000000E0
:10002000000000000000000000000000B90400080B
:100030000000000000000000BB040008BD04000830
:10004000C11F000800000000C11F0008C11F0008F8
:10005000C11F0008C11F0008C11F0008C11F000800
:1000600000000000C5040008C11F0008C11F0008EF
:10007000C11F0008C11F0008C11F000800000000C8
:10008000C11F00080000000000000000C11F0008A0
:1000900000000000C11F0008C11F0008C11F0008A8
:1000A000C11F0008C11F0008C11F0008C11F0008B0
:0800B000D50400080000000067
:1000B80010B5064C2378002B07D1054B002B02D036
:1000C800044800E000BF0123237010BD0C0000208D
:1000D800000000001C200008044B10B5002B03D0C2
:1000E8000349044800E000BF10BDC04600000000FE
:1000F800100000201C200008002243088B4274D303
:1001080003098B425FD3030A8B4244D3030B8B4210
:1001180028D3030C8B420DD3FF22090212BA030C19
:100128008B4202D31212090265D0030B8B4219D3FA
:1001380000E0090AC30B8B4201D3CB03C01A52411A
:10014800830B8B4201D38B03C01A5241430B8B4262
:1001580001D34B03C01A5241030B8B4201D30B034B
:10016800C01A5241C30A8B4201D3CB02C01A524172
:10017800830A8B4201D38B02C01A5241430A8B4235
:1001880001D34B02C01A5241030A8B4201D30B021E
:10019800C01A5241CDD2C3098B4201D3CB01C01A38
:1001A800524183098B4201D38B01C01A5241430942
:1001B8008B4201D34B01C01A524103098B4201D330
:1001C8000B01C01A5241C3088B4201D3CB00C01A9D
:1001D800524183088B4201D38B00C01A5241430815
:1001E8008B4201D34B00C01A5241411A00D201463A
:1001F800524110467047FFE701B5002000F006F8AD
:1002080002BDC0460029F7D076E770477047C04660
:100218000023C25C0133002AFBD1581E704700003E
:1002280000B583B0094A916B012319439163926B1E
:1002380013400193019B00220021092000F0B8F926
:10024800092000F0E7F903B000BDC04600100240E5
:1002580082B0054A516B012319435163526B134015
:100268000193019B02B070470010024072B6FEE78E
:1002780000B593B03422002105A801F0C3FE102276
:10028800002101A801F0BEFE8020800000F012FCD1
:1002980002230593802252000892002209924021ED
:1002A8000A910C930D930E9206330F9380239B02B1
:1002B800109380239B05119305A800F025FC0028C6
:1002C8000ED107230193053B029300230393049364
:1002D800022101A800F0CCFE002803D113B000BD14
:1002E800FFF7C4FFFFF7C2FF10B50C480C4B0360C3
:1002F800E1231B02436000238360C36003610C2277
:1003080042618361C36103624362836201F040FD1D
:10031800002800D110BDFFF7A9FFC04688000020C3
:100328000044004010B5194B1C78002C11D002680D
:10033800174B9A420FD001221649174801F0E8FDE1
:1003480010BD164A0021D1540133DBB2312BF8D944
:10035800EDE72300FAE70F4B1B780D2B07D00A2B8C
:1003680005D0611C094A11700C4A1355E3E70B4C80
:100378002000FFF74DFF012382B25B4221000648AF
:1003880001F052FC014B00221A70D4E7280000202B
:100398000044004053010020880000202001002074
:1003A80010B500F0CDF8FFF763FFFFF751FFFFF737
:1003B80037FFFFF799FF01220449054801F0A8FD1E
:1003C800FA20800000F0E2F8FAE7C0465301002066
:1003D8008800002082B00A4B196C0122114319646D
:1003E800196C0A400092009ADA6B802149050A4389
:1003F800DA63DB6B0B400193019B02B07047C04688
:100408000010024010B588B004001422002103A88F
:1004180001F0F8FD214B22689A4201D008B010BDC6
:100428001F4BD96B802080020143D963DA6B0240ED
:100438000192019A596B0122114359635B6B134076
:100448000293029B0C2303930A3B04930792A02078
:1004580003A9C00500F074FA1248134B0360342353
:10046800436000238360C36080220261436183612B
:10047800C361036200F026F900280BD1094BE3673A
:100488009C62002200211C2000F092F81C2000F041
:10049800C1F8C3E7FFF7EAFEF0E7C04600440040B2
:1004A800001002402C00002008000240FEE7FEE792
:1004B8007047704710B500F057F810BD10B50248E6
:1004C80000F0D8F910BDC0462C00002010B5024835
:1004D80000F0E8FE10BDC04688000020024B8022D4
:1004E80012059A607047C04600ED00E010B50400A0
:1004F800114B1978002901D1012010BDFA20800084
:10050800FFF7FAFD01000D4B1868FFF7F5FD00F045
:100518008DF800280DD1032C01D90120EDE7013019
:1005280000222100404200F043F8034B5C600020A9
:10053800E3E70120E1E7C0460400002000000020B6
:1005480010B5084A116880235B000B431360002034
:10055800FFF7CCFF041E02D00124200010BDFFF7D6
:1005680039FFFAE700200240034B1B78034A116861
:100578005B1813607047C046040000205801002033
:10058800014B18687047C0465801002070B5040038
:10059800FFF7F6FF0500631C02D0044B1B78E41834
:1005A800FFF7EEFF401BA042FAD370BD0400002005
:1005B80070B5002811DB8308144DC0339B005C59CB
:1005C80003221040C000FC3216008640B443890163
:1005D8000A40824022435A5170BDC0B20F230340E3
:1005E800083B9B0806339B00094A944663445D68B0
:1005F80003242040C000FF2214008440A543890141
:100608001140814029435960E6E7C04600E100E017
:1006180000ED00E0002805DB1F2318401E3B834047
:10062800014A13607047C04600E100E001380A4BF8
:1006380098420FD8094A50600948036A1B021B0AEE
:10064800C02109060B43036200239360073313603C
:10065800002070470120FCE7FFFFFF0010E000E0EA
:1006680000ED00E010B50400036C9B08094A9446AD
:1006780063449B004364FF20236818400838142112
:10068800FFF73AFD044BA3641F2318401E3B834029
:10069800E36410BD00820010800802403F234268D6
:1006A8001340064A9A1892000265054A4265013BC2
:1006B80003221A4001239340836570473F8200104C
:1006C8004009024070B5041E4DD00568274BE81854
:1006D8001421FFF711FD8000206425230222E25433
:1006E8002B68234A13402B6021680A68A368E068D6
:1006F80003432069034360690343A0690343E06936
:100708000343206A034313430B602000FFF7AAFF4B
:100718008023DB01A2689A4218D0626C3F2361688B
:100728000B401360A36CE26C5A606368013B032BB7
:100738000FD9002323656365A3650023E36325229E
:100748000121A154013AA354002070BD0023636025
:10075800E3E72000FFF7A2FF236D00221A60636D14
:10076800A26D5A60E9E70120EFE7C046F8FFFDBF38
:100778000F80FFFF30B5002836D02523C35C022B3D
:1007880006D00423C36320330022C254012030BDA5
:10079800026813680E218B431360426C1368134977
:1007A8000B40136001680A6801239A430A60104CE1
:1007B80062681C21056C29408B4013436360836C7D
:1007C800C26C5A60036D002B06D01A6807490A40AC
:1007D8001A60436D826D5A6025230122C254013B81
:1007E8000022C2540020D2E70120D0E7FFFEFFFF1D
:1007F8000000024070B52523C35C022B03D00423FC
:10080800C363012070BD026813680E218B43136017
:1008180001680A6801239A430A60416C0A68134C0C
:1008280022400A60124C62681C21056C29408B40EA
:1008380013436360836CC26C5A60036D002B06D04F
:100848001A680A490A401A60436D826D5A60252366
:100858000122C254013B0022C254836B002B02D0F8
:1008680098470020CEE70020CCE7C046FFFEFFFFF8
:100878000000024070B5314B1968046825681C23D4
:10088800026C134004229A40114216D06A0714D50C
:1008980023689B0603D42368042293432360274CD0
:1008A80063681C21026C114004228A401343636070
:1008B800036B002B00D0984770BD02229A4011426A
:1008C8001CD0AA071AD523689B0606D423680A22D7
:1008D800934323602523093AC254184C63681C21AA
:1008E800026C114002228A401343636024230022D1
:1008F800C254C36A002BDFD09847DDE708229A402C
:100908001142D9D02B07D7D523680E2293432360F1
:100918000A4C62681C21036C194001231D008D409C
:100928002A436260C3632522835423330022C254BE
:10093800436B002BC0D09847BEE7C046000002407A
:10094800F0B5CE46474680B5002336E0032600E0E2
:100958000026AE4035003D43524E1834A400A55140
:1009680080243559D4432E0026404F68FF0301D513
:1009780015432E004B4D8027EE518426AD592E008D
:1009880026404F68BF0301D515432E00454D8427E7
:10099800EE512D682E0026404F68FF0201D5154301
:1009A8002E00404D2E606D682C404E68B60201D571
:1009B8002A4314003B4A546001330A681400DC409F
:1009C8006CD001249C402240F6D04D686E1E012E4A
:1009D80003D9112D01D0122D12D185685F0003268D
:1009E800BE40B5432E00CD68BD403543856045689F
:1009F800A5434C682609012434409C402C4344609C
:100A0800C7685E000324B440E443A44627408D68C9
:100A1800B5403D43C5604C68022C01D0122C10D162
:100A2800DC080834A400A146275807251D40AD005E
:100A38000F24AC40A7430C69AC4025003D434C460D
:100A4800255005686446254003244F683C40B4405F
:100A58002C4304604C68E400AED59C08250018358A
:100A6800AD00104EAF5903251D40ED000F26AE40D6
:100A7800B743A026F605B04200D169E70A4EB04256
:100A880008D00A4EB04207D0094EB04200D15DE707
:100A980005265EE701265CE702265AE70CBC90466D
:100AA8009946F0BD001802400004005000080050AC
:100AB800000C005010B5104A136810490B4003434E
:100AC800136080239B00984201D0002010BD0C4B7E
:100AD8001A6853009B1858000A49FFF70DFB0130AC
:100AE800054B5B695B0503D5002803D00138F7E7A0
:100AF8000020EBE70320E9E700700040FFF9FFFF63
:100B08000000002040420F0070B582B0041E00D1E2
:100B180034E20368DB0739D5C14A916838230B40B2
:100B2800D16803220A40102B26D0082B26D06368F0
:100B38008022520293427FD0A022D202934200D157
:100B480081E0B74B1A68B7490A401A601A68B64973
:100B58000A401A606368002B00D180E0FFF710FD9F
:100B68000500AF4B1B689B0310D4FFF709FD401B22
:100B78006428F6D9032002E2032AD6D1A84B1B68C1
:100B88009B0303D56368002B00D1FAE123689B0718
:100B980031D5A34A936838210B40D16803220A4013
:100BA800102B6AD0002B6BD19D4A1268520503D5D1
:100BB800E268002A00D1E6E1994842689B490A4068
:100BC800616909020A434260002B0DD10368984904
:100BD8000B4021690B4303600368DB0A07221A40B4
:100BE800944BD340944A1360944B1868FFF77EFCEB
:100BF800002800D0C9E123681B0700D481E0884B96
:100C08009A6838231340182B73D0A369002B00D19E
:100C180091E0834A136E01210B431366FFF7B0FC82
:100C280005007F4B1B6E9B076BD4FFF7A9FC401B8D
:100C38000228F6D90320A2E1794A116880235B02D1
:100C48000B43136086E7764B19688022D2020A4369
:100C58001A601968802252020A431A607AE7FFF77D
:100C68008FFC05006E4B1B689B038FD5FFF788FC34
:100C7800401B6428F6D9032081E1022A92D193E728
:100C8800E368002B22D0664A136869490B40216942
:100C98000B431360116880235B000B431360FFF75D
:100CA8006FFC05005E4B1B685B0506D4FFF768FC0C
:100CB800401B0228F6D9032061E159494B685B4A79
:100CC80013406269120213434B6094E7544A136855
:100CD8005B490B401360FFF753FC0500504B1B6842
:100CE8005B0588D5FFF74CFC401B0228F6D903208A
:100CF80045E14B4B1B6E9B0703D5A369002B00D125
:100D080045E123685B0700D4A2E0454B9A68382385
:100D18001340202B22D0424BDB6BDB0027D4404A08
:100D2800D16B802040050143D163D36B034001930D
:100D3800019B01251CE03A4A136E01218B4313667F
:100D4800FFF71EFC0500364B1B6E9B07D9D5FFF736
:100D580017FC401B0228F6D9032010E1304BDB6D4D
:100D68009B0775D5A368002B72D1012007E10025E8
:100D7800344B1B68DB051FD5A368012B30D0052B2E
:100D880034D0274BDA6D01218A43DA65DA6D0331F5
:100D98008A43DA65A368002B32D0FFF7F1FB06001F
:100DA8001F4BDB6D9B0751D4FFF7EAFB801B264BDB
:100DB8009842F5D90320E2E0224A116880235B00BB
:100DC8000B431360FFF7DCFB06001E4B1B68DB05BB
:100DD800D2D4FFF7D5FB801B0228F6D90320CEE03A
:100DE8000F4AD36D01210B43D365D3E70C4BDA6D62
:100DF80004210A43DA65DA6D03390A43DA65C9E77B
:100E0800FFF7BEFB0600064BDB6D9B071ED5FFF701
:100E1800B7FB801B0C4B9842F5D90320AFE0C046C6
:100E280000100240FFFFFEFFFFFFFBFFFF80FFFFF8
:100E3800FFC7FFFF0024F400000000200800002086
:100E4800FFFEFFFF0070004088130000012D26D030
:100E5800E369002B00D19CE0514A916838220A408E
:100E6800102A61D0022B20D04D4B1A684D490A40F8
:100E78001A60DA6803218A43DA60DA684A490A4064
:100E8800DA60FFF77DFB0400454B1B689B0149D5E1
:100E9800FFF776FB001B0228F6D903206FE0404AD3
:100EA800D36B42490B40D363D2E73D4A13683D49AF
:100EB8000B401360FFF764FB0500394B1B689B016F
:100EC80006D5FFF75DFB401B0228F6D9032056E044
:100ED800334AD36836491940236A606A0343A06AD3
:100EE80000020343E06A0343206B03430B43D360D0
:100EF800116880235B040B431360D16880235B0572
:100F08000B43D360FFF73CFB0400254B1B689B0198
:100F180006D4FFF735FB001B0228F6D903202EE084
:100F280000202CE000202AE0012B34D01C4BDA688A
:100F380003231340216A8B4201D001201FE0702354
:100F48001340616A8B4201D0012018E0FE21C901DB
:100F58001140A36A1B02994201D001200FE0F82337
:100F68009B031340E16A8B4201D0012007E0520F36
:100F78005207236B9A4210D0012000E0012002B0F2
:100F880070BD0120FBE70120F9E70120F7E7012008
:100F9800F5E70020F3E70120F1E70020EFE7C0467E
:100FA80000100240FFFFFFFEFFFFFEEFFFFFFFEF15
:100FB8008C80C11F10B52B4B9B6838221A4219D060
:100FC800284B9A6838231340082B46D0254B9A683B
:100FD80038231340102B18D0224B9A68382313401B
:100FE800202B3CD01F4B9A6838231340182B31D044
:100FF800002009E01B4B1A68D20A0723134001217D
:1010080099401948FFF778F810BD164AD1680D3B8A
:101018000B40D2681209072111400131032B0FD16F
:101028001248FFF769F80F4BDA68120A7F2313405A
:1010380058430C4BD968490F0131FFF75DF8E3E7D6
:101048000948FFF759F8074BDA68120A7F2313405B
:101058005843EEE7FA20C001D6E70448D4E78020D9
:101068000002D1E7001002400024F40000127A00C8
:1010780070B504000D00002800D1AAE0574B1A688B
:10108800072313408B4221D323689A070ED55B07A9
:1010980005D5534A9168E023DB010B439360504A1E
:1010A800936850490B40A1680B4393602368DB07A2
:1010B80054D56368012B20D0022B3BD0002B3FD1A5
:1010C800474A126852051CD401206AE0434A136853
:1010D80007218B432B431360FFF752FA06003F4B5F
:1010E8001A6807231340AB42CED0FFF749FA801B9A
:1010F8003D4B9842F3D9032053E0394A12689203D2
:1011080069D537498A680720824313438B60FFF704
:1011180037FA0600324B9B6838221A406368DB00B6
:101128009A421BD0FFF72CFA801B2F4B9842F1D91B
:10113800032036E02A4A12689201E2D4012030E006
:10114800032B05D0264AD26D9207DAD4012028E075
:10115800234A126E9207D4D4012022E01F4B1A684A
:1011680007231340AB421DD823685B0706D51C4AEA
:1011780093681E490B40E1680B439360FFF71AFF21
:10118800174B9A68120A0F2313409B00184A9A5863
:101198001F231340D840174B1860174B1868FFF7E8
:1011A800A5F970BD0D4A136807218B432B431360C3
:1011B800FFF7E6F90600094B1A6807231340AB420C
:1011C800D2D0FFF7DDF9801B074B9842F3D90320F3
:1011D800E7E70120E5E70120E3E7C04600200240F9
:1011E80000100240FFF0FFFF88130000FF8FFFFF91
:1011F800342000080000002008000020014B186877
:101208007047C0460000002010B5FFF7F7FF064BF7
:101218009A68120B072313409B00044A9A581F230D
:101228001340D84010BDC04600100240742000088A
:10123800026813680B490B401360026893680A49F7
:101248000B409360C36E012B06D088232022C25026
:101258000023C366036770470268136810218B4335
:101268001360F2E7DFFEFFFFFEFFFFEF704710B5E8
:101278000268136840218B43136084232022C250E4
:1012880000234367FFF7F2FF10BD704710B5806A6F
:1012980000235E228352083A8352FFF7F6FF10BDFF
:1012A80070470000F8B504000168CB6908688D68CC
:1012B800994A1A400BD19E0609D5860601D4EE003C
:1012C80005D5236F002B01D020009847F8BD002AD0
:1012D80000D182E0914A2A4002D1914E30427CD01E
:1012E800DE0707D5C60505D501270F628C26A1594B
:1012F8003943A151990709D5E90707D5216802267D
:101308000E628A36A15904273943A151590709D5D4
:10131800E90707D5216804260E628836A1590227F5
:101328003943A15119070AD5810601D4002A06D0EC
:101338002268082616628C216258324362501A05C8
:101348000AD5420108D522688021090111628C2141
:1013580062582026324362508C22A258002AB5D007
:101368009B0608D5830601D4EB0004D5236F002B18
:1013780001D0200098478C23E25823689B685B06BD
:1013880002D42823134221D02000FFF751FF2368FD
:101398009A68520616D59A6840218A439A60E36F84
:1013A800002B0BD05F4A9A63E06FFFF723FA0028FF
:1013B80000D18BE7E06F836B984787E72000FFF742
:1013C80064FF83E72000FFF760FF7FE72000FFF757
:1013D8005CFF8C230022E25078E7E26E012A11D0EC
:1013E800DA0201D56A0276D41A0600D47AE0020637
:1013F80001D42A0276D5636F002B00D166E720005E
:10140800984763E7DA06EBD5C206E9D510230B62E5
:10141800226893685B0638D5E16F0B685B689BB2FE
:10142800002B00D152E75C20205A984200D84DE7A3
:101438005E2023520B681B689B0609D55C23E15A82
:101448000233E35AC91A89B22000FFF729FF3DE7A2
:10145800136835490B401360226893680331FF31E4
:101468008B439360226893683F318B439360882352
:101478002022E2500023E3662268136830398B4348
:101488001360E06FFFF776F9D8E75C23E15A02337F
:10149800E05A091A89B2E35A9BB2002B00D115E72A
:1014A800002900D112E7136820480340136022681E
:1014B80093681F480340936088232022E25000234A
:1014C800E3662367226813681020834313602000B3
:1014D800FFF7E6FEFAE680235B030B62200000F0CC
:1014E80040FDF3E65A0601D542060DD41A0201D58D
:1014F80042000DD4DB0100D4E8E6002800DBE5E675
:10150800200000F02FFDE1E62000FFF7B0FEDDE649
:10151800200000F028FDD9E60F08000001000010A7
:101528002001000495120008FFFEFFFFDFFEFFFF09
:10153800FEFFFFEF10B504006023C35A88228258CB
:10154800222A05D00268936908210B43936110BDD4
:101558000268526ADBB21340826D1370836D0133E7
:1015680083655E22835A013B9BB28352835A9BB2A6
:10157800002BECD1026813680F490B401360026816
:1015880093682331FF318B43936088232022C25014
:1015980000230367C36E012B04D0FEF7C3FE0023AC
:1015A800E366D4E7026813680F318B4313605C234A
:1015B800C15AFFF775FEF2E7DFFEFFFF10B5040022
:1015C8006023C25A2833C358222B05D00268936976
:1015D80008210B43936110BD03685B6A1340826D59
:1015E8001380836D023383655E22835A013B9BB26D
:1015F8008352835A9BB2002BEDD1026813681049BD
:101608000B401360026893682331FF318B4393606A
:1016180088232022C25000230367C36E012B04D005
:10162800FEF780FE0023E366D5E7026813680F31F2
:101638008B4313605C23C15AFFF732FEF2E7C046C2
:10164800DFFEFFFFF0B5C64600B582B00400602398
:10165800C35A01930368DD691A6890469F68882217
:101668008258222A07D09A6908210A439A6102B04F
:1016780004BC9046F0BD6823C65A1FE08C23E3588B
:10168800002B56D15E23E35A9BB2002B16D1226859
:1016980013683D490B401360226893683B490B402F
:1016A800936088232022E25000232367E36E012BF6
:1016B80046D02000FEF736FE0023E366002E4AD00F
:1016C800AB0648D523685B6A6A4612791340A26D57
:1016D8001370A36D0133A3655E22A35A013B9BB22D
:1016E800A3522368DD696A07CCD0EA0708D54246C9
:1016F800D20505D5012119628C22A3580B43A350AA
:10170800AB0709D5FB0707D5236802221A628A327C
:10171800A35804210B43A3506B07AFD5FB07ADD5E6
:10172800236804221A628832A35802210B43A3506B
:10173800A4E72000FFF7A9FD8C230022E250A1E7CF
:101748002268136810218B4313605C23E15A200040
:10175800FFF7A6FDB0E75E23E35A9BB2002B00D14A
:1017680085E76822A25A9A4200D880E722689368DF
:1017780007490B409360074B2367226813682021B1
:101788000B43136073E7C046FFFEFFFFFEFFFFEF4A
:10179800FFFFFFEF3D150008F8B5CE46474680B578
:1017A80004006023C55A0368DF691A6890469A687E
:1017B800914688228258222A07D09A6908210A432A
:1017C8009A610CBC90469946F8BD6823C65A1FE03A
:1017D8008C23E358002B56D15E23E35A9BB2002B8F
:1017E80016D1226813683D490B401360226893683C
:1017F8003B490B40936088232022E2500023236753
:10180800E36E012B46D02000FEF78CFD0023E36633
:10181800002E4AD0BB0648D523685B6A2B40A26DD0
:101828001380A36D0233A3655E22A35A013B9BB2CA
:10183800A3522368DF697A07CED0FA0708D5424653
:10184800D20505D5012119628C22A3580B43A35058
:10185800BB070AD54B46DB0707D5236802221A6265
:101868008A32A35804210B43A3507B07B0D54B46BB
:10187800DB07ADD5236804221A628832A3580221F7
:101888000B43A350A4E72000FFF7FFFC8C230022A2
:10189800E250A1E72268136810218B4313605C2390
:1018A800E15A2000FFF7FCFCB0E75E23E35A9BB245
:1018B800002B00D185E76822A25A9A4200D880E717
:1018C8002268936807490B409360074B2367226897
:1018D800136820210B43136073E7C046FFFEFFFF28
:1018E800FEFFFFEFFFFFFFEFC515000810B504006E
:1018F80083680269134342691343C2691343426E02
:101908001A4301680B685C48034013430B60226864
:1019180053685A490B40E1680B435360226AA36934
:101928001A4321688B685648034013438B6022682A
:10193800D36A0F218B43616A0B43D3622368514AF0
:10194800934215D0504A934226D010238022120287
:10195800E169914224D0022B00D17BE055D9042BB8
:1019680000D179E0082B00D07FE08020000252E00F
:10197800464B5A6D03231340012B09D0002B05D089
:10198800022B0BD0032B05D01023DFE70023DDE764
:101998000423DBE70823D9E70023D7E70223D5E7A9
:1019A800022B30D006D9042B2AD0082B57D18020FF
:1019B800000205E0002B52D1FFF726FC002850D08A
:1019C800636A5B00324A995AFEF796FB40006368E7
:1019D8005B08C0186168FEF78FFB83B20004000C37
:1019E800010010392B4A91423DD80F2293431A0027
:1019F80040080723184010432368D860002020E0DF
:101A0800FFF7D8FADAE72448DAE7002B2DD1FFF7F9
:101A1800FBFB00282BD0636A5B001D4A995AFEF72E
:101A28006BFB63685B08C0186168FEF765FB000420
:101A3800000C0200103A174B9A421AD82368D86053
:101A4800002001236A22A352023AA35200232367EB
:101A5800636710BD1048DEE7FFF7ACFAD9E701204D
:101A6800EFE70020EDE70120EBE70120E9E70020A0
:101A7800E7E70120E5E7C046F369FFCFFFCFFFFFA7
:101A8800FFF4FF11003801400044004000100240FC
:101A980094200008EFFF00000024F400836ADB07AD
:101AA80006D5026853682C490B40C16A0B43536042
:101AB800836A9B0706D50268536828490B40016B67
:101AC8000B435360836A5B0706D502685368244951
:101AD8000B40416B0B435360836A1B0706D50268B2
:101AE800536820490B40816B0B435360836ADB06C4
:101AF80006D5026893681C490B40C16B0B43936081
:101B0800836A9B0606D50268936818490B40016CE6
:101B18000B439360836A5B060BD5026853681449CC
:101B28000B40416C0B43536080235B03426C9A4229
:101B38000AD0836A1B0606D5026853680D490B4014
:101B4800C16C0B4353607047026853680A490B40E5
:101B5800816C0B435360ECE7FFFFFDFFFFFFFEFFC7
:101B6800FFFFFBFFFF7FFFFFFFEFFFFFFFDFFFFF31
:101B7800FFFFEFFFFFFFF7FFFFFF9FFFF0B5C64630
:101B880000B505000C0017009846069E2B68DB6917
:101B980023401B1B5A425341BB423FD1731CF5D013
:101BA800FEF7EEFC4346C01AB04222D8002E20D0E1
:101BB8002B681A685207E9D5DA691205E6D580223A
:101BC80012011A622A68136816490B4013602A68C2
:101BD8009368A331FF318B43936020238422AB5059
:101BE8000432AB500432AB5060330022EA54032075
:101BF80015E02A6813680B490B4013602A6893683C
:101C0800A331FF318B43936020238422AB500432ED
:101C1800AB5060330022EA54032000E0002004BCEB
:101C28009046F0BD5FFEFFFFF0B585B004000E00E2
:101C380017001D008423C358202B62D1002963D0CC
:101C4800002A63D080235B0182689A421DD08023DA
:101C5800E35C012B5CD080230122E2540C33002288
:101C6800E250083B2132E250FEF78AFC03905423ED
:101C7800E7520233E75280235B01A2689A420BD0F5
:101C8800002780230022E25419E00369002BDED1EB
:101C9800CB07DCD5012035E02369002B01D00027D4
:101CA800EFE737000026ECE73B882268DB05DB0D11
:101CB800936202375622A35A013B9BB2A352562382
:101CC800E35A9BB2002B0FD00095039B0022802182
:101CD8002000FFF753FF00281CD1002EE4D03278F3
:101CE80023689A620136E5E70095039B00224021AC
:101CF8002000FFF743FF00280ED184232022E25062
:101D080000E0022005B0F0BD0120FBE70120F9E763
:101D18000220F7E70320F5E70320F3E730B583B0A7
:101D280004008C230022C250FEF72AFC0500236819
:101D38001B681B070FD423681B685B0718D4202374
:101D48008422A3500432A3500023E366083AA35424
:101D5800002003B030BD80210C4B0093030000220B
:101D680089032000FFF70AFF0028E4D00320F0E7EA
:101D78008021064B00932B000022C9032000FFF7A7
:101D8800FDFE0028DBD00320E3E7C046FFFFFF018C
:101D980010B5041E30D08423C358002B22D08423CE
:101DA8002422E2502268136801218B43136020002B
:101DB800FFF79CFD012814D0A36A002B18D12268D4
:101DC80053680E490B405360226893682A218B435D
:101DD80093602268136829390B4313602000FFF7CA
:101DE8009DFF10BD80330022C254FEF70BFBD6E7DF
:101DF8002000FFF753FEE2E70120F2E7FFB7FFFFFD
:101E080010B581655C23C2520233C25200230367B6
:101E18008368802149018B4208D0002B15D10369C2
:101E2800002B0ED16033FF21C15215E00369002B4E
:101E380003D160333149C1520EE06023FF21C15202
:101E48000AE060237F21C15206E0802149058B42C8
:101E580023D060230021C1528C230021C150043BB0
:101E68002231C15001688B68012423438B60802391
:101E78009B05416E99421BD080235B0182689A4280
:101E880036D01F4B036780230022C25402681168B2
:101E9800A0330B431360002010BD0369002B03D14E
:101EA80060337F21C152D7E760233F21C152D3E776
:101EB8006823C35A9342DFD880235B0182689A4221
:101EC80010D0104B036780230022C25402681168A7
:101ED80080330B4313600268916880235B050B43D2
:101EE8009360D8E70369002BEBD1074B0367EAE758
:101EF8000369002BC5D1054B0367C4E7FF01000048
:101F08003D1500084D160008A1170008C515000862
:101F180010B58823C358202B1BD100291BD0002AB9
:101F28001BD080235B0184689C420BD08023C35C58
:101F3800012B14D080230124C4540023C366FFF767
:101F48005FFF07E00369002BF0D1CB07EED5012036
:101F580000E0022010BD0120FCE70120FAE7022082
:101F6800F8E77047704770470D488546FEF7B6FAA0
:101F78000C480D490D4A002302E0D458C4500433DC
:101F8800C4188C42F9D30A4A0A4C002301E01360B2
:101F98000432A242FBD300F011F8FEF701FAFEE783
:101FA80000200020000000200C000020B4200008C1
:101FB8000C0000205C010020FEE7000070B5002640
:101FC8000C4D0D4C641BA410A64209D1002600F04C
:101FD80021F80A4D0A4C641BA410A64205D170BD15
:101FE800B300EB5898470136EEE7B300EB58984733
:101FF8000136F2E7AC200008AC200008AC2000084D
:10200800B020000803001218934200D170471970DD
:102018000133F9E7F8B5C046F8BC08BC9E467047DE
:0C202800F8B5C046F8BC08BC9E467047E6
:10203400000000000000000000000000000000009C
:10204400000000000000000000000000000000008C
:102054000100000002000000030000000400000072
:10206400060000000700000008000000090000004E
:10207400000000000000000000000000000000005C
:102084000100000002000000030000000400000042
:10209400010002000400060008000A000C00100001
:0820A400200040008000000153
:0420AC00E100000847
:0420B000B90000086B
:0C20B4000024F400010000000400000003
:0400000508001F715F
:00000001FF
